:020000040800F2
:10000000B8060020CD01000859050008A104000829
:100010005505000875020008A70B00080000000045
:100020000000000000000000000000005107000870
:100030007B020008000000001906000861080008A3
:10004000E7010008E7010008E7010008E7010008F0
:10005000E7010008E7010008E7010008E7010008E0
:10006000E7010008E7010008E7010008E7010008D0
:10007000E7010008E7010008E7010008E7010008C0
:10008000E7010008E7010008E7010008E7010008B0
:10009000E7010008E7010008E7010008E7010008A0
:1000A000E7010008E7010008E7010008E701000890
:1000B000E7010008E7010008E7010008E701000880
:1000C000E7010008E7010008E7010008E701000870
:1000D000E701000845090008E7010008E7010008FA
:1000E000E7010008E7010008E7010008E701000850
:1000F000E7010008E7010008E7010008E701000840
:10010000E7010008E7010008E7010008E70100082F
:10011000E7010008E7010008E7010008E70100081F
:10012000E7010008E7010008E7010008E70100080F
:1001300000F002F800F03AF80AA090E8000C8244BF
:100140008344AAF10107DA4501D100F02FF8AFF29C
:10015000090EBAE80F0013F0010F18BFFB1A43F0A5
:1001600001031847A00B0000C00B0000103A24BF89
:1001700078C878C1FAD8520724BF30C830C144BF0C
:1001800004680C607047000000230024002500264E
:10019000103A28BF78C1FBD8520728BF30C148BFEA
:1001A0000B6070471FB51FBD10B510BD00F033F8D0
:1001B0001146FFF7F7FF00F02DFD00F051F803B4F2
:1001C000FFF7F2FF03BC00F0F0FC00000948804795
:1001D00009480047FEE7FEE7FEE7FEE7FEE7FEE729
:1001E000FEE7FEE7FEE7FEE704480549054A064B41
:1001F00070470000E508000831010008B800002041
:10020000B8060020B8020020B802002070477047EE
:10021000704770477047754600F028F8AE460500F5
:100220006946534620F00700854618B020B5FFF711
:10023000DBFFBDE820404FF000064FF000074FF015
:1002400000084FF0000B21F00701AC46ACE8C009F4
:10025000ACE8C009ACE8C009ACE8C0098D467047FD
:100260000446AFF300802046FFF7A9FF004870471F
:100270005800002000BFFEE7704770470179A1B920
:10028000012101710021C1600849097A491C074A0E
:1002900011721146096819B911460860486004E0F6
:1002A00002494968C8600149486070474C00002015
:1002B00010B5044672B60020A0602046FFF7DEFFAE
:1002C00062B610BD72B60B48006810B962B6002065
:1002D0007047084801680068C068064A106000203E
:1002E0000871C8601046007A401E107262B6084657
:1002F000EEE700004C0000202DE9F0410246002509
:100300000026002000230024002791F803C00CF0F1
:100310000F0591F803C01CF0100F03D091F802C034
:100320004CEA050591F800C0BCF1000F31D014680B
:1003300000202BE04FF0010C0CFA00F3B1F800C0E4
:100340000CEA03069E4220D183004FF00F0C0CFAFA
:1003500003F7BC4305FA03FC4CEA040491F803C01C
:10036000BCF1280F06D14FF0010C0CFA00FCC2F8CA
:1003700014C00AE091F803C0BCF1480F05D14FF05A
:10038000010C0CFA00FCC2F810C0401C0828D1D3A4
:100390001460B1F800C0BCF1FF0F34DD54680020D8
:1003A0002EE000F1080C4FF0010808FA0CF3B1F848
:1003B00000C00CEA03069E4221D183004FF00F0CCF
:1003C0000CFA03F7BC4305FA03FC4CEA040491F869
:1003D00003C0BCF1280F05D100F1080C08FA0CF895
:1003E000C2F8148091F803C0BCF1480F07D100F1A6
:1003F000080C4FF0010808FA0CF8C2F81080401CF5
:100400000828CED35460BDE8F0810000F0B50A465C
:10041000002300240021002500F00046B6F1004F23
:1004200002D11D4EF16901E01B4E7168C0F3034516
:1004300083B200F44016B6F5401F08D121F0706178
:10044000154E766826F07066134F7E6012E000F459
:100450008016B6F5801F06D1032606FA05F4A143DF
:1004600041F0706106E0460D360103FA06F6B1432D
:1004700041F0706122B1460D360103FA06F63143B0
:1004800000F00046B6F1004F02D1034EF16101E0E9
:10049000014E7160F0BD0000000001400161704735
:1004A00000BFFEE708B50121142000F0C7F80121C4
:1004B0001148FFF7ABFF4FF40040ADF800004820B3
:1004C0008DF8030069460D48FFF716FF2020ADF8B0
:1004D000000048208DF8030069460948FFF70CFF2B
:1004E0000120ADF8000028208DF80300694603487C
:1004F000FFF702FF08BD00000002300000080140C5
:100500000010014008B50121242000F097F84FF4B5
:100510008070ADF8000010208DF8030003208DF8E6
:10052000020069460948FFF7E7FE4FF4807107486B
:10053000FFF7B4FF0420ADF8000069460448FFF758
:10054000DBFE04210248FFF7A9FF08BD00080140B7
:100550000014014000BFFEE7704710B54FF4A060E3
:1005600000F03CF810BD000070B5002100230F2200
:10057000C4780CB3164C246804F4E064C4F5E06459
:10058000210AC1F10403CA40447804FA03F18478D3
:100590001440214309010F4C0678A155047804F05A
:1005A0001F050124AC4005786D114FF0E02606EBE5
:1005B0008505C5F8004109E0047804F01F05012411
:1005C000AC40054D0678761145F8264070BD000018
:1005D0000CED00E000E400E080E100E002490143AE
:1005E000024A1160704700000000FA050CED00E0BF
:1005F00010B5044606480078064908700846007899
:1006000000F07AFB03480078FFF736FE10BD0000CB
:1006100031000020300000207047000029B1064A58
:1006200012690243044B1A6104E0034A12698243CF
:10063000014B1A61704700000010024029B1064AC0
:1006400092690243044B9A6104E0034A926982432F
:10065000014B9A61704700000010024029B1064A20
:10066000D2680243044BDA6004E0034AD268824352
:10067000014BDA60704700000010024030B50021E5
:100680000022002400232D4D6D6805F00C0121B1DE
:10069000042905D0082923D105E0294D056022E071
:1006A000274D05601FE0254D6D6805F47012234D40
:1006B0006D6805F48034022505EB92421CB9214D8A
:1006C000554305600BE01D4D6D6815F4003F03D0E8
:1006D0001C4D5543056002E0194D5543056002E08D
:1006E000174D056000BF00BF144D6D6805F0F001A7
:1006F0000909154D6B5C0568DD4045600F4D6D685F
:1007000005F4E061090A104D6B5C4568DD408560C9
:100710000A4D6D6805F46051C90A0B4D6B5C456864
:10072000DD40C560054D6D6805F44041890B074DFE
:100730006B5CC568B5FBF3F5056130BD0010024088
:1007400000127A0000093D0036000020460000201B
:10075000704710B500F002F810BD00000CB5002085
:10076000019000903248006840F4803030490860C1
:1007700000BF2F48006800F4003000900198401C32
:100780000190009818B90198B0F5A06FF1D12848F0
:10079000006810F4003F02D00120009001E000202A
:1007A00000900098012842D12248006840F01000D3
:1007B000204908600846006820F0030008600846E9
:1007C000006840F002000860194840681849486015
:1007D0000846406848600846406840F480604860C9
:1007E0000846406820F47C1048600846406840F4A1
:1007F000E81048600846006840F08070086000BF5C
:100800000B48006810F0007FFAD00948406820F0DB
:100810000300074948600846406840F0020048600D
:1008200000BF0348406800F00C000828F9D10CBD57
:100830000010024000200240042808D14FF0E021BF
:10084000096941F004014FF0E022116107E04FF027
:10085000E021096921F004014FF0E02211617047A5
:1008600001200149087070470000002030B51A4887
:1008700000686422B0FBF2F1B1F1807F01D3012066
:100880001DE021F07F40401E4FF0E02250615017E4
:100890000F22002807DA13071D0E104B00F00F047B
:1008A000241F1D5503E013071C0E0D4B1C5400BFE5
:1008B00000204FF0E022906107201061002008B175
:1008C00000BFFEE74FF0E020006940F001004FF06C
:1008D000E021086130BD00000C00002018ED00E0B0
:1008E00000E400E010B51348006840F00100114931
:1008F000086008464068104908400E4948600846AC
:1009000000680E4908400B4908600846006820F45A
:10091000802008600846406820F4FE0048604FF4DC
:100920001F008860FFF715FF4FF000600449086062
:1009300010BD0000001002400000FFF8FFFFF6FEAF
:1009400008ED00E010B540F22551064800F06AF8C5
:1009500038B1044800F022F9034908700348FFF752
:10096000A7FC10BD0038014031000020200000200D
:1009700021B1828942F40052828104E082894DF6DD
:10098000FF731A408281704710B5044620488442A4
:1009900009D101218803FFF761FE00214FF4804057
:1009A000FFF75CFE32E01B48844209D10121480474
:1009B000FFF734FE00214FF40030FFF72FFE25E053
:1009C0001548844209D101218804FFF727FE002140
:1009D0004FF48020FFF722FE18E01048844209D12E
:1009E0000121C804FFF71AFE00214FF40020FFF791
:1009F00015FE0BE00A48844208D101210805FFF7E3
:100A00000DFE00214FF48010FFF708FE10BD00001E
:100A1000003801400044004000480040004C0040C5
:100A20000050004070B5024600240023002500203D
:100A3000A1F510666A3E00D100BFC1F3421501F076
:100A40001F03012606FA03F3012D02D196893340D4
:100A500006E0022D02D1168A334001E0968A334027
:100A60000C12012606FA04F41688344013B10CB1B6
:100A7000012000E0002070BDF0B5034600240026F0
:100A800000250020A1F510676A3F00D100BF18467D
:100A9000C1F3421401F01F06012707FA06F5012CE5
:100AA00001D10C3004E0022C01D1103000E01430F0
:100AB0001AB107682F43076002E00768AF43076079
:100AC000F0BD00002DE9F04786B005460E46002433
:100AD000A24600BFA1460027B08900B100BF2F4643
:100AE0002C8A4CF6FF700440F08804432C82AC89B9
:100AF0004EF6F3100440B0883189084371890843E9
:100B00000443AC81AC8A4FF6FF400440B0890443F3
:100B1000AC8201A8FFF7B2FD1F48874202D1DDF881
:100B200010A001E0DDF80CA0A88910F4004F08D057
:100B30000AEBCA0000EB0A1031684900B0FBF1F87B
:100B400007E00AEBCA0000EB0A1031688900B0FB2D
:100B5000F1F86420B8FBF0F004012009642101FBE6
:100B60001089A88910F4004F08D0322000EBC9008A
:100B7000B0FBF1F000F00700044308E0322000EB86
:100B800009106421B0FBF1F000F00F0004432C8148
:100B900006B0BDE8F08700000038014001468888B3
:100BA000C0F30800704700BFFEE7014600BF704772
:100BB00010B5FFF7A7FCFFF775FC00F009F84FF43C
:100BC000E13000F047F8FFF751FEFFF7C6FC10BD1B
:100BD00010B56FF00400FFF72FFE0A4800680A49BD
:100BE000B0FBF1F0094908700846007800EB4001BD
:100BF000C1EBC0104FF6FF7101EAC0000449088044
:100C000010BD00000C00002000127A00320000200D
:100C100034000020FFF7CCFF0DE0FFF753FB06493F
:100C200008600846006830B10A46126890680A46B3
:100C3000126811688847F0E70400002000BF0449EB
:100C4000098811F0400FFAD00149091D088070474A
:100C50000038014010B586B00446012144F204007A
:100C6000FFF7ECFC2248FFF78FFE4FF40070ADF861
:100C7000140003208DF8160018208DF8170005A920
:100C80001C48FFF739FB4FF48060ADF814000420D6
:100C90008DF8170005A91748FFF72EFB25208DF8C2
:100CA000000001208DF801008DF802008DF803008E
:100CB0006846FFF759FC01940020ADF80800ADF834
:100CC0000A00ADF80C00ADF810000C20ADF80E00D5
:100CD00001A90748FFF7F6FE012240F2255104481A
:100CE000FFF7CAFE01210248FFF742FE06B010BD21
:100CF000003801400008014000B502461046FFF7E9
:100D00009DFF00BD240D0008000000204C000000E5
:100D10006C010008700D00084C0000206C060000FB
:100D20008801000800000000000000000000000032
:100D300000A24A04000000000000000001020304B9
:100D400006070809F1050008000000000000000087
:100D50000000000000000000000000000000010290
:100D60000304010203040607080902040608000040
:0400000508000131BD
:00000001FF
