:020000040800F2
:1000000000070020D10100086D060008B5050008B2
:100010006906000859030008930D0008000000005D
:10002000000000000000000000000000C5080008FB
:100030007B030008000000008D070008D5090008B8
:10004000EB010008EB010008EB010008EB010008E0
:10005000EB010008EB010008EB010008EB010008D0
:10006000EB010008EB010008EB010008EB010008C0
:10007000EB010008EB010008EB010008EB010008B0
:10008000EB010008EB010008EB010008EB010008A0
:10009000EB010008EB010008EB010008EB01000890
:1000A000EB010008EB010008EB010008EB01000880
:1000B000EB010008EB010008EB010008EB01000870
:1000C000EB010008EB010008EB010008EB01000860
:1000D000EB010008310B0008EB010008EB01000800
:1000E000EB010008EB010008EB010008EB01000840
:1000F000EB010008EB010008EB010008EB01000830
:10010000EB010008EB010008EB010008EB0100081F
:10011000EB010008EB010008EB010008EB0100080F
:10012000EB010008EB010008EB010008EB010008FF
:1001300000F002F800F03CF80AA090E8000C8244BD
:100140008344AAF10107DA4501D100F031F8AFF29A
:10015000090EBAE80F0013F0010F18BFFB1A43F0A5
:1001600001031847E40D0000040E0000103A24BFFC
:1001700078C878C1FAD8520724BF30C830C144BF0C
:1001800004680C607047000000230024002500264E
:10019000103A28BF78C1FBD8520728BF30C148BFEA
:1001A0000B607047002070471FB51FBD10B510BD14
:1001B00000F0A2F81146FFF7F7FF00F031FE00F063
:1001C000C0F803B4FFF7F2FF03BC00F0E4FD000049
:1001D0000948804709480047FEE7FEE7FEE7FEE7DB
:1001E000FEE7FEE7FEE7FEE7FEE7FEE70448054917
:1001F000054A064B70470000610A000831010008FB
:100200000001002000070020000300200003002060
:10021000704700000FB4044910B503AA029800F01B
:100220003DF810BC5DF814FB540000202DE9F041AE
:100230000E460446002020622046E168884730B31D
:10024000252805D0D4E901219047206A401CF2E717
:10025000E168204600278847050018D0A5F1410035
:10026000192802D820354FF4006732462946204627
:100270002760FFF797FF40B1012804D0F61D26F054
:1002800007060836D8E7361DD6E72846DAE7206A9B
:10029000BDE8F0817047704770477047074B70B5F5
:1002A0000D467B4400F011F80446284600F020F883
:1002B00010B14FF0FF3070BD204670BD5F0B0000E5
:1002C00001694A1C02610878704700B58FB0CDE91A
:1002D00001310021059105497944CDE9031011460A
:1002E0006846FFF7A3FF0FB000BD0000E5FFFFFF6A
:1002F000007B00F080007047754600F029F8AE469C
:1003000005006946534620F00700854618B020B521
:10031000FFF76CFFBDE820404FF000064FF00007EC
:100320004FF000084FF0000B21F00701AC46ACE89D
:10033000C009ACE8C009ACE8C009ACE8C0098D460A
:1003400070470446AFF300802046FFF73AFF0000F5
:1003500000487047A000002000BFFEE710B5044829
:100360000078401C02490870024800F007F810BDF0
:1003700040000020300000207047704710B5044650
:1003800072B60020A060204600F002F862B610BDF0
:100390000179A1B9012101710021C1600849097ADF
:1003A000491C074A11721146096819B911460860BB
:1003B000486004E002494968C860014948607047E4
:1003C0006C00002010B5044672B60020A0602046E4
:1003D000FFF7DEFF62B610BD72B60B48006810B9B9
:1003E00062B600207047084801680068C068064A85
:1003F000106000200871C8601046007A401E10721C
:1004000062B60846EEE700006C0000202DE9F041DE
:10041000024600250026002000230024002791F832
:1004200003C00CF00F0591F803C01CF0100F03D0AF
:1004300091F802C04CEA050591F800C0BCF1000F2C
:1004400031D0146800202BE04FF0010C0CFA00F3BF
:10045000B1F800C00CEA03069E4220D183004FF0A1
:100460000F0C0CFA03F7BC4305FA03FC4CEA040436
:1004700091F803C0BCF1280F06D14FF0010C0CFA23
:1004800000FCC2F814C00AE091F803C0BCF1480FA8
:1004900005D14FF0010C0CFA00FCC2F810C0401C52
:1004A0000828D1D31460B1F800C0BCF1FF0F34DDCF
:1004B000546800202EE000F1080C4FF0010808FA03
:1004C0000CF3B1F800C00CEA03069E4221D1830070
:1004D0004FF00F0C0CFA03F7BC4305FA03FC4CEA8F
:1004E000040491F803C0BCF1280F05D100F1080CF9
:1004F00008FA0CF8C2F8148091F803C0BCF1480F58
:1005000007D100F1080C4FF0010808FA0CF8C2F806
:100510001080401C0828CED35460BDE8F081000054
:10052000F0B50A46002300240021002500F0004613
:10053000B6F1004F02D11D4EF16901E01B4E71680A
:10054000C0F3034583B200F44016B6F5401F08D14E
:1005500021F07061154E766826F07066134F7E604C
:1005600012E000F48016B6F5801F06D1032606FAC5
:1005700005F4A14341F0706106E0460D360103FA2F
:1005800006F6B14341F0706122B1460D360103FA1F
:1005900006F6314300F00046B6F1004F02D1034E9B
:1005A000F16101E0014E7160F0BD0000000001400A
:1005B0000161704700BFFEE708B50121142000F07B
:1005C000F7F801211148FFF7ABFF4FF40040ADF8F9
:1005D000000048208DF8030069460D48FFF716FF1C
:1005E0002020ADF8000048208DF803006946094836
:1005F000FFF70CFF0120ADF8000028208DF8030064
:1006000069460348FFF702FF08BD00000002300002
:10061000000801400010014008B50121242000F02D
:10062000C7F84FF48070ADF8000010208DF803007B
:1006300003208DF8020069460948FFF7E7FE4FF4F2
:1006400080710748FFF7B4FF0420ADF80000694649
:100650000448FFF7DBFE04210248FFF7A9FF08BDAD
:10066000000801400014014000BFFEE7704710B5CC
:100670004FF4A06000F03CF810BD000070B5002100
:1006800000230F22C4780CB3164C246804F4E064F1
:10069000C4F5E064210AC1F10403CA40447804FAB5
:1006A00003F184781440214309010F4C0678A155C9
:1006B000047804F01F050124AC4005786D114FF05B
:1006C000E02606EB8505C5F8004109E0047804F052
:1006D0001F050124AC40054D0678761145F82640EB
:1006E00070BD00000CED00E000E400E080E100E0FF
:1006F00002490143024A1160704700000000FA05F8
:100700000CED00E010B50446064800780649087074
:100710000846007800F012FC03480078FFF72CFE32
:1007200010BD00002D0000202C00002010B50C484A
:10073000046812E0207878B16068401E60606068EC
:1007400050B9E06818B9204600F0EEF901E0E06821
:1007500060600020A16888472469002CEAD110BDA0
:100760004400002070B5054672B6074804780020A2
:100770000549087062B603E0FFF7D8FF601EC4B2F7
:10078000002CF9DC70BD0000400000207047000024
:1007900029B1064A12690243044B1A6104E0034A74
:1007A00012698243014B1A61704700000010024039
:1007B00029B1064A92690243044B9A6104E0034A54
:1007C00092698243014B9A61704700000010024019
:1007D00029B1064AD2680243044BDA6004E0034AB6
:1007E000D2688243014BDA6070470000001002407B
:1007F00030B500210022002400232D4D6D6805F046
:100800000C0121B1042905D0082923D105E0294D87
:10081000056022E0274D05601FE0254D6D6805F459
:100820007012234D6D6805F48034022505EB924269
:100830001CB9214D554305600BE01D4D6D6815F445
:10084000003F03D01C4D5543056002E0194D554350
:10085000056002E0174D056000BF00BF144D6D68D4
:1008600005F0F0010909154D6B5C0568DD40456038
:100870000F4D6D6805F4E061090A104D6B5C456829
:10088000DD4085600A4D6D6805F46051C90A0B4D65
:100890006B5C4568DD40C560054D6D6805F4404101
:1008A000890B074D6B5CC568B5FBF3F5056130BD81
:1008B0000010024000127A0000093D00580000209C
:1008C00068000020704710B500F002F810BD00006D
:1008D0000CB50020019000903248006840F4803050
:1008E0003049086000BF2F48006800F400300090D5
:1008F0000198401C0190009818B90198B0F5A06FBC
:10090000F1D12848006810F4003F02D00120009087
:1009100001E0002000900098012842D122480068A0
:1009200040F01000204908600846006820F00300ED
:1009300008600846006840F00200086019484068F6
:10094000184948600846406848600846406840F4D6
:10095000806048600846406820F47C104860084683
:10096000406840F4E81048600846006840F0807035
:10097000086000BF0B48006810F0007FFAD00948FB
:10098000406820F00300074948600846406840F08E
:100990000200486000BF0348406800F00C000828CF
:1009A000F9D10CBD0010024000200240042808D1FB
:1009B0004FF0E021096941F004014FF0E02211619C
:1009C00007E04FF0E021096921F004014FF0E02237
:1009D0001161704710B5012002490870FFF7BEFC95
:1009E00010BD00000000002030B51A4800686422E5
:1009F000B0FBF2F1B1F1807F01D301201DE021F0C5
:100A00007F40401E4FF0E022506150170F22002817
:100A100007DA13071D0E104B00F00F04241F1D559D
:100A200003E013071C0E0D4B1C5400BF00204FF0B9
:100A3000E022906107201061002008B100BFFEE7AE
:100A40004FF0E020006940F001004FF0E021086124
:100A500030BD00000800002018ED00E000E400E0D8
:100A600010B51348006840F00100114908600846BD
:100A70004068104908400E494860084600680E4921
:100A800008400B4908600846006820F48020086090
:100A90000846406820F4FE0048604FF41F0088605C
:100AA000FFF711FF4FF000600449086010BD00001F
:100AB000001002400000FFF8FFFFF6FE08ED00E026
:100AC000014601F109000A22B0FBF2F0704770B54F
:100AD00004460D4616462846FFF7F2FFE060324610
:100AE0002946204600F002F870BD000070B50446AB
:100AF0000D461646204600F017F82846FFF7E0FF9F
:100B00000749097808446060A660012020702069C8
:100B100020B90448006820610248046070BD0000EC
:100B200040000020440000200021017070470000B8
:100B300010B540F22551064800F06AF838B1044873
:100B400000F022F9034908700348FFF73BFC10BD91
:100B5000003801402D0000201C00002021B18289B6
:100B600042F40052828104E082894DF6FF731A40FC
:100B70008281704710B504462048844209D1012182
:100B80008803FFF725FE00214FF48040FFF720FE89
:100B900032E01B48844209D101214804FFF7F8FDE7
:100BA00000214FF40030FFF7F3FD25E015488442A3
:100BB00009D101218804FFF7EBFD00214FF48020CB
:100BC000FFF7E6FD18E01048844209D10121C8046E
:100BD000FFF7DEFD00214FF40020FFF7D9FD0BE009
:100BE0000A48844208D101210805FFF7D1FD002100
:100BF0004FF48010FFF7CCFD10BD0000003801401D
:100C00000044004000480040004C004000500040BC
:100C100070B502460024002300250020A1F51066CF
:100C20006A3E00D100BFC1F3421501F01F03012647
:100C300006FA03F3012D02D19689334006E0022D16
:100C400002D1168A334001E0968A33400C12012605
:100C500006FA04F41688344013B10CB1012000E008
:100C6000002070BDF0B503460024002600250020BA
:100C7000A1F510676A3F00D100BF1846C1F34214C6
:100C800001F01F06012707FA06F5012C01D10C30EF
:100C900004E0022C01D1103000E014301AB10768D2
:100CA0002F43076002E00768AF430760F0BD000014
:100CB0002DE9F04786B005460E460024A24600BF47
:100CC000A1460027B08900B100BF2F462C8A4CF600
:100CD000FF700440F08804432C82AC894EF6F31078
:100CE0000440B08831890843718908430443AC81CA
:100CF000AC8A4FF6FF400440B0890443AC8201A89F
:100D0000FFF776FD1F48874202D1DDF810A001E011
:100D1000DDF80CA0A88910F4004F08D00AEBCA0037
:100D200000EB0A1031684900B0FBF1F807E00AEB6C
:100D3000CA0000EB0A1031688900B0FBF1F86420AA
:100D4000B8FBF0F004012009642101FB1089A88997
:100D500010F4004F08D0322000EBC900B0FBF1F0D6
:100D600000F00700044308E0322000EB0910642182
:100D7000B0FBF1F000F00F0004432C8106B0BDE899
:100D8000F08700000038014001468888C0F3080061
:100D9000704700BFFEE7014600BF704710B5FFF780
:100DA0003BFCFFF709FC00F00BF84FF4E13000F0DA
:100DB00073F8FFF719FEFFF75AFC00F055F810BD65
:100DC00010B56FF00400FFF7F1FD0A4800680A490A
:100DD000B0FBF1F0094908700846007800EB4001CB
:100DE000C1EBC0104FF6FF7101EAC0000449088052
:100DF00010BD00000800002000127A00480000200A
:100E00004A00002000BF054A128812F0400FFAD0B5
:100E1000C2B2024B1B1D1A8070470000003801400F
:100E2000FFF7BCFF0DE0FFF7D7FA06490860084658
:100E3000006830B10A46126890680A461268116864
:100E40008847F0E70400002010B5044601A0FFF732
:100E5000E1F910BD7072696E745461736B5F686103
:100E60006E646C6572200A0010B5034A4FF47A7103
:100E70000248FFF72CFE10BD490E00087800002044
:100E800000BF0449098811F0400FFAD00149091D3B
:100E9000088070470038014010B586B00446012133
:100EA00044F20400FFF784FC2248FFF763FE4FF48E
:100EB0000070ADF8140003208DF8160018208DF88E
:100EC000170005A91C48FFF7A1FA4FF48060ADF8A0
:100ED000140004208DF8170005A91748FFF796FAAB
:100EE00025208DF8000001208DF801008DF802000A
:100EF0008DF803006846FFF7C1FB01940020ADF8B0
:100F00000800ADF80A00ADF80C00ADF810000C2098
:100F1000ADF80E0001A90748FFF7CAFE012240F212
:100F200025510448FFF79EFE01210248FFF716FEF7
:100F300006B010BD003801400008014000B502466F
:100F40001046FFF79DFF00BD680F0008000000205D
:100F50006C0000006C010008D40F00086C00002039
:100F60009406000088010008000000000000000056
:100F700000A24A0400000000000000000102030477
:100F8000060708090507000800000000000000002F
:100F900000000000000000006507000800000000DD
:100FA0000000000000000000000000008C00002095
:100FB0000000000000000000000000000000000031
:100FC00000000000010203040102030406070809EF
:040FD0000204060809
:0400000508000131BD
:00000001FF
