:020000040800F2
:10000000B0070020D101000871060008B7050008FC
:100010006D06000859030008C70D00080000000025
:10002000000000000000000000000000D1080008EF
:100030007B0300080000000099070008E1090008A0
:10004000EB010008EB010008EB010008EB010008E0
:10005000EB010008EB010008EB010008EB010008D0
:10006000EB010008EB010008EB010008EB010008C0
:10007000EB010008EB010008EB010008EB010008B0
:10008000EB010008EB010008EB010008EB010008A0
:10009000EB010008EB010008EB010008EB01000890
:1000A000EB010008EB010008EB010008EB01000880
:1000B000EB010008EB010008EB010008EB01000870
:1000C000EB010008EB010008EB010008EB01000860
:1000D000EB0100083D0B0008EB010008EB010008F4
:1000E000EB010008EB010008EB010008EB01000840
:1000F000EB010008EB010008EB010008EB01000830
:10010000EB010008EB010008EB010008EB0100081F
:10011000EB010008EB010008EB010008EB0100080F
:10012000EB010008EB010008EB010008EB010008FF
:1001300000F002F800F03CF80AA090E8000C8244BD
:100140008344AAF10107DA4501D100F031F8AFF29A
:10015000090EBAE80F0013F0010F18BFFB1A43F0A5
:1001600001031847D4100000F4100000103A24BF17
:1001700078C878C1FAD8520724BF30C830C144BF0C
:1001800004680C607047000000230024002500264E
:10019000103A28BF78C1FBD8520728BF30C148BFEA
:1001A0000B607047002070471FB51FBD10B510BD14
:1001B00000F0A2F81146FFF7F7FF00F03DFF00F056
:1001C000C0F803B4FFF7F2FF03BC00F0FEFD00002F
:1001D0000948804709480047FEE7FEE7FEE7FEE7DB
:1001E000FEE7FEE7FEE7FEE7FEE7FEE70448054917
:1001F000054A064B704700006D0A000831010008EF
:10020000B0010020B0070020B0030020B0030020A0
:10021000704700000FB4044910B503AA029800F01B
:100220003DF810BC5DF814FB780000202DE9F0418A
:100230000E460446002020622046E168884730B31D
:10024000252805D0D4E901219047206A401CF2E717
:10025000E168204600278847050018D0A5F1410035
:10026000192802D820354FF4006732462946204627
:100270002760FFF797FF40B1012804D0F61D26F054
:1002800007060836D8E7361DD6E72846DAE7206A9B
:10029000BDE8F0817047704770477047074B70B5F5
:1002A0000D467B4400F011F80446284600F020F883
:1002B00010B14FF0FF3070BD204670BDAF0B000095
:1002C00001694A1C02610878704700B58FB0CDE91A
:1002D00001310021059105497944CDE9031011460A
:1002E0006846FFF7A3FF0FB000BD0000E5FFFFFF6A
:1002F000007B00F080007047754600F029F8AE469C
:1003000005006946534620F00700854618B020B521
:10031000FFF76CFFBDE820404FF000064FF00007EC
:100320004FF000084FF0000B21F00701AC46ACE89D
:10033000C009ACE8C009ACE8C009ACE8C0098D460A
:1003400070470446AFF300802046FFF73AFF0000F5
:10035000004870474C01002000BFFEE710B504487C
:100360000078401C02490870024800F029F810BDCE
:100370004000002030000020704770470179A1B98B
:10038000012101710021C1600849097A491C074A0D
:1003900011721146096819B911460860486004E0F5
:1003A00002494968C86001494860704790000020D0
:1003B00070B504460D46A5602046FFF7DFFF70BD0F
:1003C00010B504460020A0602046FFF7D7FF10BDFF
:1003D0000948006808B900207047074801680068AC
:1003E000C068054A106000200871C8601046007A95
:1003F000401E10720846EFE7900000202DE9F04102
:10040000024600250026002000230024002791F842
:1004100003C00CF00F0591F803C01CF0100F03D0BF
:1004200091F802C04CEA050591F800C0BCF1000F3C
:1004300031D0146800202BE04FF0010C0CFA00F3CF
:10044000B1F800C00CEA03069E4220D183004FF0B1
:100450000F0C0CFA03F7BC4305FA03FC4CEA040446
:1004600091F803C0BCF1280F06D14FF0010C0CFA33
:1004700000FCC2F814C00AE091F803C0BCF1480FB8
:1004800005D14FF0010C0CFA00FCC2F810C0401C62
:100490000828D1D31460B1F800C0BCF1FF0F34DDDF
:1004A000546800202EE000F1080C4FF0010808FA13
:1004B0000CF3B1F800C00CEA03069E4221D1830080
:1004C0004FF00F0C0CFA03F7BC4305FA03FC4CEA9F
:1004D000040491F803C0BCF1280F05D100F1080C09
:1004E00008FA0CF8C2F8148091F803C0BCF1480F68
:1004F00007D100F1080C4FF0010808FA0CF8C2F817
:100500001080401C0828CED35460BDE8F081000064
:10051000F0B50A46002300240021002500F0004623
:10052000B6F1004F02D11D4EF16901E01B4E71681A
:10053000C0F3034583B200F44016B6F5401F08D15E
:1005400021F07061154E766826F07066134F7E605C
:1005500012E000F48016B6F5801F06D1032606FAD5
:1005600005F4A14341F0706106E0460D360103FA3F
:1005700006F6B14341F0706122B1460D360103FA2F
:1005800006F6314300F00046B6F1004F02D1034EAB
:10059000F16101E0014E7160F0BD0000000001401A
:1005A0000246002093680B4201D0012000E00020A9
:1005B00070470161704700BFFEE7000008B50121E8
:1005C000142000F0FBF801211148FFF7A1FF4FF4C0
:1005D0000040ADF8000048208DF8030069460D4842
:1005E000FFF70CFF2020ADF8000048208DF8030035
:1005F00069460948FFF702FF0120ADF800002820F6
:100600008DF8030069460348FFF7F8FE08BD0000B7
:1006100000023000000801400010014008B501212F
:10062000242000F0CBF84FF48070ADF800001020CB
:100630008DF8030003208DF8020069460948FFF792
:10064000DDFE4FF480710748FFF7B3FF0420ADF8DB
:10065000000069460448FFF7D1FE04210248FFF775
:10066000A8FF08BD000801400014014000BFFEE7DC
:10067000704710B54FF4A06000F03CF810BD0000CA
:1006800070B5002100230F22C4780CB3164C2468E7
:1006900004F4E064C4F5E064210AC1F10403CA4033
:1006A000447804FA03F184781440214309010F4C83
:1006B0000678A155047804F01F050124AC400578A4
:1006C0006D114FF0E02606EB8505C5F8004109E005
:1006D000047804F01F050124AC40054D067876111E
:1006E00045F8264070BD00000CED00E000E400E09D
:1006F00080E100E002490143024A116070470000B6
:100700000000FA050CED00E010B504460BE00949C5
:10071000094800F0C0FC0748007800F087FD054854
:100720000078FFF729FE044800F0B1FC0028EED164
:1007300010BD00002C000020B000002010B50C48B7
:10074000046812E0207878B16068401E60606068DC
:1007500050B9E06818B9204600F0ECF901E0E06813
:1007600060600020A16888472469002CEAD110BD90
:100770004400002070B5054606480478002005496D
:10078000087003E0FFF7DAFF601EC4B2002CF9DC4A
:1007900070BD0000400000207047000029B1064AEB
:1007A00012690243044B1A6104E0034A126982434E
:1007B000014B1A61704700000010024029B1064A3F
:1007C00092690243044B9A6104E0034A92698243AE
:1007D000014B9A61704700000010024029B1064A9F
:1007E000D2680243044BDA6004E0034AD2688243D1
:1007F000014BDA60704700000010024030B5002164
:100800000022002400232D4D6D6805F00C0121B15C
:10081000042905D0082923D105E0294D056022E0EF
:10082000274D05601FE0254D6D6805F47012234DBE
:100830006D6805F48034022505EB92421CB9214D08
:10084000554305600BE01D4D6D6815F4003F03D066
:100850001C4D5543056002E0194D5543056002E00B
:10086000174D056000BF00BF144D6D6805F0F00125
:100870000909154D6B5C0568DD4045600F4D6D68DD
:1008800005F4E061090A104D6B5C4568DD40856048
:100890000A4D6D6805F46051C90A0B4D6B5C4568E3
:1008A000DD40C560054D6D6805F44041890B074D7D
:1008B0006B5CC568B5FBF3F5056130BD0010024007
:1008C00000127A0000093D007C0000208C0000200E
:1008D000704710B500F002F810BD00000CB5002004
:1008E000019000903248006840F480303049086040
:1008F00000BF2F48006800F4003000900198401CB1
:100900000190009818B90198B0F5A06FF1D128486E
:10091000006810F4003F02D00120009001E00020A8
:1009200000900098012842D12248006840F0100051
:10093000204908600846006820F003000860084667
:10094000006840F002000860194840681849486093
:100950000846406848600846406840F48060486047
:100960000846406820F47C1048600846406840F41F
:10097000E81048600846006840F08070086000BFDA
:100980000B48006810F0007FFAD00948406820F05A
:100990000300074948600846406840F0020048608C
:1009A00000BF0348406800F00C000828F9D10CBDD6
:1009B0000010024000200240042808D14FF0E0213E
:1009C000096941F004014FF0E022116107E04FF0A6
:1009D000E021096921F004014FF0E0221161704724
:1009E00010B5012002490870FFF7B8FC10BD0000E7
:1009F0000000002030B51A4800686422B0FBF2F114
:100A0000B1F1807F01D301201DE021F07F40401E25
:100A10004FF0E022506150170F22002807DA130729
:100A20001D0E104B00F00F04241F1D5503E013078B
:100A30001C0E0D4B1C5400BF00204FF0E0229061B3
:100A400007201061002008B100BFFEE74FF0E02052
:100A5000006940F001004FF0E021086130BD000066
:100A60000800002018ED00E000E400E010B5134895
:100A7000006840F0010011490860084640681049CC
:100A800008400E494860084600680E4908400B4976
:100A900008600846006820F4802008600846406826
:100AA00020F4FE0048604FF41F008860FFF711FF3C
:100AB0004FF000600449086010BD000000100240C3
:100AC0000000FFF8FFFFF6FE08ED00E0014601F12F
:100AD00009000A22B0FBF2F0704770B504460D46DB
:100AE00016462846FFF7F2FFE060324629462046C8
:100AF00000F002F870BD000070B504460D461646C1
:100B0000204600F017F82846FFF7E0FF074909786C
:100B100008446060A66001202070206920B9044864
:100B2000006820610248046070BD000040000020A1
:100B300044000020002101707047000008B500202B
:100B4000009040F225510E4800F07CF8B8B10C48F6
:100B500000F034F90B4908700B4800F098FA0A4984
:100B6000B1F90E10884203D16946074800F093FAA4
:100B70000449054800F0C0FA0448FFF721FC08BD0D
:100B8000003801402D000020B00000201C00002093
:100B900021B1828942F40052828104E082894DF6BB
:100BA000FF731A408281704710B504462048844282
:100BB00009D101218803FFF711FE00214FF4804085
:100BC000FFF70CFE32E01B48844209D101214804A2
:100BD000FFF7E4FD00214FF40030FFF7DFFD25E0D3
:100BE0001548844209D101218804FFF7D7FD00216F
:100BF0004FF48020FFF7D2FD18E01048844209D15D
:100C00000121C804FFF7CAFD00214FF40020FFF7BF
:100C1000C5FD0BE00A48844208D101210805FFF711
:100C2000BDFD00214FF48010FFF7B8FD10BD00009E
:100C3000003801400044004000480040004C0040A3
:100C40000050004070B5024600240023002500201B
:100C5000A1F510666A3E00D100BFC1F3421501F054
:100C60001F03012606FA03F3012D02D196893340B2
:100C700006E0022D02D1168A334001E0968A334005
:100C80000C12012606FA04F41688344013B10CB194
:100C9000012000E0002070BDF0B5034600240026CE
:100CA00000250020A1F510676A3F00D100BF18465B
:100CB000C1F3421401F01F06012707FA06F5012CC3
:100CC00001D10C3004E0022C01D1103000E01430CE
:100CD0001AB107682F43076002E00768AF43076057
:100CE000F0BD00002DE9F04786B005460E46002411
:100CF000A24600BFA1460027B08900B100BF2F4621
:100D00002C8A4CF6FF700440F08804432C82AC8996
:100D10004EF6F3100440B0883189084371890843C6
:100D20000443AC81AC8A4FF6FF400440B0890443D1
:100D3000AC8201A8FFF762FD1F48874202D1DDF8AF
:100D400010A001E0DDF80CA0A88910F4004F08D035
:100D50000AEBCA0000EB0A1031684900B0FBF1F859
:100D600007E00AEBCA0000EB0A1031688900B0FB0B
:100D7000F1F86420B8FBF0F004012009642101FBC4
:100D80001089A88910F4004F08D0322000EBC90068
:100D9000B0FBF1F000F00700044308E0322000EB64
:100DA00009106421B0FBF1F000F00F0004432C8126
:100DB00006B0BDE8F0870000003801400146888891
:100DC000C0F30800704700BFFEE7014600BF704750
:100DD00010B5FFF723FCFFF7F1FB00F019F84FF413
:100DE000E13000F0C5F9FFF705FEFFF742FC00F027
:100DF00009F902A0FFF70EFA10BD0000626F6172E0
:100E00006420696E697469616C697A65200A000002
:100E100010B56FF00400FFF7CFFD0A4800680A49DB
:100E2000B0FBF1F0094908700846007800EB40017A
:100E3000C1EBC0104FF6FF7101EAC0000449088001
:100E400010BD00000800002000127A006A00002097
:100E50006C00002000BF054A128812F0400FFAD043
:100E6000C2B2024B1B1D1A807047000000380140BF
:100E700010B5044631480078012805D13048006893
:100E8000401C2F49086002E000202D4908602B48D3
:100E90000078022805D12B480068401C29490860C9
:100EA00002E00020274908602448007820B101288A
:100EB0000CD0022840D127E04FF400412248FFF730
:100EC0006FFB10B901201D49087035E04FF4004157
:100ED0001D48FFF765FB48B111201C4908701C48EC
:100EE000FFF766FA0020154908700CE01448006806
:100EF000C82808D38120154908701548FFF758FA0B
:100F000002200E49087017E04FF400410E48FFF729
:100F100047FB18B10020094908700CE00948006837
:100F20000A2808D3C120094908700948FFF740FA88
:100F300000200449086000BF00BF10BD5800002019
:100F40005C000020600000200008014068000020D4
:100F50004800002070B5044626463578112D04D08F
:100F6000812D06D0C12D0CD107E007A0FFF752F963
:100F700008E00AA0FFF74EF904E00DA0FFF74AF9D8
:100F800000E000BF00BF70BD6B6579312073686FF2
:100F90007274207072657373200D0A006B6579316D
:100FA000206C6F6E67207072657373200D0A0000ED
:100FB0006B657931206166746572206C6F6E672095
:100FC0007072657373200D0A0000000010B5044AAA
:100FD0000A210448FFF781FD03A0FFF71BF910BDAC
:100FE000710E000838010020736F667477617265B6
:100FF0002074696D6520696E697469616C697A65D0
:10100000200A0000002000BF04E00021064A11541D
:10101000411CC8B20428F8DB0021044A1170044ABC
:101020001170044A117070476400002059000020BC
:101030005A0000205B000020FFF7CAFEFFF7C6FF42
:1010400000F0E8F80DE0FFF7C3F90649086008462C
:10105000006830B10A46126890680A461268116842
:101060008847F0E70400002010B50446A3F5FE40D1
:10107000FF3801D1032010BDA1602273E3814FF03E
:10108000FF30208060800020A08000BFF3E7014691
:10109000888880B2704710B502460B4600219088C0
:1010A00008B9022010BDB2F90240B2F90E00401E8C
:1010B000844202DB4FF0FF3050805088401C00B269
:1010C00050809088401E00B29080002109E0B2F963
:1010D0000200147B00FB04109468205C5854481CE8
:1010E000C1B2107B8842F2DC908818B94FF0FF3013
:1010F000108050800020D5E730B502460B46002115
:10110000B2F90400B2F90E40A04201DB012030BD6B
:10111000B2F90040B2F90E00401E844202DB4FF0EB
:10112000FF3010801088401C00B210809088401C56
:1011300000B29080002109E0585CB2F90040157BB4
:1011400004FB051495682855481CC1B2107B8842E1
:10115000F2DC0020DBE7000000BF0449098811F041
:10116000400FFAD00149091D08807047003801403E
:1011700010B586B00446012144F20400FFF71EFBBF
:101180002248FFF711FD4FF40070ADF81400032062
:101190008DF8160018208DF8170005A91C48FFF7D8
:1011A0002DF94FF48060ADF8140004208DF817007D
:1011B00005A91748FFF722F925208DF80000012026
:1011C0008DF801008DF802008DF803006846FFF7E6
:1011D00057FA01940020ADF80800ADF80A00ADF808
:1011E0000C00ADF810000C20ADF80E0001A9074866
:1011F000FFF778FD012240F225510448FFF74CFD2E
:1012000001210248FFF7C4FC06B010BD00380140C0
:101210000008014010B56423012202490248FFF78B
:1012200023FF10BDC0000020B000002000B5024622
:101230001046FFF791FF00BD581200080000002083
:10124000900000006C010008E812000890000020E7
:1012500020070000880100080000000000000000D6
:1012600000A24A0400000000000000000102030484
:101270000607080909070008000000000000000038
:1012800000000000000000007507000800000000DA
:101290000000000000000000000000002401002009
:1012A000550F0008000000000000000000000000D2
:1012B000000000000000000000000000000000002E
:1012C000000000000000000000000000000000001E
:1012D00000000000000000000102030401020304FA
:0812E0000607080902040608D4
:0400000508000131BD
:00000001FF
