:020000040800F2
:10000000784C0020F106000865030008670300082B
:100010006B0300086F030008730300080000000072
:10002000000000000000000000000000CD010008FA
:100030007903000800000000110200086D15000897
:100040000B0700080B0700080B0700080B07000848
:100050000B0700080B0700080B0700080B07000838
:100060000B0700080B0700080B0700080B07000828
:100070000B0700080B0700080B0700080B07000818
:100080000B0700080B0700080B0700080B07000808
:100090000B0700080B0700080B0700080B070008F8
:1000A0000B0700080B0700080B0700080B070008E8
:1000B0000B0700080B0700080B0700080B070008D8
:1000C0000B0700080B0700080B0700080B070008C8
:1000D0000B070008670600080B0700080B0700085D
:1000E0000B0700080B0700080B0700080B070008A8
:1000F0000B0700080B0700080B0700080B07000898
:100100000B0700080B0700080B0700080B07000887
:100110000B0700080B0700080B0700080B07000877
:100120000B0700080B0700080B0700080B07000867
:1001300000F002F800F03AF80AA090E8000C8244BF
:100140008344AAF10107DA4501D100F02FF8AFF29C
:10015000090EBAE80F0013F0010F18BFFB1A43F0A5
:100160000103184780240000A0240000103A24BF97
:1001700078C878C1FAD8520724BF30C830C144BF0C
:1001800004680C607047000000230024002500264E
:10019000103A28BF78C1FBD8520728BF30C148BFEA
:1001A0000B6070471FB51FBD10B510BD02F0D8F928
:1001B0001146FFF7F7FF00F08BF802F009FA03B4DD
:1001C000FFF7F2FF03BC00F0F1F90000204B1968C3
:1001D0000868B0E8F00F80F30988BFF36F8F4FF025
:1001E000000080F311884EF00D0E704700000000F3
:1001F00006480068006880F3088862B661B6BFF3FD
:100200004F8FBFF36F8F00DF00BF00BF08ED00E02E
:10021000EFF30980BFF36F8F0D4B1A6820E9F00FE1
:10022000106008B54FF0BF0080F3118801F0FCFCAE
:100230004FF0000080F31188BDE808401968086895
:10024000B0E8F00F80F30988BFF36F8F704700BFED
:100250004C000020EFF311804FF0BF0181F31188B3
:10026000704780F311887047EFF3058070470000F6
:10027000002414E029A002F035F90CB9012000E0B7
:1002800000200446012803D100202A49086002E02A
:100290000120284908604FF0640001F019FCE9E7EB
:1002A000002414E024A002F01DF90CB9012000E0A4
:1002B00000200446012803D100202549086002E0FF
:1002C0000120234908604FF0640001F001FCE9E7D8
:1002D0001FB500F043F94FF4E13000F075F900204C
:1002E0000123CDE9003002900346802219A103903A
:1002F000AFF2530001F0BEF900200123CDE9003038
:1003000002900346802215A10390AFF29B0001F0FA
:10031000B1F901F0D9FD002004B010BD7461736B18
:1003200020312069732072756E6E696E67200D0A28
:1003300000000000A00121427461736B203220692B
:10034000732072756E6E696E67200D0A00000000E2
:10035000888122427461736B310000007461736B99
:1003600032000000704700BFFEE700BFFEE700BF9D
:10037000FEE700BFFEE77047704770477047000018
:100380000CB50020019000906B48006840F480306C
:100390006949086000BF6848006800F400300090B8
:1003A0000198401C0190009818B90198B0F5A06F11
:1003B000F1D16148006810F4003F02D001200090A4
:1003C00001E0002000900098012842D15B480068BD
:1003D00040F01000594908600846006820F003000A
:1003E00008600846006840F0020008605248406813
:1003F000514948600846406848600846406840F4F3
:10040000806048600846406820F47C1048600846D8
:10041000406840F4E81048600846006840F080708A
:10042000086000BF4448006810F0007FFAD04248DE
:10043000406820F00300404948600846406840F0AA
:100440000200486000BF3C48406800F00C000828EB
:10045000F9D10CBD10B5FFF793FF10BD10B53648AC
:10046000006840F00100344908600846406834499B
:1004700008403149486008460068324908402E4922
:1004800008600846006820F480200860084640683C
:1004900020F4FE0048604FF41F008860FFF7DAFF89
:1004A0004FF000602849086010BD10B50021002001
:1004B0000022214B5B6803F00C0121B1042906D016
:1004C000082928D107E0214B214C236027E01F4B4E
:1004D0001F4C236023E0184B5B6803F47010164B2D
:1004E0005B6803F48032022303EB904022B9194B7E
:1004F0004343174C23600DE00F4B5B6813F4003F40
:1005000004D0144B4343124C236003E00F4B43438E
:100510000F4C236003E00D4B0D4C236000BF00BF68
:10052000054B5B68C3F303130B4CE15C084B1B6882
:10053000CB40074C236010BD001002400020024059
:100540000000FFF8FFFFF6FE08ED00E000127A0061
:100550000000002000093D000400002008B5012132
:10056000242000F0FBFB4FF48070ADF80000102059
:100570008DF8030003208DF802006946094800F059
:1005800037F94FF48071074800F0DDF90420ADF829
:1005900000006946044800F02BF90421024800F0ED
:1005A000D2F908BD0008014000140140014600BF17
:1005B000704700BF4A4A128812F0400FFAD0C2B208
:1005C000474B1B1D1A80704710B586B004460121A9
:1005D00044F2040000F0C2FB414800F027FC4FF455
:1005E0000070ADF8140003208DF8160018208DF867
:1005F000170005A93B4800F0FBF84FF48060ADF808
:10060000140004208DF8170005A9364800F0F0F812
:1006100025208DF8000003208DF801008DF80200E0
:1006200001208DF80300684600F009FE01940020C7
:10063000ADF80800ADF80A00ADF80C00ADF81000F8
:100640000C20ADF80E0001A9254800F032FC012273
:1006500040F22551224800F0C4FC0121204800F05E
:10066000B4FC06B010BD10B540F225511C4800F096
:100670009DFD10B31A4800F019FDC4B21A48008855
:1006800010F4004F2BD11848008810F4804F0CD084
:100690000A2C03D000201449088020E0124800886A
:1006A00040F400401049088019E00D2C06D10E4896
:1006B000008840F480400C49088010E00A48008817
:1006C000C0F30D0009490C5407480088401C064936
:1006D000088008460088C72801DD0020088010BD7A
:1006E0000038014000080140140000208400002070
:1006F0000948804709480047FEE7FEE7FEE7FEE7B6
:10070000FEE7FEE7FEE7FEE7FEE7FEE704480549F1
:10071000054A064B704700005D04000831010008DF
:1007200078460020784C0020784800207848002047
:1007300010B50446CA48844208D10121042000F0C3
:1007400027FB0021042000F023FB46E0C54884423B
:1007500008D10121082000F01BFB0021082000F037
:1007600017FB3AE0C048844208D10121102000F074
:100770000FFB0021102000F00BFB2EE0BB48844251
:1007800008D10121202000F003FB0021202000F0EF
:10079000FFFA22E0B648844208D10121402000F04F
:1007A000F7FA0021402000F0F3FA16E0B148844245
:1007B00008D10121802000F0EBFA0021802000F018
:1007C000E7FA0AE0AC48844207D10121801500F025
:1007D000DFFA0021A01500F0DBFA10BD10B50121F1
:1007E000084600F0D5FA0021012000F0D1FA10BD32
:1007F0002DE9F041024600250026002000230024B8
:10080000002791F803C00CF00F0591F803C01CF00D
:10081000100F03D091F802C04CEA050591F800C012
:10082000BCF1000F31D0146800202BE04FF0010C18
:100830000CFA00F3B1F800C00CEA03069E4220D186
:1008400083004FF00F0C0CFA03F7BC4305FA03FCCE
:100850004CEA040491F803C0BCF1280F06D14FF014
:10086000010C0CFA00FCC2F814C00AE091F803C0B5
:10087000BCF1480F05D14FF0010C0CFA00FCC2F896
:1008800010C0401C0828D1D31460B1F800C0BCF1DE
:10089000FF0F34DD546800202EE000F1080C4FF00B
:1008A000010808FA0CF3B1F800C00CEA03069E42F6
:1008B00021D183004FF00F0C0CFA03F7BC4305FA6B
:1008C00003FC4CEA040491F803C0BCF1280F05D1E5
:1008D00000F1080C08FA0CF8C2F8148091F803C073
:1008E000BCF1480F07D100F1080C4FF0010808FADD
:1008F0000CF8C2F81080401C0828CED35460BDE824
:10090000F0814FF6FF710180022181700421C170D6
:1009100070470246002093680B4201D0012000E09E
:10092000002070470146886880B270470246002068
:10093000D3680B4201D0012000E00020704701463F
:10094000C86880B2704701617047416170470AB161
:10095000016100E041617047C16070474FF480322F
:100960000A438261816182618269826970470246BD
:100970000020424B18684FF68073184040EA02107E
:1009800008433E4B186070473D49C8617047F0B559
:100990000A46002300240021002500F00046B6F19D
:1009A000004F02D1354EF16901E0344E7168C0F359
:1009B000034583B200F44016B6F5401F08D121F07C
:1009C00070612E4E766826F070662C4F7E6012E0C5
:1009D00000F48016B6F5801F06D1032606FA05F44A
:1009E000A14341F0706106E0460D360103FA06F6B8
:1009F000B14341F0706122B1460D360103FA06F6AB
:100A0000314300F00046B6F1004F02D11B4EF161B8
:100A100001E01A4E7160F0BD30B500228B071C0F4B
:100A20000F2303FA04F2154B08338C1053F82430CB
:100A30009343124C08348D1044F8253023468C1013
:100A400053F824308C07240F00FA04F423430B4C92
:100A500008348D1044F8253030BD0A4908607047CD
:100A600000080140000C014000100140001401404A
:100A700000180140001C014000200140000001401E
:100A800000002042DC002042DD48006840F0010008
:100A9000DB49086008464068DA490840D8494860A0
:100AA00008460068D8490840D549086008460068EB
:100AB00020F4802008600846406820F4FE0048606A
:100AC0004FF41F0088607047CD49096821F48031D8
:100AD000CB4A11601146096821F480211160B0F5FC
:100AE000803F03D0B0F5802F0ED106E0C4490968DD
:100AF00041F48031C24A116007E0C149096841F4FC
:100B0000A021BF4A116000E000BF00BF704710B5D0
:100B100001460022002300204A11012A02D1B84CCC
:100B2000236806E0022A02D1B54C236A01E0B44CE6
:100B3000636A01F01F02012494401C4201D001208D
:100B400000E0002010BD38B50020009000240025F2
:100B500000BF3120FFF7DBFF05460098401C0090E6
:100B60000098B0F5A06F01D0002DF2D03120FFF732
:100B7000CEFF08B1012400E00024204638BD014624
:100B800000209F4A106820F0F80040EAC100106081
:100B900070479E490860704702460020984B58688D
:100BA00020F47C1042EA01031843954B58607047CB
:100BB00096490866704701460020914A506820F027
:100BC00003000843506070478D48406800F00C00F7
:100BD0007047014600208A4A506820F0F000084320
:100BE0005060704701460020854A506820F4E0605C
:100BF00008435060704701460020814A506820F445
:100C0000605040EAC1005060704729B17C4A527A76
:100C100002437B4B5A7204E0794A527A8243784B02
:100C20005A7270477A490860704701460020744A3A
:100C3000506820F440400843506070470021754AD6
:100C400011706F4A82F82010012802D0042808D1C0
:100C500003E001216F4A117004E005216D4A117013
:100C600000E000BF00BF70476B49086070476449EF
:100C7000096A0143624A1162704767494439086052
:100C8000704730B500210022002400235C4D6D68C0
:100C900005F00C0121B1042905D0082923D105E074
:100CA0005E4D056022E05D4D05601FE0544D6D68AE
:100CB00005F47012524D6D6805F48034022505EB81
:100CC00092421CB9564D554305600BE04C4D6D6882
:100CD00015F4003F03D0524D5543056002E04F4DDF
:100CE0005543056002E04D4D056000BF00BF444D17
:100CF0006D6805F0F00109094A4D6B5C0568DD403F
:100D000045603F4D6D6805F4E061090A454D6B5C37
:100D10004568DD4085603A4D6D6805F46051C90A4B
:100D2000404D6B5C4568DD40C560354D6D6805F430
:100D30004041890B3C4D6B5CC568B5FBF3F5056123
:100D400030BD29B12E4A526902432D4B5A6104E04D
:100D50002B4A526982432A4B5A61704729B1284A6B
:100D600092690243264B9A6104E0254A92698243C4
:100D7000234B9A61704729B1214AD2690243204B23
:100D8000DA6104E01E4AD26982431D4BDA61704782
:100D900029B11B4AD2680243194BDA6004E0184AB1
:100DA000D2688243164BDA60704729B1144A12693F
:100DB0000243134B1A6104E0114A12698243104B3B
:100DC0001A61704714494039086070470F49C86478
:100DD00070470B49C87170470948406A40F08070FD
:100DE00007494862704701460020054A92680A4256
:100DF00001D0012000E0002070470149887270474F
:100E0000001002400000FFF8FFFFF6FE0000424223
:100E1000D8004242201002408004424200127A0070
:100E200000093D001C0000202C00002010B50446E5
:100E3000FB48844209D101218803FFF7A9FF002163
:100E40004FF48040FFF7A4FF32E0F648844209D116
:100E500001214804FFF7A9FF00214FF40030FFF7FC
:100E6000A4FF25E0F048844209D101218804FFF75E
:100E70009CFF00214FF48020FFF797FF18E0EB481C
:100E8000844209D10121C804FFF78FFF00214FF4EC
:100E90000020FFF78AFF0BE0E548844208D10121DA
:100EA0000805FFF782FF00214FF48010FFF77DFF58
:100EB00010BD2DE9F04786B005460E460024A24637
:100EC00000BFA1460027B08900B100BF2F462C8A81
:100ED0004CF6FF700440F08804432C82AC894EF637
:100EE000F3100440B08831890843718908430443F2
:100EF000AC81AC8A4FF6FF400440B0890443AC8219
:100F000001A8FFF7BEFEC648874202D1DDF810A057
:100F100001E0DDF80CA0A88910F4004F08D00AEB1E
:100F2000CA0000EB0A1031684900B0FBF1F807E095
:100F30000AEBCA0000EB0A1031688900B0FBF1F837
:100F40006420B8FBF0F004012009642101FB108942
:100F5000A88910F4004F08D0322000EBC900B0FB84
:100F6000F1F000F00700044308E0322000EB091024
:100F70006421B0FBF1F000F00F0004432C8106B0B7
:100F8000BDE8F0874FF41651016000218180C180D7
:100F900001810C21418100218181704710B50246F9
:100FA0000020108A4FF2FF0318400B884C8823431F
:100FB0008C882343CC8823431843108210BD002122
:100FC000018041808180C180704721B1828942F4D3
:100FD0000052828104E082894DF6FF731A408281BB
:100FE0007047F0B503460024002600250020A1F537
:100FF00010676A3F00D100BF1846C1F3421401F0E8
:101000001F06012707FA06F5012C01D10C3004E078
:10101000022C01D1103000E014301AB107682F43C0
:10102000076002E00768AF430760F0BD1AB1838A2A
:101030000B43838202E0838A8B4383827047028A58
:101040004FF6F0731A400282028A0A430282704706
:1010500082894FF2FF731A40828182890A4382811A
:10106000704721B1828942F00202828104E08289C4
:101070004FF6FD731A4082817047028A4FF6DF7384
:101080001A400282028A0A430282704721B1028A10
:1010900042F48042028204E0028A4BF6FF731A4057
:1010A00002827047C1F30802828070470146888837
:1010B000C0F308007047818941F0010181817047C8
:1010C000028BD2B20283028B42EA01220283704772
:1010D000028B02F47F420283028B0A430283704731
:1010E00021B1828A42F02002828204E0828A4FF695
:1010F000DF731A408282704721B1828A42F0100267
:10110000828204E0828A4FF6EF731A40828270472F
:1011100021B1828A42F00802828204E0828A4FF67C
:10112000F7731A408282704721B1828942F40042EB
:10113000828103E08289C2F30E028281704721B16D
:10114000828A42F40062828204E0828A4FF2FF7354
:101150001A4082827047828A4FF6FB731A4082825D
:10116000828A0A438282704721B1828A42F0020257
:10117000828204E0828A4FF6FD731A4082827047B1
:1011800002460020B1F5007F00D100BF13880B425A
:1011900001D0012000E00020704701F40072B2F598
:1011A000007F00D100BFCA430280704770B502467D
:1011B0000024002300250020A1F510666A3E00D11E
:1011C00000BFC1F3421501F01F03012606FA03F325
:1011D000012D02D19689334006E0022D02D1168AF4
:1011E000334001E0968A33400C12012606FA04F4DB
:1011F0001688344013B10CB1012000E0002070BD0E
:1012000010B500220023A1F510646A3C00D100BF94
:101210000A1201249440A3B2DC43048010BD0000F4
:10122000003801400044004000480040004C0040AD
:101230000050004031490143314A1160704770B598
:10124000002100230F22C4780CB32D4C246804F431
:10125000E064C4F5E064210AC1F10403CA404478A3
:1012600004FA03F18478144021430901254C0678DF
:10127000A155047804F01F050124AC4005786D11D8
:101280004FF0E02606EB8505C5F8004109E004783B
:1012900004F01F050124AC401B4D0678761145F87B
:1012A000264070BD194A0A400243154B1B1F1A60A5
:1012B000704739B1124A121D12680243104B1B1DB0
:1012C0001A6006E00E4A121D126882430C4B1B1D69
:1012D0001A607047042808D14FF0E021096941F0F5
:1012E00004014FF0E022116107E04FF0E0210969AD
:1012F00021F004014FF0E022116170470000FA056F
:101300000CED00E000E400E080E100E080FFFF1F62
:10131000434A22F00700434A10600022414B5A60C2
:1013200044F2F832404B5A6000221A60014644F2FF
:10133000F8324A601A460A6070472DE9F0410446C7
:101340004FF0000800F07FFB3848006820B9FFF735
:10135000DFFF01203549086044B1083414F0070F5D
:1013600004D004F00700C0F108000444002C32D07F
:1013700044F2F83084422ED22A4F3846056801E004
:101380002F462D686868A04202D228680028F7D14D
:10139000254885421FD0386800F108082868386061
:1013A0006868001B102810D92E196868001B70602F
:1013B0006C6071681B4800E00068026852688A42ED
:1013C000FAD302683260066000BF1949686809688C
:1013D000081A1749086000F091FA4046BDE8F0810C
:1013E00070B506463546B6B1083D2C4600F02BFBDD
:1013F00061680C4800E00068026852688A42FAD3CB
:101400000268226004600A49606809680844084963
:10141000086000F073FA70BD0548006870477047B7
:10142000540100203800002040000020340000203B
:101430003000002000F1080141604FF0FF31816071
:1014400000F10801C16001610021016070470021C5
:101450000161704742684A6093688B609368596085
:101460009160086103685B1C0360704710B5024619
:101470000B685C1C01D1106907E002F1080000E074
:101480004068446824689C42FAD944684C604C68BF
:10149000A160886041600A611468641C146010BD1A
:1014A00001460A69D1E901309860D1E90103586029
:1014B0005068884201D18868506000200861106837
:1014C000401E106010687047FEF7C4FE00BFFEE7C4
:1014D000001F4FF080730360001F0160001F2B4B43
:1014E0000360143802602038704729484FF0E0212B
:1014F000486107200861704710B52648006840F42D
:101500007F00244908600846006840F07F4008607A
:10151000FFF7EBFF002020490860FEF769FE00207E
:1015200010BD70474FF080501A491C390860BFF356
:101530004F8FBFF36F8F704710B5FEF78BFE1648C5
:101540000068401C14490860BFF34F8FBFF36F8FD2
:1015500010BD10B510480068401E0F4908600846CD
:10156000006810B90020FEF77CFE10BD10B5FEF734
:1015700071FE00F04AF920B14FF0805005491C3946
:1015800008600020FEF76DFE10BD0000C9140008C1
:101590007FFC0A0020ED00E04800002010B5002488
:1015A00007E004EB8401F74A02EB8100FFF742FFFA
:1015B000641C052CF5D3F448FFF73CFFF348FFF714
:1015C00039FFF348FFF736FFF248FFF733FFF248E1
:1015D000FFF730FFEC48F1490860EC48F04908603B
:1015E00010BD2DE9F04704460F4616469946DDF832
:1015F0002080002507E0795D04F134004155785DD5
:1016000000B902E06D1C102DF5D300BF002143206E
:101610000155052E00D30426E662201DFFF717FFB3
:1016200004F11800FFF713FF2461C6F10500A06163
:1016300064620020606484F84800BDE8F0872DE90A
:10164000F04106460F461FB9B000FFF776FE00E0F6
:101650003846054655B14C20FFF76FFE04460CB1E5
:10166000256304E02846FFF7BBFE00E00024204687
:10167000BDE8F0812DE9FF4F81B0804615469946BF
:10168000DDE90E7A28461099FFF7D9FF0446002CB1
:101690004FD0681E216B01EB800B2BF0070B0095E0
:1016A0003A462046119B0299FFF79BFF4A46414666
:1016B0005846FFF70DFF2060BAF1000F01D0CAF8BD
:1016C0000040FFF739FFB7480068401CB549086083
:1016D000B548006840B9B44804600846006801286D
:1016E0000CD1FFF75BFF09E0B048006830B9AE48A5
:1016F0000068C06AB84201D8AB480460AC480068D2
:10170000401CAB49086094F82C1001208840A9497E
:1017100009680843A7490860E16A01EB8101994A19
:1017200002EB8100211DFFF795FE0126FFF711FF57
:1017300001E04FF0FF36012E09D19C48006830B11E
:1017400099480068C06AB84201D2FFF7EBFE304604
:1017500005B0BDE8F08F91490968096809B9012110
:1017600000E0002121B14FF0FF31934A116006E003
:101770008A490968C968C8688F4A4168116070471A
:1017800070B50546FFF7D8FE15B98748006800E038
:1017900028460446201DFFF783FE78B9E06A00EB77
:1017A0008000784951F8200040B994F82C100120AD
:1017B00088408049096881437E480160A06A18B169
:1017C00004F11800FFF76CFE211D7248FFF742FE7E
:1017D0007A480068401C7949086075480068401CD8
:1017E00073490860FFF7B5FE7048006860B16E4845
:1017F0000068844202D1FFF795FE05E0FFF79CFEEA
:10180000FFF7A9FFFFF7A5FE70BD2DE9F041002706
:101810006B480068002865D16A480068401C694927
:101820000860084606688EB95C48D0F800805C48BD
:1018300000685A4908605A48C0F800806248006849
:10184000401C61490860FFF786FF00BF5A480068E6
:1018500086423BD300BF51480068006808B90120A8
:1018600000E0002020B14FF0FF30534908602CE029
:101870004A480068C068C4686568AE4202D24E48F3
:10188000056022E0201DFFF70BFEA06A18B104F1ED
:101890001800FFF705FE94F82C10012088404549F8
:1018A0000968084343490860E16A01EB8101354A50
:1018B00002EB8100211DFFF7CDFD3B49E06A09687D
:1018C000C96A8842C7D30127C5E700BF3648006808
:1018D000C06A00EB80002B4951F82000012806D98E
:1018E000012704E039480068401C3849086038483E
:1018F000006800B101273846BDE8F08170B50025C9
:10190000FFF71AFE2E480068401E2D490860084661
:101910000068002874D123480068002870D024E0B3
:101920001B48C068C46804F11800FFF7B9FD201D0A
:10193000FFF7B6FD94F82C10012088401D49096876
:1019400008431C490860E16A01EB81010D4A02EB82
:101950008100211DFFF77EFD1349E06A0968C96A0D
:10196000884202D301201A4908600948006808B972
:10197000012000E000200028D2D01448006800B107
:1019800033E036E04C450020B0450020C44500203F
:10199000D8450020EC450020004600207C000020B7
:1019A00080000020540000204C0000206000002037
:1019B000700000205C000020740000205000002017
:1019C00078000020580000206C00002064000020F7
:1019D00068000020FFF719FF10B10120FE490860E0
:1019E000FE480068401EFD490860FC480068002869
:1019F000F0D1F9480068012802D10125FFF792FDD6
:101A0000FFF7A7FD284670BD10B50446F4480068EE
:101A10004460F4480068844207D2F1480168091D17
:101A2000F1480068FFF722FD0CE0ED480168091D50
:101A3000EE480068FFF71AFDED480068844201D2C5
:101A4000EB48046010BDEB480068401CE9490860A1
:101A500070472DE9F047044688464FF00009FFF72C
:101A6000F2FFE0480768206800EB08052068B842EC
:101A700007D92068A8420BD9BD4209D94FF0010906
:101A800006E02068A84201D8BD4201D94FF0010903
:101A90002560B9F1000F13D0D1480068001DFFF791
:101AA000FFFC50B9CE48006890F82C100120884007
:101AB000D14909688143D04801602846FFF7A4FF57
:101AC000FFF71CFF06460EB9FFF72CFDBDE8F087B7
:101AD00070B504460026DCB1FFF7B5FFC1480068C9
:101AE0000519BF480068001DFFF7DAFC50B9BC4873
:101AF000006890F82C1001208840BF490968814394
:101B0000BD4801602846FFF77FFFFFF7F7FE064656
:101B10000EB9FFF707FD70BD70B50446FFF70CFD69
:101B200014B9AF48006800E020460646F56AFFF7A2
:101B300010FD284670BD2DE9F0410446FEF78AFBF2
:101B4000064614B9A648006800E020460746FD6A2C
:101B50003046FEF786FB2846BDE8F0812DE9F047C8
:101B600080460D464FF00009052D00D30425FFF7F0
:101B7000E3FCB8F1000F02D19948006800E040464C
:101B80000446E66AAE424BD0B5420BD99448006891
:101B900084420DD092480068C06AA84208D84FF02D
:101BA000010905E08E480068844201D14FF0010927
:101BB000E76AE562A06910F0004F02D1C5F10500A7
:101BC000A06107EB87018D4A02EB810160698842C1
:101BD00001D1012000E00020E0B1201DFFF760FCF2
:101BE00030B90120B84084490968814382480160C6
:101BF00094F82C10012088407F49096808437E49E9
:101C00000860E16A01EB81017C4A02EB8100211D41
:101C1000FFF720FCB9F1010F01D1FFF783FC00BFF2
:101C2000FFF797FCBDE8F0877248006818B1012003
:101C3000694908601DE00020674908606E48006837
:101C4000B0FA80F0C0F11F0101EB81026B4B03EB96
:101C5000820042685268426000F108024368934281
:101C600002D14268526842604268D2685C4B1A6096
:101C700000BF704770B50546FFF75EFC15B95848C0
:101C8000006800E028460446201DFFF709FC78B9EB
:101C9000E06A00EB8000594951F8200040B994F8FF
:101CA0002C10012088405449096881435248016042
:101CB000A06A18B104F11800FFF7F2FB211D50488B
:101CC000FFF7C8FBFFF745FC45480068844212D186
:101CD0004C48006810B1FFF725FC15E04848006843
:101CE00049490968884203D100203D4908600BE05A
:101CF000FFF79AFF08E04348006828B1FFF71CFC93
:101D0000FFF729FDFFF725FC70BD10B50146002047
:101D10000A463B4C5369A34201D1012300E0002352
:101D200073B13A4C936AA34201D1012300E000232E
:101D300033B9936A0BB9012300E0002303B10120FA
:101D400010BD70B505462C464CB32548006884424A
:101D500025D0FFF7F1FB2046FFF7D7FF01281CD164
:101D6000201DFFF79DFB94F82C100120884022498C
:101D70000968084320490860E16A01EB81011F4AB4
:101D800002EB8100211DFFF765FB1549E06A096838
:101D9000C96A884201D3FFF7C5FBFFF7DAFB70BDC4
:101DA0002DE9F041054600262C46FEF753FA07467A
:101DB0002046FFF7AAFF012842D10E48006850B91B
:101DC0000749E06A0968C96A884200D30126201DD4
:101DD000FFF766FB1CE02EE0680000206400002096
:101DE0004C00002058000020800000207C000020D3
:101DF00074000020780000205C0000204C4500208A
:101E0000004600206000002054000020D84500203B
:101E100094F82C1001208840FE4909680843FD49C8
:101E20000860E16A01EB8101FB4A02EB8100211DA0
:101E3000FFF710FB04E004F11801F848FFF70AFB74
:101E40003846FEF70EFA3046BDE8F08110B504467C
:101E5000206BFFF7C5FA2046FFF7C2FA10BD70B538
:101E600023E0FFF7F0FDEE48006808B9012000E02C
:101E700000200546FFF742FDBDB9FFF75DFBE848CE
:101E8000C068C468201DFFF70BFBE6480068401ED1
:101E9000E4490860E4480068401EE3490860FFF731
:101EA00058FB2046FFF7D2FF00BFDF48006800283C
:101EB000D7D170BD00BFFFF7D2FFD7480068012817
:101EC000F9D9FFF72FFBF6E71FB50020009001902E
:101ED000029003468022D5A10390D648FFF7CAFBA3
:101EE0000446012C0CD1FEF7B5F9A01ED2490860BA
:101EF0000120D24908600020D1490860FFF7FCFAB0
:101F00001FBD10B5FEF7A6F90020CC490860FFF709
:101F100008FB10BDCA49086870470021C84A10680C
:101F20007047C0480068704770B506460C46C54803
:101F3000016818313046FFF799FAC2480068001D61
:101F4000FFF7AEFA50B9BF48006890F82C10012096
:101F50008840B04909688143AE480160601C06D1E1
:101F6000B8480168091DB848FFF774FA05E0B4489D
:101F7000006805192846FFF747FD70BD2DE9F041BF
:101F800007460D46144645F00040AE490968886191
:101F9000AC48016818313846FFF75CFAA948006878
:101FA000001DFFF77DFA50B9A648006890F82C1084
:101FB0000120884097490968814396480160601C68
:101FC00006D1A0480168091D9F48FFF743FA05E0C4
:101FD0009B48006806193046FFF716FDBDE8F08102
:101FE00070B50646F068C46804F11800FFF758FAA7
:101FF00096480068A8B9201DFFF752FA94F82C10F3
:102000000120884083490968084382490860E16AE1
:1020100001EB8101804A02EB8100211DFFF71AFAD2
:1020200004E004F118017D48FFF714FA8549E06ADD
:102030000968C96A884204D90125012084490860D9
:1020400000E00025284670BD2DE9F04105460F4609
:1020500047F000402860EC682846FFF721FA201D71
:10206000FFF71EFA94F82C1001208840694909688E
:10207000084368490860E16A01EB8101664A02EBA6
:102080008100211DFFF7E6F96E49E06A0968C96A17
:10209000884204D9012601206D49086000E000262D
:1020A0003046BDE8F0816B49096801606449096800
:1020B0004160704770B504460D46FFF73DFA604831
:1020C00002682868401C01D1002619E06149206897
:1020D0000968884204D06068904201D801260FE068
:1020E0006068101A2968884209D228686168511A04
:1020F000401A28602046FFF7D6FF002600E00126A0
:10210000FFF727FA304670BD01205149086070473B
:102110004C49096888694B490968C96AC1F10501D8
:10212000484A1268916170472DE9F04106460C4615
:10213000FFF702FA43480068406C38BB0120414970
:10214000096881F848000CB33E480068001DFFF79D
:10215000A7F950B93B48006890F82C10012088403E
:102160002C49096881432B480160601C06D1354821
:102170000168091D3448FFF76DF905E03048006833
:1021800007193846FFF740FCFFF7CCF9FFF7E1F9F4
:10219000FFF7D2F92B480068456C65B126B10020E5
:1021A00028490968486406E02649096801F14400A5
:1021B000496C491E016000202249096881F84800E5
:1021C000FFF7C7F92846BDE8F0812DE9F04707463B
:1021D000884615461C46FFF7AFF91A48006890F884
:1021E0004800022854D01749096801F14400496C9D
:1021F000B943016001201349096881F8480044B1DE
:1022000010480068001DFFF74BF928BB0D48006817
:1022100023E03DE05C0000204C450020D845002034
:10222000EC450020540000205000002049444C455B
:1022300000000000B51E00087400002060000020AF
:10224000580000204C0000200046002078000020AC
:10225000680000206C00002008E090F82C1001209D
:10226000884098490968814396480160601C06D1FE
:1022700095480168091D9548FFF7ECF806E0944879
:10228000006800EB04094846FFF7BEFBFFF74AF978
:10229000FFF75FF9FFF750F91DB18B480068406CFC
:1022A00028608948006890F84800012801D100267C
:1022B00008E08549096801F14400496C21EA0801F8
:1022C0000160012600208049096881F84800FFF775
:1022D00040F93046BDE8F0872DE9F04781460D46CC
:1022E00016461F464FF0010A4C46FFF725F90FB17D
:1022F000606C386094F84880022084F84800052E0D
:1023000017D2DFE806F01503070B0D00606C2843B9
:1023100060640EE0606C401C60640AE0656408E084
:10232000B8F1020F01D0656401E04FF0000A00E04F
:1023300000BF00BFB8F1010F1CD1201DFFF7B0F89E
:1023400094F82C10012088405E49096808435D49D3
:102350000860E16A01EB81015E4A02EB8100211D08
:10236000FFF778F85849E06A0968C96A884201D9D4
:10237000FFF7D8F8FFF7EDF85046BDE8F0872DE9F4
:10238000F84F81460D4616461F46DDF828A04FF04F
:10239000010B4C46FDF75EFF00900FB1606C38609A
:1023A00094F84880022084F84800052E17D2DFE810
:1023B00006F01503070B0D00606C284360640EE007
:1023C000606C401C60640AE0656408E0B8F1020FCC
:1023D00001D0656401E04FF0000B00E000BF00BFDA
:1023E000B8F1010F29D13C480068A8B9201DFFF7BA
:1023F00057F894F82C1001208840324909680843A6
:1024000030490860E16A01EB8101324A02EB810048
:10241000211DFFF71FF804E004F118012F48FFF712
:1024200019F82949E06A0968C96A884205D9BAF1E8
:10243000000F02D00120CAF800000098FDF711FF3C
:102440005846BDE8F88F2DE9F04105460E462C466A
:10245000FDF700FF804694F84870022084F8480099
:10246000606C401C6064012F26D11B480068A8B92D
:10247000201DFFF715F894F82C1001208840114911
:10248000096808430F490860E16A01EB8101114ABC
:1024900002EB8100211DFEF7DDFF04E004F11801CD
:1024A0000E48FEF7D7FF0849E06A0968C96A884202
:1024B00002D90EB1012030604046FDF7D2FEBDE8E2
:1024C000F08100005C0000204C000020004600204D
:1024D000580000204C45002078000020D8450020FE
:1024E000704700000FB4044910B503AA029800F029
:1024F00009F810BC5DF814FB180000207047704705
:1025000070477047074B70B50D467B4400F011F8DB
:102510000446284600F020F810B14FF0FF3070BD9F
:10252000204670BDA5E0FFFF01694A1C02610878E2
:10253000704700B58FB0CDE9013100210591054903
:102540007944CDE903101146684600F02EF80FB02B
:1025500000BD0000E5FFFFFF007B00F0800070473A
:10256000754600F03BF8AE4605006946534620F03C
:102570000700854618B020B5FEF7C8F8BDE8204032
:102580004FF000064FF000074FF000084FF0000B2F
:1025900021F00701AC46ACE8C009ACE8C009ACE8E2
:1025A000C009ACE8C0098D4670472DE9F0410646E8
:1025B0000024D6E90170F568804602E04146B8473C
:1025C000641C3046A8470028F8D12046BDE8F081B9
:1025D0000446AFF300802046FDF7F1FD0048704748
:1025E000144600200426000800000020840000009B
:1025F0006C0100088826000884000020F44B0000CD
:102600008801000800A24A04000000000000000049
:102610000102030406070809000000000000000092
:102620000000000001020304010203040607080978
:1026300002040608F843000000000000000000004B
:10264000000000000000000000000000AAAAAAAAE2
:10265000000000000000000000000000000000007A
:10266000000000000000000000000000000000006A
:10267000000000000000000000000000000000005A
:08268000000000000000000052
:0400000508000131BD
:00000001FF
