:020000040800F2
:1000000070070020CD01000889050008CF04000812
:100010008505000811030008E30B0008000000003C
:100020000000000000000000000000005907000868
:100030001503000800000000210600084108000820
:10004000E7010008E7010008E7010008E7010008F0
:10005000E7010008E7010008E7010008E7010008E0
:10006000E7010008E7010008E7010008E7010008D0
:10007000E7010008E7010008E7010008E7010008C0
:10008000E7010008E7010008E7010008E7010008B0
:10009000E7010008E7010008E7010008E7010008A0
:1000A000E7010008E7010008E7010008E701000890
:1000B000E7010008E7010008E7010008E701000880
:1000C000E7010008E7010008E7010008E701000870
:1000D000E701000825090008E7010008E70100081A
:1000E000E7010008E7010008E7010008E701000850
:1000F000E7010008E7010008E7010008E701000840
:10010000E7010008E7010008E7010008E70100082F
:10011000E7010008E7010008E7010008E70100081F
:10012000E7010008E7010008E7010008E70100080F
:1001300000F002F800F03AF80AA090E8000C8244BF
:100140008344AAF10107DA4501D100F02FF8AFF29C
:10015000090EBAE80F0013F0010F18BFFB1A43F0A5
:1001600001031847800D0000A00D0000103A24BFC5
:1001700078C878C1FAD8520724BF30C830C144BF0C
:1001800004680C607047000000230024002500264E
:10019000103A28BF78C1FBD8520728BF30C148BFEA
:1001A0000B6070471FB51FBD10B510BD00F06EF895
:1001B0001146FFF7F7FF00F0E9FD00F09FF803B4E8
:1001C000FFF7F2FF03BC00F00EFD00000948804776
:1001D00009480047FEE7FEE7FEE7FEE7FEE7FEE729
:1001E000FEE7FEE7FEE7FEE704480549054A064B41
:1001F00070470000C50800083101000870010020A8
:10020000700700207003002070030020704700007A
:100210000FB4044910B503AA029800F009F810BC05
:100220005DF814FB2C000020704770477047704742
:10023000074B70B50D467B4400F011F80446284684
:1002400000F020F810B14FF0FF3070BD204670BDB7
:10025000B309000001694A1C02610878704700B5C3
:100260008FB0CDE901310021059105497944CDE9EF
:1002700003101146684600F02EF80FB000BD0000D4
:10028000E5FFFFFF007B00F080007047754600F03F
:100290003BF8AE4605006946534620F00700854608
:1002A00018B020B5FFF7A0FFBDE820404FF00006D2
:1002B0004FF000074FF000084FF0000B21F007014E
:1002C000AC46ACE8C009ACE8C009ACE8C009ACE891
:1002D000C0098D4670472DE9F04106460024D6E955
:1002E0000170F568804602E04146B847641C30461C
:1002F000A8470028F8D12046BDE8F0810446AFF3B6
:1003000000802046FFF75BFF004870470C0100208B
:1003100000BFFEE770472DE9F041024600250026A8
:10032000002000230024002791F803C00CF00F05E3
:1003300091F803C01CF0100F03D091F802C04CEAF2
:10034000050591F800C0BCF1000F31D01468002001
:100350002BE04FF0010C0CFA00F3B1F800C00CEAEE
:1003600003069E4220D183004FF00F0C0CFA03F7D6
:10037000BC4305FA03FC4CEA040491F803C0BCF149
:10038000280F06D14FF0010C0CFA00FCC2F814C083
:100390000AE091F803C0BCF1480F05D14FF0010C01
:1003A0000CFA00FCC2F810C0401C0828D1D314601D
:1003B000B1F800C0BCF1FF0F34DD546800202EE01E
:1003C00000F1080C4FF0010808FA0CF3B1F800C076
:1003D0000CEA03069E4221D183004FF00F0C0CFA69
:1003E00003F7BC4305FA03FC4CEA040491F803C08C
:1003F000BCF1280F05D100F1080C08FA0CF8C2F87E
:10040000148091F803C0BCF1480F07D100F1080C2B
:100410004FF0010808FA0CF8C2F81080401C0828B8
:10042000CED35460BDE8F081F0B50A460023002425
:100430000021002500F00046B6F1004F02D11D4E0C
:10044000F16901E01B4E7168C0F3034583B200F40B
:100450004016B6F5401F08D121F07061154E766840
:1004600026F07066134F7E6012E000F48016B6F539
:10047000801F06D1032606FA05F4A14341F07061FE
:1004800006E0460D360103FA06F6B14341F070610D
:1004900022B1460D360103FA06F6314300F000465C
:1004A000B6F1004F02D1034EF16101E0014E7160DF
:1004B000F0BD0000000001400246002093680B429E
:1004C00001D0012000E0002070470161704700BFAB
:1004D000FEE7000008B50121142000F0B3F8012167
:1004E0001148FFF7A1FF4FF40040ADF8000048208D
:1004F0008DF8030069460D48FFF70DFF2020ADF889
:10050000000048208DF8030069460948FFF703FF03
:100510000120ADF8000028208DF80300694603484B
:10052000FFF7F9FE08BD000000023000000801409E
:100530000010014008B50121242000F083F84FF499
:100540008070ADF8000010208DF8030003208DF8B6
:10055000020069460948FFF7DEFE4FF48071074844
:10056000FFF7B3FF0420ADF8000069460448FFF729
:10057000D2FE04210248FFF7A8FF08BD0008014091
:100580000014014000BFFEE7704710B54FF4A060B3
:1005900000F03CF810BD000070B5002100230F22D0
:1005A000C4780CB3164C246804F4E064C4F5E06429
:1005B000210AC1F10403CA40447804FA03F18478A3
:1005C0001440214309010F4C0678A155047804F02A
:1005D0001F050124AC4005786D114FF0E02606EBB5
:1005E0008505C5F8004109E0047804F01F050124E1
:1005F000AC40054D0678761145F8264070BD0000E8
:100600000CED00E000E400E080E100E0024901437D
:10061000024A1160704700000000FA050CED00E08E
:100620007047000029B1064A12690243044B1A615F
:1006300004E0034A12698243014B1A6170470000CB
:100640000010024029B1064A92690243044B9A61A4
:1006500004E0034A92698243014B9A6170470000AB
:100660000010024029B1064AD2680243044BDA6006
:1006700004E0034AD2688243014BDA60704700000D
:100680000010024030B500210022002400232D4D2F
:100690006D6805F00C0121B1042905D0082923D18A
:1006A00005E0294D056022E0274D05601FE0254D3E
:1006B0006D6805F47012234D6D6805F480340225D1
:1006C00005EB92421CB9214D554305600BE01D4DD1
:1006D0006D6815F4003F03D01C4D5543056002E0E2
:1006E000194D5543056002E0174D056000BF00BF7E
:1006F000144D6D6805F0F0010909154D6B5C056836
:10070000DD4045600F4D6D6805F4E061090A104D4C
:100710006B5C4568DD4085600A4D6D6805F460518D
:10072000C90A0B4D6B5C4568DD40C560054D6D68C1
:1007300005F44041890B074D6B5CC568B5FBF3F5CB
:10074000056130BD0010024000127A0000093D0032
:100750003000002040000020704710B500F002F883
:1007600010BD00000CB500200190009032480068D8
:1007700040F480303049086000BF2F48006800F422
:10078000003000900198401C0190009818B9019821
:10079000B0F5A06FF1D12848006810F4003F02D0F6
:1007A0000120009001E0002000900098012842D133
:1007B0002248006840F010002049086008460068A0
:1007C00020F0030008600846006840F0020008605E
:1007D000194840681849486008464068486008461B
:1007E000406840F4806048600846406820F47C100F
:1007F00048600846406840F4E810486008460068D1
:1008000040F08070086000BF0B48006810F0007F67
:10081000FAD00948406820F00300074948600846BC
:10082000406840F00200486000BF0348406800F0A4
:100830000C000828F9D10CBD001002400020024035
:1008400001200149087070470000002030B51A48A7
:1008500000686422B0FBF2F1B1F1807F01D3012086
:100860001DE021F07F40401E4FF0E0225061501704
:100870000F22002807DA13071D0E104B00F00F049B
:10088000241F1D5503E013071C0E0D4B1C5400BF05
:1008900000204FF0E022906107201061002008B195
:1008A00000BFFEE74FF0E020006940F001004FF08C
:1008B000E021086130BD00000400002018ED00E0D8
:1008C00000E400E010B51348006840F00100114951
:1008D000086008464068104908400E4948600846CC
:1008E00000680E4908400B4908600846006820F47B
:1008F000802008600846406820F4FE0048604FF4FD
:100900001F008860FFF729FF4FF00060044908606E
:1009100010BD0000001002400000FFF8FFFFF6FECF
:1009200008ED00E010B540F225511D4800F098F8A0
:1009300010B31B4800F050F9C4B21A48008810F4F4
:10094000004F2BD11748008810F4804F0CD00A2C90
:1009500003D000201349088020E01248008840F4AA
:1009600000401049088019E00D2C06D10D48008880
:1009700040F480400B49088010E00A480088C0F32A
:100980000D0009490C5407480088401C054908809F
:1009900008460088C72801DD0020088010BD00003F
:1009A00000380140280000204400002021B1828945
:1009B00042F40052828104E082894DF6FF731A40AE
:1009C0008281704710B504462048844209D1012134
:1009D0008803FFF747FE00214FF48040FFF742FEF7
:1009E00032E01B48844209D101214804FFF71AFE76
:1009F00000214FF40030FFF715FE25E01548844232
:100A000009D101218804FFF70DFE00214FF4802059
:100A1000FFF708FE18E01048844209D10121C804FC
:100A2000FFF700FE00214FF40020FFF7FBFD0BE075
:100A30000A48844208D101210805FFF7F3FD00218F
:100A40004FF48010FFF7EEFD10BD000000380140AC
:100A50000044004000480040004C0040005000406E
:100A600070B502460024002300250020A1F5106681
:100A70006A3E00D100BFC1F3421501F01F030126F9
:100A800006FA03F3012D02D19689334006E0022DC8
:100A900002D1168A334001E0968A33400C120126B7
:100AA00006FA04F41688344013B10CB1012000E0BA
:100AB000002070BDF0B5034600240026002500206C
:100AC000A1F510676A3F00D100BF1846C1F3421478
:100AD00001F01F06012707FA06F5012C01D10C30A1
:100AE00004E0022C01D1103000E014301AB1076884
:100AF0002F43076002E00768AF430760F0BD0000C6
:100B00002DE9F04786B005460E460024A24600BFF8
:100B1000A1460027B08900B100BF2F462C8A4CF6B1
:100B2000FF700440F08804432C82AC894EF6F31029
:100B30000440B08831890843718908430443AC817B
:100B4000AC8A4FF6FF400440B0890443AC8201A850
:100B5000FFF798FD1F48874202D1DDF810A001E0A1
:100B6000DDF80CA0A88910F4004F08D00AEBCA00E9
:100B700000EB0A1031684900B0FBF1F807E00AEB1E
:100B8000CA0000EB0A1031688900B0FBF1F864205C
:100B9000B8FBF0F004012009642101FB1089A88949
:100BA00010F4004F08D0322000EBC900B0FBF1F088
:100BB00000F00700044308E0322000EB0910642134
:100BC000B0FBF1F000F00F0004432C8106B0BDE84B
:100BD000F08700000038014001468888C0F3080013
:100BE000704700BFFEE7014600BF704700BF054ADF
:100BF000128812F0400FFAD0C2B2024B1B1D1A80AD
:100C0000704700000038014010B52C4800780128DA
:100C100005D12B480068401C2949086002E00020EB
:100C20002749086025480078022805D12548006832
:100C3000401C2449086002E00020224908601F4847
:100C4000007820B101280BD0022834D11FE02021E8
:100C50001D48FFF731FC10B90120184908702AE03F
:100C600020211948FFF728FC30B1112000F02EF8A0
:100C700000201249087009E011480068C82805D30F
:100C8000812000F023F802200C49087013E0202195
:100C90000D48FFF711FC18B100200849087009E061
:100CA00008480068192805D3C12000F00FF800207B
:100CB0000449086000BF00BF10BD000018000020FC
:100CC0001C00002020000020001001400D49097880
:100CD000042900DB704772B60A490978491C094AA1
:100CE00011700949094A1278885408490978491C41
:100CF000C9B2064A1170042901D10021117062B6EF
:100D000000BFE7E71B00002024000020190000209E
:100D1000002000BF04E00021064A1154411CC8B263
:100D20000428F8DB0021044A1170044A1170044AB7
:100D30001170704724000020190000201A000020C4
:100D40001B00002000210E48007808B900207047E1
:100D500072B60B480078401E094A107009480A4ACA
:100D60001278815C08480078401CC0B2064A1070B6
:100D7000042801D10020107062B60846E7E70000A1
:100D80001B000020240000201A0000200024FFF790
:100D9000D1FBFFF79FFBFFF759FD4FF4165000F012
:100DA0004DF8FFF7F2FB62B6FFF7B2FF1FE0104805
:100DB000007820B100200E490870FFF725FFFFF7EB
:100DC000C1FF04469CB1112C04D0812C06D0C12C4B
:100DD0000CD107E007A0FFF71BFA07E00BA0FFF715
:100DE00017FA03E00FA0FFF713FA00BF00BFDEE71A
:100DF0000000002073686F7274206B657920707238
:100E00006573736564200D0A000000006C6F6E67E7
:100E10002066697273742070726573736564200D47
:100E20000A0000006C6F6E67206166746572207046
:100E3000726573736564200D0A00000010B586B0FA
:100E40000446012144F20400FFF7FCFB2348FFF7AE
:100E5000B9FD4FF40070ADF8140003208DF81600B2
:100E600018208DF8170005A91D48FFF754FA4FF414
:100E70008060ADF8140004208DF8170005A918480B
:100E8000FFF749FA25208DF8000003208DF80100B6
:100E90008DF8020001208DF803006846FFF77CFB07
:100EA00001940020ADF80800ADF80A00ADF80C0080
:100EB000ADF810000C20ADF80E0001A90748FFF7AF
:100EC0001FFE012240F225510448FFF7F3FD0121E6
:100ED0000248FFF76BFD06B010BD0000003801406E
:100EE00000080140040F000800000020440000003A
:100EF0006C010008480F0008440000202C07000087
:100F0000880100080000000000A24A040000000060
:100F100000000000010203040607080900000000A9
:100F200000000000000000000000000000000000C1
:100F3000000000000000000001020304010203049D
:080F4000060708090204060877
:0400000508000131BD
:00000001FF
