:020000040800F2
:10000000B0060020D5010008550600089B05000831
:1000100051060008DD0300086F0E00080000000014
:10002000000000000000000000000000250800089B
:10003000E103000800000000ED0600083509000893
:10004000EF010008EF010008EF010008EF010008D0
:10005000EF010008EF010008EF010008EF010008C0
:10006000EF010008EF010008EF010008EF010008B0
:10007000EF010008EF010008EF010008EF010008A0
:10008000EF010008EF010008EF010008EF01000890
:10009000EF010008EF010008EF010008EF01000880
:1000A000EF010008EF010008EF010008EF01000870
:1000B000EF010008EF010008EF010008EF01000860
:1000C000EF010008EF010008EF010008EF01000850
:1000D000EF010008190A0008EF010008EF0100080D
:1000E000EF010008EF010008EF010008EF01000830
:1000F000EF010008EF010008EF010008EF01000820
:10010000EF010008EF010008EF010008EF0100080F
:10011000EF010008EF010008EF010008EF010008FF
:10012000EF010008EF010008EF010008EF010008EF
:1001300000F002F800F03FF80AA090E8000C8244BA
:100140008344AAF10107DA4501D100F034F8AFF297
:10015000090EBAE80F0013F0010F18BFFB1A43F0A5
:10016000010318477810000098100000103A24BFCF
:1001700078C878C1FAD8520724BF30C830C144BF0C
:1001800004680C607047000000230024002500264E
:10019000103A28BF78C1FBD8520728BF30C148BFEA
:1001A0000B607047632900F0AE80002070471FB5D8
:1001B0001FBD10B510BD00F0E1F81146FFF7F7FFC5
:1001C00000F032FF00F0FFF803B4FFF7F2FF03BCCA
:1001D00000F04FFE0948804709480047FEE7FEE768
:1001E000FEE7FEE7FEE7FEE7FEE7FEE7FEE7FEE7E7
:1001F00004480549054A064B70470000B909000844
:1002000031010008B0000020B0060020B00200203C
:10021000B0020020704700000FB4044910B503AAD3
:10022000029800F07DF810BC5DF814FB340000204B
:100230002DE9F0410E460446002020622046E16888
:10024000884730B3252805D0D4E901219047206A9A
:10025000401CF2E7E168204600278847050018D0D7
:10026000A5F14100192802D820354FF40067324625
:10027000294620462760FFF795FF40B1012804D0AA
:10028000F61D26F007060836D8E7361DD6E72846BD
:10029000DAE7206ABDE8F08170B50C460546012A10
:1002A00005D02878800600D5EA69002302E0012302
:1002B00005E05B1C934202D2E05C0028F9D1A869FA
:1002C000E618C01AA861286A184428622846AFF3C5
:1002D000008004E0D5E9012114F8010B9047B442F5
:1002E000F8D32846AFF3008070BD70477047704761
:1002F000704710B5436913B1AFF3008001E0FFF719
:10030000CBFF012010BD127800F124010A700022F9
:100310004A700122EDE711684FF0FF32E9E7000073
:10032000074B70B50D467B4400F011F80446284693
:1003300000F020F810B14FF0FF3070BD204670BDC6
:10034000930B000001694A1C02610878704700B5F0
:100350008FB0CDE901310021059105497944CDE9FE
:10036000031011466846FFF763FF0FB000BD0000A1
:10037000E5FFFFFF007B00F080007047754600F04E
:1003800029F8AE4605006946534620F00700854629
:1003900018B020B5FFF72CFFBDE820404FF0000655
:1003A0004FF000074FF000084FF0000B21F007015D
:1003B000AC46ACE8C009ACE8C009ACE8C009ACE8A0
:1003C000C0098D4670470446AFF300802046FFF712
:1003D000FBFE0000004870474C00002000BFFEE715
:1003E00070472DE9F0410246002500260020002339
:1003F0000024002791F803C00CF00F0591F803C00A
:100400001CF0100F03D091F802C04CEA050591F8DA
:1004100000C0BCF1000F31D0146800202BE04FF079
:10042000010C0CFA00F3B1F800C00CEA03069E427E
:1004300020D183004FF00F0C0CFA03F7BC4305FAF0
:1004400003FC4CEA040491F803C0BCF1280F06D168
:100450004FF0010C0CFA00FCC2F814C00AE091F84D
:1004600003C0BCF1480F05D14FF0010C0CFA00FCA1
:10047000C2F810C0401C0828D1D31460B1F800C0E5
:10048000BCF1FF0F34DD546800202EE000F1080CB1
:100490004FF0010808FA0CF3B1F800C00CEA0306AB
:1004A0009E4221D183004FF00F0C0CFA03F7BC439E
:1004B00005FA03FC4CEA040491F803C0BCF1280FD0
:1004C00005D100F1080C08FA0CF8C2F8148091F874
:1004D00003C0BCF1480F07D100F1080C4FF0010830
:1004E00008FA0CF8C2F81080401C0828CED35460DB
:1004F000BDE8F081F0B50A46002300240021002564
:1005000000F00046B6F1004F02D11D4EF16901E046
:100510001B4E7168C0F3034583B200F44016B6F574
:10052000401F08D121F07061154E766826F0706684
:10053000134F7E6012E000F48016B6F5801F06D1DE
:10054000032606FA05F4A14341F0706106E0460D6A
:10055000360103FA06F6B14341F0706122B1460D4F
:10056000360103FA06F6314300F00046B6F1004FBB
:1005700002D1034EF16101E0014E7160F0BD000057
:10058000000001400246002093680B4201D0012088
:1005900000E0002070470161704700BFFEE70000E7
:1005A00008B50121142000F0B3F801211148FFF72C
:1005B000A1FF4FF40040ADF8000048208DF8030083
:1005C00069460D48FFF70DFF2020ADF800004820D8
:1005D0008DF8030069460948FFF703FF0120ADF8D5
:1005E000000028208DF8030069460348FFF7F9FE54
:1005F00008BD00000002300000080140001001406A
:1006000008B50121242000F083F84FF48070ADF884
:10061000000010208DF8030003208DF802006946C9
:100620000948FFF7DEFE4FF480710748FFF7B3FF7C
:100630000420ADF8000069460448FFF7D2FE04210B
:100640000248FFF7A8FF08BD000801400014014060
:1006500000BFFEE7704710B54FF4A06000F03CF813
:1006600010BD000070B5002100230F22C4780CB328
:10067000164C246804F4E064C4F5E064210AC1F176
:100680000403CA40447804FA03F1847814402143F7
:1006900009010F4C0678A155047804F01F050124C8
:1006A000AC4005786D114FF0E02606EB8505C5F8E6
:1006B000004109E0047804F01F050124AC40054D19
:1006C0000678761145F8264070BD00000CED00E07C
:1006D00000E400E080E100E002490143024A1160C9
:1006E000704700000000FA050CED00E070470000C4
:1006F00029B1064A12690243044B1A6104E0034A15
:1007000012698243014B1A617047000000100240D9
:1007100029B1064A92690243044B9A6104E0034AF4
:1007200092698243014B9A617047000000100240B9
:1007300029B1064AD2680243044BDA6004E0034A56
:10074000D2688243014BDA6070470000001002401B
:1007500030B500210022002400232D4D6D6805F0E6
:100760000C0121B1042905D0082923D105E0294D28
:10077000056022E0274D05601FE0254D6D6805F4FA
:100780007012234D6D6805F48034022505EB92420A
:100790001CB9214D554305600BE01D4D6D6815F4E6
:1007A000003F03D01C4D5543056002E0194D5543F1
:1007B000056002E0174D056000BF00BF144D6D6875
:1007C00005F0F0010909154D6B5C0568DD404560D9
:1007D0000F4D6D6805F4E061090A104D6B5C4568CA
:1007E000DD4085600A4D6D6805F46051C90A0B4D06
:1007F0006B5C4568DD40C560054D6D6805F44041A2
:10080000890B074D6B5CC568B5FBF3F5056130BD21
:100810000010024000127A0000093D00380000205C
:1008200048000020704710B500F002F810BD00002D
:100830000CB50020019000903248006840F48030F0
:100840003049086000BF2F48006800F40030009075
:100850000198401C0190009818B90198B0F5A06F5C
:10086000F1D12848006810F4003F02D00120009028
:1008700001E0002000900098012842D12248006841
:1008800040F01000204908600846006820F003008E
:1008900008600846006840F0020008601948406897
:1008A000184948600846406848600846406840F477
:1008B000806048600846406820F47C104860084624
:1008C000406840F4E81048600846006840F08070D6
:1008D000086000BF0B48006810F0007FFAD009489C
:1008E000406820F00300074948600846406840F02F
:1008F0000200486000BF0348406800F00C00082870
:10090000F9D10CBD0010024000200240042808D19B
:100910004FF0E021096941F004014FF0E02211613C
:1009200007E04FF0E021096921F004014FF0E022D7
:1009300011617047012001490870704700000020D4
:1009400030B51A4800686422B0FBF2F1B1F1807F43
:1009500001D301201DE021F07F40401E4FF0E02236
:10096000506150170F22002807DA13071D0E104B95
:1009700000F00F04241F1D5503E013071C0E0D4B40
:100980001C5400BF00204FF0E0229061072010614E
:10099000002008B100BFFEE74FF0E020006940F002
:1009A00001004FF0E021086130BD0000040000208C
:1009B00018ED00E000E400E010B51348006840F0D6
:1009C00001001149086008464068104908400E4976
:1009D0004860084600680E4908400B490860084610
:1009E000006820F4802008600846406820F4FE007B
:1009F00048604FF41F008860FFF715FF4FF000605C
:100A00000449086010BD0000001002400000FFF81B
:100A1000FFFFF6FE08ED00E010B540F225517048EA
:100A200000F064F9002873D06D4800F01BFAC4B2DE
:100A300021466CA0FFF7F0FB6B48007820B101283D
:100A40000CD0022820D113E0722C03D1012066497A
:100A5000087002E000206449087015E0652C03D19D
:100A600002206149087002E000205F4908700BE035
:100A7000642C05D100205C4908705C49086002E0E4
:100A800000205949087000BF00BF59480078052868
:100A900038D2DFE800F0030D17212B00672C03D1BB
:100AA00001205349087002E000205149087029E0F4
:100AB000722C03D102204E49087002E000204C49FC
:100AC00008701FE0652C03D103204949087002E03B
:100AD00000204749087015E0652C03D104204449E3
:100AE000087002E00020424908700BE06E2C05D12E
:100AF00000203F4908703F49086002E000203C495F
:100B0000087000BF00BF3C48007805283ED200E0D6
:100B100065E0DFE800F0030D17212B00622C03D104
:100B200001203549087002E00020334908702DE0AB
:100B30006C2C03D102203049087002E000202E49BD
:100B4000087023E0612C03D103202B49087002E0D8
:100B500000202949087019E0632C03D1042026499C
:100B6000087002E00020244908700FE06B2C09D1C6
:100B700000202149087001201E4908601F49C1F862
:100B8000A00102E000201C49087000BF00BF1C4803
:100B9000007810B1012821D109E0232C03D10120D4
:100BA0001749087002E000201549087016E0154842
:100BB0000078401C134908700846007809280CDBAF
:100BC000002008700E4908702A2C03D10EA0FFF7F0
:100BD00023FB02E013A0FFF71FFB00BF00BF10BD07
:100BE00000380140256300002E000020A0012142B2
:100BF0002F00002088812242300000200000214286
:100C000031000020320000200D0A20726563656902
:100C100076656420636F72726563742044617465E5
:100C2000200D0A000D0A204572726F722044617413
:100C300065200D0A0000000021B1828942F40052B3
:100C4000828104E082894DF6FF731A4082817047E9
:100C500010B504462048844209D101218803FFF7DA
:100C600067FD00214FF48040FFF762FD32E01B4832
:100C7000844209D101214804FFF73AFD00214FF4D5
:100C80000030FFF735FD25E01548844209D10121E8
:100C90008804FFF72DFD00214FF48020FFF728FD89
:100CA00018E01048844209D10121C804FFF720FD53
:100CB00000214FF40020FFF71BFD0BE00A4884429F
:100CC00008D101210805FFF713FD00214FF4801022
:100CD000FFF70EFD10BD0000003801400044004049
:100CE00000480040004C00400050004070B50246F3
:100CF0000024002300250020A1F510666A3E00D1E3
:100D000000BFC1F3421501F01F03012606FA03F3E9
:100D1000012D02D19689334006E0022D02D1168AB8
:100D2000334001E0968A33400C12012606FA04F49F
:100D30001688344013B10CB1012000E0002070BDD2
:100D4000F0B503460024002600250020A1F5106719
:100D50006A3F00D100BF1846C1F3421401F01F06DC
:100D6000012707FA06F5012C01D10C3004E0022C12
:100D700001D1103000E014301AB107682F4307602A
:100D800002E00768AF430760F0BD00002DE9F047BF
:100D900086B005460E460024A24600BFA1460027A5
:100DA000B08900B100BF2F462C8A4CF6FF7004407A
:100DB000F08804432C82AC894EF6F3100440B088CE
:100DC00031890843718908430443AC81AC8A4FF6EA
:100DD000FF400440B0890443AC8201A8FFF7B8FC8F
:100DE0001F48874202D1DDF810A001E0DDF80CA019
:100DF000A88910F4004F08D00AEBCA0000EB0A10D3
:100E000031684900B0FBF1F807E00AEBCA0000EBDB
:100E10000A1031688900B0FBF1F86420B8FBF0F0EB
:100E200004012009642101FB1089A88910F4004FF6
:100E300008D0322000EBC900B0FBF1F000F0070051
:100E4000044308E0322000EB09106421B0FBF1F00C
:100E500000F00F0004432C8106B0BDE8F0870000CD
:100E60000038014001468888C0F30800704700BF81
:100E7000FEE7014600BF704710B56FF00400FFF7B2
:100E800045FD0A4800680A49B0FBF1F009490870BD
:100E90000846007800EB4001C1EBC0104FF6FF712F
:100EA00001EAC0000449088010BD000004000020D1
:100EB00000127A00280000202A00002000BF054A06
:100EC000128812F0400FFAD0C2B2024B1B1D1A80DA
:100ED000704700000038014010B52C480078012808
:100EE00005D12B480068401C2949086002E0002019
:100EF0002749086025480078022805D12548006860
:100F0000401C2449086002E00020224908601F4874
:100F1000007820B101280BD0022834D11FE0202115
:100F20001D48FFF72FFB10B90120184908702AE06F
:100F300020211948FFF726FB30B1112000F02EF8D0
:100F400000201249087009E011480068C82805D33C
:100F5000812000F023F802200C49087013E02021C2
:100F60000D48FFF70FFB18B100200849087009E091
:100F7000084800680A2805D3C12000F00FF80020B7
:100F80000449086000BF00BF10BD00001800002029
:100F90001C00002020000020001001400D490978AD
:100FA000042900DB704772B60A490978491C094ACE
:100FB00011700949094A1278885408490978491C6E
:100FC000C9B2064A1170042901D10021117062B61C
:100FD00000BFE7E71B0000202400002019000020CC
:100FE00000210E48007808B90020704772B60B48FF
:100FF0000078401E094A107009480A4A1278815C3C
:1010000008480078401CC0B2064A1070042801D17C
:101010000020107062B60846E7E700001B000020C1
:10102000240000201A000020002600240025FFF7DD
:10103000E7FAFFF7B5FAFFF71FFF4FF4165000F07D
:101040007BF8FFF77DFCFFF706FB4AE025480078B8
:1010500020B1002023490870FFF73EFFFFF7C0FFD3
:101060000546002D3DD0112D04D0812D14D0C12D69
:1010700036D123E01CA0FFF7CFF80EB9012000E025
:1010800000200646012803D100201D49086002E027
:1010900001201B49086023E01AA0FFF7BDF80CB936
:1010A000012000E000200446012803D100201B4954
:1010B000086002E001201949086011E018A0FFF75C
:1010C000ABF80CB9012000E000200446012803D150
:1010D00000201249086002E001201049086000BFAA
:1010E00000BFB3E70000002073686F7274206B6567
:1010F000792070726573736564200D0A000000002A
:10110000A00121426C6F6E67206669727374207053
:10111000726573736564200D0A00000088812242A5
:101120006C6F6E6720616674657220707265737390
:101130006564200D0A00000010B586B00446012148
:1011400044F20400FFF7E4FA2248FFF781FD4FF470
:101150000070ADF8140003208DF8160018208DF8EB
:10116000170005A91C48FFF73CF94FF48060ADF863
:10117000140004208DF8170005A91748FFF731F96E
:1011800025208DF8000001208DF801008DF8020067
:101190008DF803006846FFF765FA01940020ADF86A
:1011A0000800ADF80A00ADF80C00ADF810000C20F6
:1011B000ADF80E0001A90748FFF7E8FD012240F253
:1011C00025510448FFF7BCFD01210248FFF734FD1B
:1011D00006B010BD0038014000080140FC110008B5
:1011E000000000204C0000006C01000848120008BC
:1011F0004C00002064060000880100080000000088
:1012000000A24A04000000000000000001020304E4
:1012100006070809000000000000000000000000B0
:1012200000000000000000000000000000000000BE
:10123000000000000000000001020304010203049A
:08124000060708090204060874
:0400000508000131BD
:00000001FF
