:020000040800F2
:10000000C8060020DD010008AD540008C70600083E
:10001000A9540008F9040008DF5D00080000000092
:100020000000000000000000000000009D560008D5
:10003000FD0400080000000045550008F501000817
:10004000F7010008F7010008F7010008F7010008B0
:10005000F7010008F7010008F7010008F7010008A0
:10006000F7010008F7010008F7010008F701000890
:10007000F7010008F7010008F7010008F701000880
:10008000F7010008F7010008F7010008F701000870
:10009000F7010008F7010008F7010008F701000860
:1000A000F7010008F7010008F7010008F701000850
:1000B000F70100080D580008F7010008F7010008D3
:1000C000F7010008F7010008F7010008F701000830
:1000D000F701000889590008F7010008F701000836
:1000E000F7010008F7010008F7010008F701000810
:1000F000F7010008F7010008F7010008F701000800
:10010000F7010008F7010008F7010008F7010008EF
:10011000F7010008F7010008F7010008F7010008DF
:10012000F7010008F7010008F7010008F7010008CF
:1001300000F002F800F042F80AA090E8000C8244B7
:100140008344AAF10107DA4501D100F037F8AFF294
:10015000090EBAE80F0013F0010F18BFFB1A43F0A5
:1001600001031847D8790000F8790000103A24BF3D
:1001700078C878C1FAD8520724BF30C830C144BF0C
:1001800004680C607047000000230024002500264E
:10019000103A28BF78C1FBD8520728BF30C148BFEA
:1001A0000B607047782900F0A580632900F03A8140
:1001B000002070471FB51FBD10B510BD00F06CF9D1
:1001C0001146FFF7F7FF05F0E1FF00F08AF903B4ED
:1001D000FFF7F2FF03BC05F004FE0000094880476A
:1001E00009480047FEE7FEE7FEE7FEE7FEE7FEE719
:1001F000FEE7FEE7FEE7FEE704480549054A064B31
:1002000070470000AD57000831010008C800002009
:10021000C8060020C8020020C80200207047000065
:100220000FB4044910B503AA029800F007F910BCF6
:100230005DF814FB3C0000202DE9F0410E46044619
:10024000002020622046E168884730B3252805D089
:10025000D4E901219047206A401CF2E7E16820467A
:1002600000278847050018D0A5F14100192802D8B9
:1002700020354FF400673246294620462760FFF7B5
:1002800091FF40B1012804D0F61D26F0070608367C
:10029000D8E7361DD6E72846DAE7206ABDE8F081C0
:1002A00070B50C460546012A05D02878800600D591
:1002B000EA69002302E0012305E05B1C934202D2BD
:1002C000E05C0028F9D1A869E618C01AA861286A7C
:1002D000184428622846AFF3008004E0D5E90121E4
:1002E00014F8010B9047B442F8D32846AFF30080CE
:1002F00070BD000070B504460D4621461068AFF38E
:1003000000802188090502D5104A7A4402E00F4A8C
:100310007A440E32002104F1240307E000F00F06B6
:100320004FEA1010965D5E5401F101010028F5D1ED
:1003300003462078000704D5702D02D009B1113290
:1003400002232046BDE8704000F006B806780000A1
:1003500070477047704770472DE9F0470D46994642
:100360009246044600F124080168880604D5E06935
:1003700021F01001216000E00120A84202DDA0EB85
:10038000050700E00027A16907EB050202EB090061
:10039000A1EB0000A0612078C00602D42046AFF394
:1003A0000080002608E0D4E901211AF806009047F1
:1003B000206A401C761C20624E45F4DB2078C00683
:1003C0000AD52046AFF3008006E0D4E901213020B1
:1003D0009047206A401C2062381EA7F10107F4DC18
:1003E00007E0D4E9012118F805009047206A401C75
:1003F0002062281EA5F10105F3DC2046AFF3008042
:100400002078000602D50220BDE8F0870120FBE736
:1004100010B5436913B1AFF3008001E0FFF740FF6F
:10042000012010BD127800F124010A7000224A70E8
:100430000122EDE711684FF0FF32E9E7074B70B595
:100440000D467B4400F011F80446284600F020F8E1
:1004500010B14FF0FF3070BD204670BDA75B0000AB
:1004600001694A1C02610878704700B58FB0CDE978
:1004700001310021059105497944CDE90310114668
:100480006846FFF7D9FE0FB000BD0000E5FFFFFF93
:10049000007B00F080007047754600F029F8AE46FA
:1004A00005006946534620F00700854618B020B580
:1004B000FFF7A2FEBDE820404FF000064FF0000716
:1004C0004FF000084FF0000B21F00701AC46ACE8FC
:1004D000C009ACE8C009ACE8C009ACE8C0098D4669
:1004E00070470446AFF300802046FFF770FE00001F
:1004F000004870476400002000BFFEE770472DE908
:10050000F041024600250026002000230024002799
:1005100091F803C00CF00F0591F803C01CF0100F08
:1005200003D091F802C04CEA050591F800C0BCF177
:10053000000F31D0146800202BE04FF0010C0CFAB2
:1005400000F3B1F800C00CEA03069E4220D18300FC
:100550004FF00F0C0CFA03F7BC4305FA03FC4CEA0E
:10056000040491F803C0BCF1280F06D14FF0010C30
:100570000CFA00FCC2F814C00AE091F803C0BCF108
:10058000480F05D14FF0010C0CFA00FCC2F810C066
:10059000401C0828D1D31460B1F800C0BCF1FF0F93
:1005A00034DD546800202EE000F1080C4FF0010803
:1005B00008FA0CF3B1F800C00CEA03069E4221D100
:1005C00083004FF00F0C0CFA03F7BC4305FA03FC51
:1005D0004CEA040491F803C0BCF1280F05D100F1E6
:1005E000080C08FA0CF8C2F8148091F803C0BCF1AA
:1005F000480F07D100F1080C4FF0010808FA0CF879
:10060000C2F81080401C0828CED35460BDE8F081A9
:10061000F0B50A46002300240021002500F0004622
:10062000B6F1004F02D11D4EF16901E01B4E716819
:10063000C0F3034583B200F44016B6F5401F08D15D
:1006400021F07061154E766826F07066134F7E605B
:1006500012E000F48016B6F5801F06D1032606FAD4
:1006600005F4A14341F0706106E0460D360103FA3E
:1006700006F6B14341F0706122B1460D360103FA2E
:1006800006F6314300F00046B6F1004F02D1034EAA
:10069000F16101E0014E7160F0BD00000000014019
:1006A0000146886880B270470246002093680B427A
:1006B00001D0012000E000207047416170470161D6
:1006C0007047C160704700BFFEE7000008B5012118
:1006D000142004F059FF01211148FFF799FF4FF44E
:1006E0000040ADF8000048208DF8030069460D4831
:1006F000FFF705FF2020ADF8000048208DF803002B
:1007000069460948FFF7FBFE0120ADF800002820EC
:100710008DF8030069460348FFF7F1FE08BD0000AD
:1007200000023000000801400010014070B504468E
:100730000026244805884088454322488088A0F543
:10074000D041043916D11F488079012812D10020E8
:100750001C4988712A2048812B2088810021084665
:1007600004F04AFB0120174988712B2048812A2078
:10077000888103E00021084604F03EFB04F03EFEC1
:1007800000261BE04FF480710F48FFF798FF4FF4ED
:1007900000710D48FFF791FF21460C48FFF791FFCC
:1007A00080210948FFF789FF80210748FFF787FF6D
:1007B0004FF400710448FFF782FF761CAE42E1D38C
:1007C00070BD00005400002000100140000C0140EA
:1007D00010B50446002C60D166498871F02008806D
:1007E0004FF4A070488008468088A0F51341413935
:1007F0000BD060488088A0F5D041043905D05D4811
:100800008088A0F5A64110391AD12C2059490881B9
:100810002A2048812B20888108468088A0F5D04175
:10082000043905D053488088A0F5A641103906D177
:100830004FF4A0704F4908804FF4F070488095E065
:100840004C488088A0F50941893907D122204949BF
:1008500008814E2048814F20888187E04548808864
:10086000A0F5AA41103910D14FF430504149088108
:100870004FF4285048814FF42C5088814FF4F07089
:1008800008804FF44870488070E022203949088180
:10089000202048812120888168E001203549887125
:1008A0004FF4A0700880F020488008468088A0F5AA
:1008B0001341413905D02F488088A0F5A641103951
:1008C00007D12C202B4908812A2048812B208881A0
:1008D00039E028488088A0F5D041043907D12C2080
:1008E000244908812B2048812A2088812BE0214837
:1008F0008088A0F50941893907D122201D49088146
:100900004F2048814E2088811DE01A488088A0F53C
:10091000AA41103910D14FF43050164908814FF4D4
:10092000285048814FF42C5088814FF4487008803B
:100930004FF4F070488006E022200E490881212003
:100940004881202088810B488088A0F5D041043957
:1009500005D008488088A0F5A641103906D14FF48B
:10096000F070044908804FF4A0704880002003F024
:100970004FFF10BD5400002070B504460D461646CA
:10098000ED488088A0F51341413905D0EA488088B8
:10099000A0F5A641103975D1E749488904F00CFD4E
:1009A0004FF48071E548FFF78AFE4FF40071E34889
:1009B000FFF783FE2112E248FFF783FE8021DF4824
:1009C000FFF77BFE8021DD48FFF779FE4FF40071D1
:1009D000DA48FFF774FE4FF48071D848FFF76FFED6
:1009E0004FF40071D548FFF768FEE1B2D448FFF735
:1009F00068FE8021D148FFF760FE8021CF48FFF7D5
:100A00005EFE4FF40071CD48FFF759FECA49888950
:100A100004F0D2FC4FF48071C848FFF750FE4FF449
:100A20000071C648FFF749FE2912C548FFF749FE85
:100A30008021C248FFF741FE8021C048FFF73FFEFA
:100A40004FF40071BD48FFF73AFE4FF48071BB4888
:100A5000FFF735FE4FF40071B848FFF72EFEE9B2FC
:100A6000B748FFF72EFE8021B448FFF726FE80210D
:100A7000B248FFF724FE4FF40071B048FFF71FFEA5
:100A800021E1FFE7AC488088A0F5AA4110397DD16B
:100A9000A949488904F090FC4FF48071A748FFF7FA
:100AA0000EFE4FF40071A548FFF707FE2112A4487F
:100AB000FFF707FE8021A148FFF7FFFD80219F4837
:100AC000FFF7FDFD4FF400719C48FFF7F8FD9A49D0
:100AD0004989491C88B204F06FFC4FF48071974833
:100AE000FFF7EDFD4FF400719448FFF7E6FDE1B22A
:100AF0009348FFF7E6FD80219048FFF7DEFD802157
:100B00008E48FFF7DCFD4FF400718C48FFF7D7FDEE
:100B10008949888904F050FC4FF480718748FFF7B9
:100B2000CEFD4FF400718548FFF7C7FD29128448B8
:100B3000FFF7C7FD80218148FFF7BFFD80217F4877
:100B4000FFF7BDFD4FF400717C48FFF7B8FD7A490F
:100B50008989491C88B204F02FFC4FF480717748D2
:100B6000FFF7ADFD4FF400717448FFF7A6FDE9B241
:100B70007348FFF7A6FD80217048FFF79EFD802196
:100B80006E48FFF79CFD4FF4007100E003E06B48F6
:100B9000FFF795FD97E068488088A0F5D0410439BB
:100BA0007ED165488079012804D163480088401EC1
:100BB000001B84B26049488904F0FEFB4FF4807149
:100BC0005E48FFF77CFD4FF400715C48FFF775FD50
:100BD00021125B48FFF775FD80215848FFF76DFD36
:100BE00080215648FFF76BFD4FF400715348FFF723
:100BF00066FD4FF480715148FFF761FD4FF40071BD
:100C00004E48FFF75AFDE1B24D48FFF75AFD8021EB
:100C10004A48FFF752FD80214848FFF750FD4FF446
:100C200000714648FFF74BFD4349888904F0C4FB37
:100C30004FF480714148FFF742FD4FF400713F4887
:100C4000FFF73BFD29123E48FFF73BFD80213B4863
:100C5000FFF733FD80213948FFF731FD4FF4007174
:100C60003648FFF72CFD4FF480713448FFF727FD1D
:100C70004FF400713148FFF720FDE9B23048FFF72B
:100C800020FD80212D48FFF718FD80212B48FFF71C
:100C900016FD4FF400712948FFF711FD13E0FFE73F
:100CA00025488079012804D123480088401E001B74
:100CB00084B221494889214604F0A8FB1E4988894D
:100CC000294604F0A3FB4FF480711C48FFF7F5FCA4
:100CD0004FF400711948FFF7F0FC174801891848D4
:100CE000FFF7EFFC80211548FFF7E7FC8021134850
:100CF000FFF7E5FC4FF400711048FFF7E0FC4FF4FC
:100D000080710E48FFF7DBFC4FF400710B48FFF7D2
:100D1000D4FC31460A48FFF7D4FC80210748FFF78E
:100D2000CCFC80210548FFF7CAFC4FF40071034852
:100D3000FFF7C5FC70BD000054000020001001400A
:100D4000000C014008B50121192004F01DFC01210F
:100D5000F848FFF75DFC4FF4F860ADF80000102094
:100D60008DF8030003208DF802006946F248FFF772
:100D7000C6FB4FF4F861F048FFF7A1FC4FF6FF7097
:100D8000ADF800006946ED48FFF7B9FB4FF6FF717B
:100D9000EA48FFF794FC322005F0DCF8012100203E
:100DA00004F034FB322005F0D5F8002003F028FDD4
:100DB000E349888008468088FF280ADB0846808847
:100DC000A0F57F41FF3904D0DD488088B0F5134F8E
:100DD0007ED1D32004F0F0FA03F0D0FC03F0CEFC77
:100DE00003F0CCFCD6498880084680884FF6FF7116
:100DF00001EA0020D249888003F0C0FCD0498988EC
:100E00000843CF49888008468088A0F513414139BE
:100E10006CD0BF2004F0D0FA03F0B0FC03F0AEFCBD
:100E200003F0ACFC03F0AAFCC54988800846808822
:100E30004FF6FF7101EA0020C149888003F09EFC53
:100E4000BF4989880843BE49888008468088A0F544
:100E5000D04104394AD0D42004F0AEFA03F08EFC1D
:100E600003F08CFC03F08AFCB54988800846808832
:100E70004FF6FF7101EA0020B149888003F07EFC43
:100E8000AF4989880843AE49888008468088A0F524
:100E9000A64110392AD04FF45A4004F08DFA03F0DD
:100EA0006DFC4FF45B4004F087FA03F067FCA44943
:100EB0008880084680884FF6FF7101EA0020A0492B
:100EC00088804FF45C4004F077FA03F057FC00E0B0
:100ED0000CE09B49898808439949888008468088A6
:100EE000B0F5004F02D145F21050888094488188B7
:100EF00094A0FFF795F992488088A0F513414139F5
:100F00007ED1CF2004F058FA002004F033FAC1203B
:100F100004F030FA302004F02DFAED2004F04CFA01
:100F2000642004F027FA032004F024FA122004F0CD
:100F300021FA812004F01EFAE82004F03DFA852011
:100F400004F018FA102004F015FA7A2004F012FACE
:100F5000CB2004F031FA392004F00CFA2C2004F0F4
:100F600009FA002004F006FA342004F003FA022003
:100F700004F000FAF72004F01FFA202004F0FAF938
:100F8000EA2004F019FA002004F0F4F9002004F03B
:100F9000F1F9C02004F010FA1B2004F0EBF9C12095
:100FA00004F00AFA012004F0E5F9C52004F004FA7F
:100FB000302004F0DFF9302004F0DCF9C72004F021
:100FC000FBF9B72004F0D6F9362004F0F5F94820F3
:100FD00004F0D0F93A2004F0EFF9552004F0CAF9F2
:100FE000B12004F0E9F9002004F0C4F91A2004F05B
:100FF000C1F9B62004F0E0F90A2004F0BBF900E0E2
:10100000A8E0A22004F0B6F9F22004F0D5F90020FF
:1010100004F0B0F9262004F0CFF9012004F0AAF979
:10102000E02004F0C9F90F2004F0A4F92A2004F00C
:10103000A1F9282004F09EF9082004F09BF90E2065
:1010400004F098F9082004F095F9542004F092F97E
:10105000A92004F08FF9432004F08CF90A2004F051
:1010600089F90F2004F086F9002004F083F90020AC
:1010700004F080F9002004F07DF9002004F07AF9F2
:10108000E12004F099F9002004F074F9152004F02F
:1010900071F9172004F06EF9072004F06BF91120A4
:1010A00004F068F9062004F065F92B2004F062F9D9
:1010B000562004F05FF93C2004F05CF9052004F0B0
:1010C00059F9102004F056F90F2004F053F93F208D
:1010D00004F050F93F2004F04DF90F2004F04AF9D4
:1010E0002B2004F069F9002004F044F9002004F0FA
:1010F00041F9012004F03EF93F2004F03BF92A2099
:1011000004F05AF9002004F035F9002004F032F917
:10111000002004F02FF9EF2004F02CF9112004F046
:101120004BF9782004F016FF292004F045F903F06C
:1011300009BB00000002300000100140000C01401B
:1011400054000020204C43442049443A25780D0A9D
:1011500000000000FE488088A0F5D04104397CD111
:10116000112004F029F9142004F0F4FED02004F03A
:1011700023F9072004F0FEF8422004F0FBF81D20BC
:1011800004F0F8F8D12004F017F9002004F0F2F888
:101190001A2004F0EFF8092004F0ECF8D22004F053
:1011A0000BF9012004F0E6F8222004F0E3F8C02057
:1011B00004F002F9102004F0DDF83B2004F0DAF826
:1011C000002004F0D7F8022004F0D4F8112004F035
:1011D000D1F8C52004F0F0F8032004F0CBF8C820C3
:1011E00004F0EAF8002004F0C5F8252004F0C2F865
:1011F000212004F0BFF8052004F0BCF8002004F022
:10120000B9F80A2004F0B6F8652004F0B3F82520F8
:1012100004F0B0F8772004F0ADF8502004F0AAF8FC
:101220000F2004F0A7F8002004F0A4F8F82004F040
:10123000C3F8012004F09EF8FE2004F0BDF8002061
:1012400004F098F8022004F095F8202004F0B4F897
:10125000362004F0B1F8082000E02CE004F08AF811
:101260003A2004F0A9F8552004F084F82B2004F06B
:10127000A3F8002004F07EF8002004F07BF80120A1
:1012800004F078F83F2004F075F82A2004F094F870
:10129000002004F06FF8002004F06CF8012004F046
:1012A00069F8DF2004F066F8782004F053FE292066
:1012B00004F082F83BE7A6488088A0F5A6411039E3
:1012C00040F07C87ED2004F077F8012004F052F81C
:1012D000FE2004F04FF8EE2004F06EF8DE2004F05B
:1012E00049F8212004F046F8F12004F065F80120C7
:1012F00004F040F8DF2004F05FF8102004F03AF822
:10130000C42004F059F88F2004F034F8C62004F00B
:1013100053F8002004F02EF8E22004F02BF8E2202D
:1013200004F028F8E22004F025F8BF2004F044F887
:10133000AA2004F01FF8B02004F03EF80D2004F0BD
:1013400019F8002004F016F80D2004F013F800201E
:1013500004F010F8112004F00DF8002004F00AF851
:10136000192004F007F8002004F004F8212004F00C
:1013700001F8002003F0FEFF2D2003F0FBFF00200A
:1013800003F0F8FF3D2003F0F5FF002003F0F2FF2B
:101390005D2003F0EFFF002003F0ECFF5D2003F081
:1013A000E9FF002003F0E6FFB12004F005F88020FB
:1013B00003F0E0FF002003F0DDFF8B2003F0DAFFF5
:1013C000002003F0D7FF962003F0D4FF002003F0A5
:1013D000D1FFB22003F0F0FF002003F0CBFF00208C
:1013E00003F0C8FF022003F0C5FF002003F0C2FF96
:1013F000032003F0BFFF002003F0BCFFB32003F085
:10140000DBFF002003F0B6FF002003F0B3FF002055
:1014100003F0B0FF002003F0ADFF002003F0AAFFAF
:10142000002003F0A7FF002003F0A4FF002003F03A
:10143000A1FF002003F09EFF002003F09BFF00208F
:1014400003F098FF002003F095FF002003F092FFC7
:10145000002003F08FFF002003F08CFF002003F03A
:1014600089FF002003F086FF002003F083FF0020A7
:1014700003F080FF002003F07DFF002003F07AFFDF
:10148000002003F077FF002003F074FF002003F03A
:1014900071FFB42003F090FF8B2003F06BFF00205E
:1014A00003F068FF962003F065FF002003F062FF61
:1014B000A12003F05FFF002003F05CFFB52003F0E4
:1014C0007BFF022003F056FF002003F053FF0320B0
:1014D00003F050FF002003F04DFF042003F04AFF0B
:1014E000002003F047FFB62003F066FF002003F062
:1014F00041FF002003F03EFFB72003F05DFF002016
:1015000003F038FF002003F035FF3F2003F032FFE7
:10151000002003F02FFF5E2003F02CFF002003F0DB
:1015200029FF642003F026FF002003F023FF8C2016
:1015300003F020FF002003F01DFFAC2003F01AFF92
:10154000002003F017FFDC2003F014FF002001E06F
:101550005400002003F00EFF702003F00BFF00206A
:1015600003F008FF902003F005FF002003F002FFC6
:10157000EB2003F0FFFE002003F0FCFEDC2003F074
:10158000F9FE002003F0F6FEB82003F015FF00205E
:1015900003F0F0FE002003F0EDFE002003F0EAFE71
:1015A000002003F0E7FE002003F0E4FE002003F03B
:1015B000E1FE002003F0DEFE002003F0DBFEBA2097
:1015C00003F0FAFE242003F0D5FE002003F0D2FE43
:1015D000002003F0CFFE002003F0CCFEC12003F07A
:1015E000EBFE202003F0C6FE002003F0C3FE5420D3
:1015F00003F0C0FE002003F0BDFEFF2003F0BAFEA2
:10160000002003F0B7FEC22003F0D6FE0A2003F04C
:10161000B1FE002003F0AEFE042003F0ABFE00207C
:1016200003F0A8FEC32003F0C7FE3C2003F0A2FE97
:10163000002003F09FFE3A2003F09CFE002003F000
:1016400099FE392003F096FE002003F093FE372028
:1016500003F090FE002003F08DFE3C2003F08AFE94
:10166000002003F087FE362003F084FE002003F004
:1016700081FE322003F07EFE002003F07BFE2F204F
:1016800003F078FE002003F075FE2C2003F072FEBC
:10169000002003F06FFE292003F06CFE002003F011
:1016A00069FE262003F066FE002003F063FE24207E
:1016B00003F060FE002003F05DFE242003F05AFEDC
:1016C000002003F057FE232003F054FE002003F017
:1016D00051FE3C2003F04EFE002003F04BFE36206E
:1016E00003F048FE002003F045FE322003F042FEE6
:1016F000002003F03FFE2F2003F03CFE002003F00B
:1017000039FE2C2003F036FE002003F033FE2920A2
:1017100003F030FE002003F02DFE262003F02AFE09
:10172000002003F027FE242003F024FE002003F015
:1017300021FE242003F01EFE002003F01BFE2320C8
:1017400003F018FE002003F015FEC42003F034FE61
:10175000622003F00FFE002003F00CFE052003F0D2
:1017600009FE002003F006FE842003F003FE0020A3
:1017700003F000FEF02003F0FDFD002003F0FAFD71
:10178000182003F0F7FD002003F0F4FDA42003F07F
:10179000F1FD002003F0EEFD182003F0EBFD00202A
:1017A00003F0E8FD502003F0E5FD002003F0E2FD2A
:1017B0000C2003F0DFFD002003F0DCFD172003F018
:1017C000D9FD002003F0D6FD952003F0D3FD0020C5
:1017D00003F0D0FDF32003F0CDFD002003F0CAFD9F
:1017E000E62003F0C7FD002003F0C4FDC52003F090
:1017F000E3FD322003F0BEFD002003F0BBFD4420DA
:1018000003F0B8FD002003F0B5FD652003F0B2FD44
:10181000002003F0AFFD762003F0ACFD002003F0C4
:10182000A9FD882003F0A6FD002003F0A3FDC6203B
:1018300003F0C2FD202003F09DFD002003F09AFD7F
:10184000172003F097FD002003F094FD012003F022
:1018500091FD002003F08EFDC72003F0ADFD0020B8
:1018600003F088FD002003F085FD002003F082FDD9
:10187000002003F07FFDC82003F09EFD002003F050
:1018800079FD002003F076FD002003F073FD0020B9
:1018900003F070FDC92003F08FFD002003F06AFD06
:1018A000002003F067FD002003F064FD002003F03A
:1018B00061FD002003F05EFD002003F05BFD0020D1
:1018C00003F058FD002003F055FD002003F052FD09
:1018D000002003F04FFD002003F04CFD002003F03A
:1018E00049FD002003F046FD002003F043FD0020E9
:1018F00003F040FD002003F03DFDE02003F05CFD1F
:10190000162003F037FD002003F034FD1C2003F007
:1019100031FD002003F02EFD212003F02BFD0020DF
:1019200003F028FD362003F025FD002003F022FD02
:10193000462003F01FFD002003F01CFD522003F0A1
:1019400019FD002003F016FD642003F013FD0020B4
:1019500003F010FD7A2003F00DFD002003F00AFDD6
:101960008B2003F007FD002003F004FD992003F015
:1019700001FD002003F0FEFCA82003F0FBFC00208A
:1019800003F0F8FCB92003F0F5FC002003F0F2FCB2
:10199000C42003F0EFFC002003F0ECFCCA2003F0AD
:1019A000E9FC002003F0E6FCD22003F0E3FC002079
:1019B00003F0E0FCD92003F0DDFC002003F0DAFCAA
:1019C000E02003F0D7FC002003F0D4FCF32003F068
:1019D000D1FC002003F0CEFCE12003F0EDFC16204A
:1019E00003F0C8FC002003F0C5FC1C2003F0C2FC7F
:1019F000002003F0BFFC222003F0BCFC002003F019
:101A0000B9FC362003F0B6FC002003F0B3FC4520FF
:101A100003F0B0FC002003F0ADFC522003F0AAFC60
:101A2000002003F0A7FC642003F0A4FC002003F0D6
:101A3000A1FC7A2003F09EFC002003F09BFC8B208D
:101A400003F098FC002003F095FC992003F092FC31
:101A5000002003F08FFCA82003F08CFC002003F092
:101A600089FCB92003F086FC002003F083FCC4202D
:101A700003F080FC002003F07DFCCA2003F07AFC18
:101A8000002003F077FCD22003F074FC002003F068
:101A900071FCD82003F06EFC002003F06BFCE0200A
:101AA00003F068FC002003F065FCF32003F062FC07
:101AB000002003F05FFCE22003F07EFC052003F031
:101AC00059FC002003F056FC0B2003F053FC0020CF
:101AD00003F050FC1B2003F04DFC002003F04AFCF7
:101AE000342003F047FC002003F044FC442003F0C2
:101AF00041FC002003F03EFC4F2003F03BFC0020A3
:101B000003F038FC612003F035FC002003F032FCC8
:101B1000792003F02FFC002003F02CFC882003F038
:101B200029FC002003F026FC972003F023FC002072
:101B300003F020FCA62003F01DFC002003F01AFC9B
:101B4000B72003F017FC002003F014FCC22003F0C0
:101B500011FC002003F00EFCC72003F00BFC00205A
:101B600003F008FCD12003F005FC002003F002FC88
:101B7000D62003F0FFFB002003F0FCFBDD2003F088
:101B8000F9FB002003F0F6FBF32003F0F3FB002049
:101B900003F0F0FBE32003F00FFC052003F0EAFB69
:101BA000002003F0E7FB0A2003F0E4FB002003F031
:101BB000E1FB1C2003F0DEFB002003F0DBFB332005
:101BC00003F0D8FB002003F0D5FB442003F0D2FB48
:101BD000002003F0CFFB502003F0CCFB002003F0EB
:101BE000C9FB622003F0C6FB002003F0C3FB782092
:101BF00003F0C0FB002003F0BDFB882003F0BAFB1C
:101C0000002003F0B7FB972003F0B4FB002003F0A3
:101C1000B1FBA62003F0AEFB002003F0ABFBB72026
:101C200003F0A8FB002003F0A5FBC22003F0A2FBF9
:101C3000002003F09FFBC72003F09CFB002003F073
:101C400099FBD12003F096FB002003F093FBD520F5
:101C500003F090FB002003F08DFBDD2003F08AFBF6
:101C6000002003F087FBF32003F084FB002003F047
:101C700081FBE42003F0A0FB012003F07BFB0020AC
:101C800003F078FB012003F075FB002003F072FBEA
:101C9000022003F06FFB002003F06CFB2A2003F00E
:101CA00069FB002003F066FB3C2003F063FB00208F
:101CB00003F060FB4B2003F05DFB002003F05AFBB8
:101CC0005D2003F057FB002003F054FB742003F069
:101CD00051FB002003F04EFB842003F04BFB00205F
:101CE00003F048FB932003F045FB002003F042FB88
:101CF000A22003F03FFB002003F03CFBB32003F0E5
:101D000039FB002003F036FBBE2003F033FB00203C
:101D100003F030FBC42003F02DFB002003F02AFB6E
:101D2000CD2003F027FB002003F024FBD32003F099
:101D300021FB002003F01EFBDD2003F01BFB002035
:101D400003F018FBF32003F015FB002003F012FB57
:101D5000E52003F031FB002003F00CFB002003F032
:101D600009FB002003F006FB002003F003FB022028
:101D700003F000FB002003F0FDFA292003F0FAFA3B
:101D8000002003F0F7FA3C2003F0F4FA002003F0FF
:101D9000F1FA4B2003F0EEFA002003F0EBFA5D209D
:101DA00003F0E8FA002003F0E5FA742003F0E2FA09
:101DB000002003F0DFFA842003F0DCFA002003F0B7
:101DC000D9FA932003F0D6FA002003F0D3FAA22028
:101DD00003F0D0FA002003F0CDFAB32003F0CAFAE2
:101DE000002003F0C7FABE2003F0C4FA002003F07D
:101DF000C1FAC42003F0BEFA002003F0BBFACD20E4
:101E000003F0B8FA002003F0B5FAD32003F0B2FAD9
:101E1000002003F0AFFADC2003F0ACFA002003F05E
:101E2000A9FAF32003F0A6FA002003F0A3FAE620B3
:101E300003F0C2FA112003F09DFA002003F09AFA91
:101E4000342003F097FA002003F094FA562003F0B0
:101E500091FA002003F08EFA762003F08BFA00202E
:101E600003F088FA772003F085FA002003F082FA65
:101E7000662003F07FFA002003F07CFA882003F04C
:101E800079FA002003F076FA992003F073FA002023
:101E900003F070FABB2003F06DFA002003F06AFA39
:101EA000992003F067FA002003F064FA662003F03B
:101EB00061FA002003F05EFA552003F05BFA00207F
:101EC00003F058FA552003F055FA002003F052FAB7
:101ED000452003F04FFA002003F04CFA432003F0B2
:101EE00049FA002003F046FA442003F043FA0020A8
:101EF00003F040FAE72003F05FFA322003F03AFAE9
:101F0000002003F037FA552003F034FA002003F0E4
:101F100031FA762003F02EFA002003F02BFA662027
:101F200003F028FA002003F025FA672003F022FAD4
:101F3000002003F01FFA672003F01CFA002003F0D2
:101F400019FA872003F016FA002003F013FA9920FB
:101F500003F010FA002003F00DFABB2003F00AFA98
:101F6000002003F007FA992003F004FA002003F0A0
:101F700001FA772003F0FEF9002003F0FBF944207A
:101F800003F0F8F9002003F0F5F9562003F0F2F918
:101F9000002003F0EFF9232003F0ECF9002003F018
:101FA000E9F9332003F0E6F9002003F0E3F94520D6
:101FB00003F0E0F9002003F0DDF9E82003F0FCF97C
:101FC000002003F0D7F9002003F0D4F9992003F0A2
:101FD000D1F9002003F0CEF9872003F0CBF90020DF
:101FE00003F0C8F9882003F0C5F9002003F0C2F916
:101FF000772003F0BFF9002003F0BCF9662003F05E
:10200000B9F9002003F0B6F9882003F0B3F90020F5
:1020100003F0B0F9AA2003F0ADF9002003F0AAF90B
:10202000BB2003F0A7F9002003F0A4F9992003F0E6
:10203000A1F9002003F09EF9662003F09BF900202F
:1020400003F098F9552003F095F9002003F092F978
:10205000552003F08FF9002003F08CF9442003F0A1
:1020600089F9002003F086F9442003F083F9002069
:1020700003F080F9552003F07DF9002003F07AF990
:10208000E92003F099F9AA2003F074F9002003F085
:1020900071F9002003F06EF9002003F06BF90020C5
:1020A00003F08AF9AA2003F065F9CF2003F084F940
:1020B000002003F05FF9002003F05CF9002003F03A
:1020C00059F9002003F056F9002003F053F90020DD
:1020D00003F050F9002003F04DF9002003F04AF915
:1020E000002003F047F9002003F044F9002003F03A
:1020F00041F9002003F03EF9002003F03BF90020F5
:1021000003F038F9002003F035F9002003F032F92C
:10211000002003F02FF9F02003F04EF9002003F027
:1021200029F9502003F026F9002003F023F90020BC
:1021300003F020F9002003F01DF9F32003F03CF92F
:10214000002003F017F9F92003F036F9062003F018
:1021500011F9102003F00EF9292003F00BF90020EB
:1021600003F008F93A2003F027F9552003F002F9AB
:10217000112003F021F9642003F0ECFE292003F084
:102180001BF9352003F018F9002003F0F3F8512073
:1021900003F012F9FF2003F0EDF8532003F00CF9DF
:1021A0002C2003F0E7F8552003F006F9822003F015
:1021B000E1F82C2003F000F902F0C4BAFE48808850
:1021C000A0F5AA4110397DD155214FF4704003F09C
:1021D0001DF9AA214FF2010003F018F952214FF224
:1021E000020003F013F908214FF2030003F00EF987
:1021F00001214FF2040003F009F90D214FF43040A2
:1022000003F004F90D214BF2010003F0FFF80D215A
:102210004BF2020003F0FAF834214FF4364003F099
:10222000F5F834214BF2016003F0F0F834214BF261
:10223000026003F0EBF80D214FF4314003F0E6F8B3
:102240000D214BF2011003F0E1F80D214BF20210C9
:1022500003F0DCF834214FF4374003F0D7F8342191
:102260004BF2017003F0D2F834214BF2027003F00C
:10227000CDF800214FF4324003F0C8F800214BF2B2
:10228000012003F0C3F800214BF2022003F0BEF856
:1022900024214FF4384003F0B9F824214BF6010013
:1022A00003F0B4F824214BF6020003F0AFF801214B
:1022B0004FF43F4003F0AAF80F214FF4334003F0EE
:1022C000A5F800E0FDE30F214BF2013003F09EF88A
:1022D0000F214BF2023003F099F834214FF43940CA
:1022E00003F094F834214BF6011003F08FF83421F9
:1022F0004BF6021003F08AF808214FF4354003F042
:1023000085F808214BF2015003F080F808214BF2C8
:10231000025003F07BF803214FF4424003F076F8BB
:1023200024214FF43A4003F071F824214BF60120A8
:1023300003F06CF824214BF6022003F067F800212B
:102340004FF43C4003F062F878214BF6014003F073
:102350005DF800214BF6024003F058F800214FF4DD
:102360003D4003F053F878214BF6015003F04EF84E
:1023700000214BF6025003F049F800214FF43E4093
:1023800003F044F864214BF6016003F03FF80021AC
:102390004FF4514003F03AF833214DF2011003F0AD
:1023A00035F800214DF2021003F030F834214DF2DF
:1023B000031003F02BF800214DF2041003F026F86F
:1023C0003A214DF2051003F021F800214DF20610DC
:1023D00003F01CF84A214DF2071003F017F8002112
:1023E0004DF2081003F012F85C214DF2091003F0D1
:1023F0000DF800214DF20A1003F008F881214DF28A
:102400000B1003F003F800214DF20C1002F0FEFF58
:10241000A6214DF20D1002F0F9FF00214DF20E1031
:1024200002F0F4FFE5214DF20F1002F0EFFF012161
:102430004DF2101002F0EAFF13214DF2111002F0DC
:10244000E5FF01214DF2121002F0E0FF54214DF2A0
:10245000131002F0DBFF01214DF2141002F0D6FF41
:1024600082214DF2151002F0D1FF01214DF216101C
:1024700002F0CCFFCA214DF2171002F0C7FF022173
:102480004DF2181002F0C2FF00214DF2191002F0B7
:10249000BDFF02214DF21A1002F0B8FF01214DF2EA
:1024A0001B1002F0B3FF02214DF21C1002F0AEFF30
:1024B00034214DF21D1002F0A9FF02214DF21E1031
:1024C00002F0A4FF67214DF21F1002F09FFF0221CE
:1024D0004DF2201002F09AFF84214DF2211002F0FB
:1024E00095FF02214DF2221002F090FFA4214DF23F
:1024F000231002F08BFF02214DF2241002F086FF20
:10250000B7214DF2251002F081FF02214DF2261075
:1025100002F07CFFCF214DF2271002F077FF02215D
:102520004DF2281002F072FFDE214DF2291002F068
:102530006DFF02214DF22A1002F068FFF2214DF2E8
:102540002B1002F063FF02214DF22C1002F05EFF0F
:10255000FE214DF22D1002F059FF03214DF22E10F5
:1025600002F054FF10214DF22F1002F04FFF032113
:102570004DF2301002F04AFF33214DF2311002F0DB
:1025800045FF03214DF2321002F040FF6D214DF264
:10259000331002F03BFF00214FF4524002F036FFAF
:1025A00033214DF2012002F031FF00214DF20220D3
:1025B00002F02CFF342101E0540000204DF20320F2
:1025C00002F024FF00214DF2042002F01FFF3A2107
:1025D0004DF2052002F01AFF00214DF2062002F014
:1025E00015FF4A214DF2072002F010FF00214DF2A5
:1025F000082002F00BFF5C214DF2092002F006FFDB
:1026000000214DF20A2002F001FF81214DF20B2042
:1026100002F0FCFE00214DF20C2002F0F7FEA62194
:102620004DF20D2002F0F2FE00214DF20E2002F0DC
:10263000EDFEE5214DF20F2002F0E8FE01214DF202
:10264000102002F0E3FE13214DF2112002F0DEFE15
:1026500001214DF2122002F0D9FE54214DF2132037
:1026600002F0D4FE01214DF2142002F0CFFE8221AF
:102670004DF2152002F0CAFE01214DF2162002F0A3
:10268000C5FECA214DF2172002F0C0FE02214DF214
:10269000182002F0BBFE00214DF2192002F0B6FE18
:1026A00002214DF21A2002F0B1FE01214DF21B2051
:1026B00002F0ACFE02214DF21C2002F0A7FE3421F4
:1026C0004DF21D2002F0A2FE02214DF21E2002F06A
:1026D0009DFE67214DF21F2002F098FE02214DF26F
:1026E000202002F093FE84214DF2212002F08EFE84
:1026F00002214DF2222002F089FEA4214DF2232076
:1027000002F084FE02214DF2242002F07FFEB72168
:102710004DF2252002F07AFE02214DF2262002F031
:1027200075FECF214DF2272002F070FE02214DF2FE
:10273000282002F06BFEDE214DF2292002F066FE19
:1027400002214DF22A2002F061FEF2214DF22B20EF
:1027500002F05CFE02214DF22C2002F057FEFE2119
:102760004DF22D2002F052FE03214DF22E2002F0F8
:102770004DFE10214DF22F2002F048FE03214DF2B4
:10278000302002F043FE33214DF2312002F03EFEB4
:1027900003214DF2322002F039FE6D214DF233203B
:1027A00002F034FE00214FF4534002F02FFE33219B
:1027B0004DF2013002F02AFE00214DF2023002F00B
:1027C00025FE34214DF2033002F020FE00214DF2AF
:1027D000043002F01BFE3A214DF2053002F016FEE5
:1027E00000214DF2063002F011FE4A214DF2073071
:1027F00002F00CFE00214DF2083002F007FE5C21D1
:102800004DF2093002F002FE00214DF20A3002F0D2
:10281000FDFD81214DF20B3002F0F8FD00214DF25B
:102820000C3002F0F3FDA6214DF20D3002F0EEFD6A
:1028300000214DF20E3002F0E9FDE5214DF20F309E
:1028400002F0E4FD01214DF2103002F0DFFD132112
:102850004DF2113002F0DAFD01214DF2123002F09A
:10286000D5FD54214DF2133002F0D0FD01214DF27F
:10287000143002F0CBFD82214DF2153002F0C6FD7E
:1028800001214DF2163002F0C1FDCA214DF2173080
:1028900002F0BCFD02214DF2183002F0B7FD00211C
:1028A0004DF2193002F0B2FD02214DF21A3002F061
:1028B000ADFD01214DF21B3002F0A8FD02214DF2C9
:1028C0001C3002F0A3FD34214DF21D3002F09EFDBC
:1028D00002214DF21E3002F099FD67214DF21F30AA
:1028E00002F094FD02214DF2203002F08FFD842190
:1028F0004DF2213002F08AFD02214DF2223002F029
:1029000085FDA4214DF2233002F080FD02214DF21D
:10291000243002F07BFDB7214DF2253002F076FD28
:1029200002214DF2263002F071FDCF214DF2273009
:1029300002F06CFD02214DF2283002F067FDDE212D
:102940004DF2293002F062FD02214DF22A3002F0F0
:102950005DFDF2214DF22B3002F058FD02214DF2C7
:102960002C3002F053FDFE214DF22D3002F04EFDD1
:1029700003214DF22E3002F049FD10214DF22F308F
:1029800002F044FD03214DF2303002F03FFD3321CF
:102990004DF2313002F03AFD03214DF2323002F0B7
:1029A00035FD6D214DF2333002F030FD00214FF442
:1029B000544002F02BFD33214DF2014002F026FD80
:1029C00000214DF2024002F021FD34214DF203407E
:1029D00002F01CFD00214DF2044002F017FD3A21E7
:1029E0004DF2054002F012FD00214DF2064002F0CA
:1029F0000DFD4A214DF2074002F008FD00214DF285
:102A0000084002F003FD5C214DF2094002F0FEFC9B
:102A100000214DF20A4002F0F9FC81214DF20B40F9
:102A200002F0F4FC00214DF20C4002F0EFFCA62174
:102A30004DF20D4002F0EAFC00214DF20E4002F092
:102A4000E5FCE5214DF20F4002F0E0FC01214DF2E2
:102A5000104002F0DBFC13214DF2114002F0D6FCD5
:102A600001214DF2124002F0D1FC54214DF21340ED
:102A700002F0CCFC01214DF2144002F0C7FC82218F
:102A80004DF2154002F0C2FC01214DF2164002F059
:102A9000BDFCCA214DF2174002F0B8FC02214DF2F4
:102AA000184002F0B3FC00214DF2194002F0AEFCD8
:102AB00002214DF21A4002F0A9FC01214DF21B4007
:102AC00000E006E302F0A2FC02214DF21C4002F0FD
:102AD0009DFC34214DF21D4002F098FC02214DF284
:102AE0001E4002F093FC67214DF21F4002F08EFC65
:102AF00002214DF2204002F089FC84214DF2214058
:102B000002F084FC02214DF2224002F07FFCA4215D
:102B10004DF2234002F07AFC02214DF2244002F0F3
:102B200075FCB7214DF2254002F070FC02214DF2F8
:102B3000264002F06BFCCF214DF2274002F066FCEC
:102B400002214DF2284002F061FCDE214DF22940C5
:102B500002F05CFC02214DF22A4002F057FCF22107
:102B60004DF22B4002F052FC02214DF22C4002F0BB
:102B70004DFCFE214DF22D4002F048FC03214DF2A8
:102B80002E4002F043FC10214DF22F4002F03EFC9B
:102B900003214DF2304002F039FC33214DF2314037
:102BA00002F034FC03214DF2324002F02FFC6D2183
:102BB0004DF2334002F02AFC00214FF4554002F060
:102BC00025FC33214DF2015002F020FC00214DF292
:102BD000025002F01BFC34214DF2035002F016FCAF
:102BE00000214DF2045002F011FC3A214DF2055043
:102BF00002F00CFC00214DF2065002F007FC4A21C5
:102C00004DF2075002F002FC00214DF2085002F094
:102C1000FDFB5C214DF2095002F0F8FB00214DF262
:102C20000A5002F0F3FB81214DF20B5002F0EEFB53
:102C300000214DF20C5002F0E9FBA6214DF20D509F
:102C400002F0E4FB00214DF20E5002F0DFFBE52123
:102C50004DF20F5002F0DAFB01214DF2105002F05C
:102C6000D5FB13214DF2115002F0D0FB01214DF2A2
:102C7000125002F0CBFB54214DF2135002F0C6FB70
:102C800001214DF2145002F0C1FB82214DF215508A
:102C900002F0BCFB01214DF2165002F0B7FBCA2135
:102CA0004DF2175002F0B2FB02214DF2185002F023
:102CB000ADFB00214DF2195002F0A8FB02214DF2AC
:102CC0001A5002F0A3FB01214DF21B5002F09EFBB3
:102CD00002214DF21C5002F099FB34214DF21D509F
:102CE00002F094FB02214DF21E5002F08FFB67218F
:102CF0004DF21F5002F08AFB02214DF2205002F0EB
:102D000085FB84214DF2215002F080FB02214DF21F
:102D1000225002F07BFBA4214DF2235002F076FBFF
:102D200002214DF2245002F071FBB7214DF22550E3
:102D300002F06CFB02214DF2265002F067FBCF211E
:102D40004DF2275002F062FB02214DF2285002F0B2
:102D50005DFBDE214DF2295002F058FB02214DF2BD
:102D60002A5002F053FBF2214DF22B5002F04EFBA1
:102D700002214DF22C5002F049FBFE214DF22D5064
:102D800002F044FB03214DF22E5002F03FFB1021D4
:102D90004DF22F5002F03AFB03214DF2305002F079
:102DA00035FB33214DF2315002F030FB03214DF25F
:102DB000325002F02BFB6D214DF2335002F026FB16
:102DC00000214FF4564002F021FB33214DF2016007
:102DD00002F01CFB00214DF2026002F017FB3421CF
:102DE0004DF2036002F012FB00214DF2046002F08C
:102DF0000DFB3A214DF2056002F008FB00214DF277
:102E0000066002F003FB4A214DF2076002F0FEFA71
:102E100000214DF2086002F0F9FA5C214DF20960E0
:102E200002F0F4FA00214DF20A6002F0EFFA81217B
:102E30004DF20B6002F0EAFA00214DF20C6002F054
:102E4000E5FAA6214DF20D6002F0E0FA00214DF204
:102E50000E6002F0DBFAE5214DF20F6002F0D6FAC7
:102E600001214DF2106002F0D1FA13214DF21160F0
:102E700002F0CCFA01214DF2126002F0C7FA54219F
:102E80004DF2136002F0C2FA01214DF2146002F01B
:102E9000BDFA82214DF2156002F0B8FA01214DF21F
:102EA000166002F0B3FACA214DF2176002F0AEFAD2
:102EB00002214DF2186002F0A9FA00214DF21960CA
:102EC00002F0A4FA02214DF21A6002F09FFA0121E9
:102ED0004DF21B6002F09AFA02214DF21C6002F0E2
:102EE00095FA34214DF21D6002F090FA02214DF264
:102EF0001E6002F08BFA67214DF21F6002F086FA25
:102F000002214DF2206002F081FA84214DF221600D
:102F100002F07CFA02214DF2226002F077FAA4213D
:102F20004DF2236002F072FA02214DF2246002F0A9
:102F30006DFAB7214DF2256002F068FA02214DF2D8
:102F4000266002F063FACF214DF2276002F05EFAAC
:102F500002214DF2286002F059FADE214DF229607B
:102F600002F054FA02214DF22A6002F04FFAF221E7
:102F70004DF22B6002F04AFA02214DF22C6002F071
:102F800045FAFE214DF22D6002F040FA03214DF288
:102F90002E6002F03BFA10214DF22F6002F036FA5B
:102FA00003214DF2306002F031FA33214DF23160ED
:102FB00002F02CFA03214DF2326002F027FA6D2163
:102FC0004DF2336002F022FA55214FF4704002F0C6
:102FD0001DFAAA214FF2010002F018FA52214FF215
:102FE000020002F013FA08214FF2030002F00EFA79
:102FF00000214FF2040002F009FACC214FF43140D5
:1030000002F004FA00214BF2011002F0FFF9052151
:103010004FF4364002F0FAF970214FF4374002F0D5
:10302000F5F970214BF2017002F0F0F901214FF433
:10303000384002F0EBF903214BF6010002F0E6F90B
:1030400003214BF6020002F0E1F903214BF60300E5
:1030500002F0DCF902214FF43C4002F0D7F90021E4
:103060004BF6014002F0D2F900214BF6024002F08B
:10307000CDF9D0214FF4494002F0C8F902214CF6B5
:10308000011002F0C3F950214CF6021002F0BEF913
:1030900050214CF6031002F0B9F950214CF60410FF
:1030A00002F0B4F900214FF4545002F0AFF9552169
:1030B0004FF4685002F0AAF94FF4885002F07CF9FE
:1030C000782002F06DFF4FF4245002F075F901F002
:1030D00039BBFE488088A0F5134125397ED147F6DB
:1030E000F001E52002F092F94FF48071012002F026
:1030F0008DF94FF4E061022002F088F941F23001CD
:10310000032002F083F90021042002F07FF940F24D
:103110000221082002F07AF90021092002F076F954
:1031200000210A2002F072F900210C2002F06EF951
:1031300000210D2002F06AF900210F2002F066F94B
:103140000021102002F062F90721112002F05EF93F
:103150000021122002F05AF90021132002F056F942
:103160000021072002F052F941F29061102002F094
:103170004DF940F22721112002F048F99D2112203B
:1031800002F044F94FF4C851132002F03FF9252111
:10319000292002F03BF90D212B2002F037F90721FD
:1031A000302002F033F940F20331312002F02EF9E1
:1031B0000321322002F02AF940F20621352002F0E4
:1031C00025F90821362002F021F940F20641372086
:1031D00002F01CF94FF44171382000E057E002F092
:1031E00015F90721392002F011F940F202613C2063
:1031F00002F00CF908213D2002F008F900215020CE
:1032000002F004F9EF21512002F000F900215220D0
:1032100002F0FCF840F23F11532002F0F7F84FF4AF
:103220002741602002F0F2F80121612002F0EEF85F
:1032300000216A2002F0EAF80021802002F0E6F87E
:103240000021812002F0E2F80021822002F0DEF865
:103250000021832002F0DAF80021842002F0D6F861
:103260000021852002F0D2F81021902002F0CEF843
:103270004FF4C061922002F0C9F840F233110720E8
:1032800002F0C4F82221002002F0C0F81FE78F48A6
:103290008088A0F5134128397ED141F28F01EC20BE
:1032A00002F0B4F841F23421EF2002F0AFF84FF40D
:1032B0008071012002F0AAF84FF4E061022002F0D0
:1032C000A5F841F23001032002F0A0F8002104200B
:1032D00002F09CF840F20221082002F097F8002149
:1032E000092002F093F800210A2002F08FF8012152
:1032F0000C2002F08BF800210D2002F087F800214D
:103300000F2002F083F80021102002F07FF807213F
:10331000112002F07BF80021122002F077F8002142
:10332000132002F073F80121072002F06FF8322019
:1033300002F010FE41F29041102002F067F840F2D6
:103340002721112002F062F8322002F003FE8A21C8
:10335000122002F05BF8322002F0FCFD4FF4D05155
:10336000132002F053F80621292002F04FF80D2116
:103370002B2002F04BF8322002F0ECFD002120203F
:1033800002F044F80021212002F040F8322002F03F
:10339000E1FD0021302000E074E002F037F840F257
:1033A0000461312002F032F840F20531322002F09F
:1033B0002DF80021352002F029F840F60941362089
:1033C00002F024F84FF40171372002F01FF840F2A8
:1033D0000131382002F01AF840F20771392002F06A
:1033E00015F800213C2002F011F840F60A213D209A
:1033F00002F00CF8322002F0ADFD0021502002F066
:1034000005F8EF21512002F001F80021522001F0CF
:10341000FDFF40F23F11532001F0F8FF4FF4274128
:10342000602001F0F3FF0121612001F0EFFF002196
:103430006A2001F0EBFF0021802001F0E7FF00216E
:10344000812001F0E3FF0021822001F0DFFF002155
:10345000832001F0DBFF0021842001F0D7FF002151
:10346000852001F0D3FF1021902001F0CFFF4FF411
:10347000C061922001F0CAFF40F23311072001F031
:10348000C5FF24E611488088A0F5134125397CD179
:1034900047F6F001E52001F0B9FF4FF480710120FB
:1034A00001F0B4FF4FF4E061022001F0AFFF41F200
:1034B0003001032001F0AAFF0021042001F0A6FF43
:1034C00040F20221082001F0A1FF01E05400002099
:1034D0000021092001F09AFF00210A2001F096FF47
:1034E00000210C2001F092FF00210D2001F08EFF41
:1034F00000210F2001F08AFF0021102001F086FF3B
:103500000721112001F082FF0021122001F07EFF2F
:103510000021132001F07AFF0021072001F076FF3F
:1035200041F29061102001F071FF40F2272111203B
:1035300001F06CFF9D21122001F068FF4FF4C8518B
:10354000132001F063FF2521292001F05FFF0D21E9
:103550002B2001F05BFF0721302001F057FF40F2E4
:103560000331312001F052FF0321322001F04EFFE0
:1035700040F20621352001F049FF0821362001F0F4
:1035800045FF40F20641372000E05CE001F03EFFDD
:103590004FF44171382001F039FF0721392001F043
:1035A00035FF40F202613C2001F030FF08213D2050
:1035B00001F02CFF0021502001F028FFEF215120C5
:1035C00001F024FF0021522001F020FF40F23F11C2
:1035D000532001F01BFF4FF42741602001F016FF3C
:1035E0000121612001F012FF00216A2001F00EFF8D
:1035F0000021802001F00AFF0021812001F006FF58
:103600000021822001F002FF0021832001F0FEFE54
:103610000021842001F0FAFE0021852001F0F6FE51
:103620001021902001F0F2FE4FF4C061922001F0D1
:10363000EDFE40F23311072001F0E8FE22210020C8
:1036400001F0E4FE43E5FE488088A0F513412839E7
:103650007ED141F28F01EC2001F0D8FE41F23421FD
:10366000EF2001F0D3FE4FF48071012001F0CEFE77
:103670004FF4E061022001F0C9FE41F23001032065
:1036800001F0C4FE0021042001F0C0FE40F202213E
:10369000082001F0BBFE0021092001F0B7FE002147
:1036A0000A2001F0B3FE01210C2001F0AFFE002141
:1036B0000D2001F0ABFE00210F2001F0A7FE00213C
:1036C000102001F0A3FE0721112001F09FFE002130
:1036D000122001F09BFE0021132001F097FE012132
:1036E000072001F093FE322002F034FC41F29041B9
:1036F000102001F08BFE40F22721112001F086FE00
:10370000322002F027FC8A21122001F07FFE3220B5
:1037100002F020FC4FF4D051132001F077FE062177
:10372000292001F073FE0D212B2001F06FFE3220C5
:1037300002F010FC0021202001F068FE0021212071
:1037400001F064FE322002F005FC0021302000E090
:1037500074E001F05BFE40F20461312001F056FE9E
:1037600040F20531322001F051FE0021352001F0F8
:103770004DFE40F60941362001F048FE4FF401713C
:10378000372001F043FE40F20131382001F03EFEC7
:1037900040F20771392001F039FE00213C2001F090
:1037A00035FE40F60A213D2001F030FE322002F0C5
:1037B000D1FB0021502001F029FEEF21512001F022
:1037C00025FE0021522001F021FE40F23F1153203E
:1037D00001F01CFE4FF42741602001F017FE01218B
:1037E000612001F013FE00216A2001F00FFE00218C
:1037F000802001F00BFE0021812001F007FE002156
:10380000822001F003FE0021832001F0FFFD002152
:10381000842001F0FBFD0021852001F0F7FD10213F
:10382000902001F0F3FD4FF4C061922001F0EEFD15
:1038300040F23311072001F0E9FD48E48048808818
:10384000A0F5134120397DD1084601F0DFFD4FF48A
:103850008071012001F0DAFD4FF4E061022001F0F7
:10386000D5FD41F23001032001F0D0FD00210420FC
:1038700001F0CCFD40F20221082001F0C7FD00213B
:10388000092001F0C3FD00210A2001F0BFFD012144
:103890000C2001F0BBFD00210D2001F0B7FD00213F
:1038A0000F2001F0B3FD322002F054FB40F2011171
:1038B000072001F0ABFD322002F04CFB4FF48651A3
:1038C000102001F0A3FD0721112001F09FFD4FF40E
:1038D0008871122001F09AFD4FF43061132001F03D
:1038E00095FD0021292001F091FD44F210012B20CB
:1038F00001F08CFD0021502001F088FDEF215120C6
:1039000001F084FD0021522001F080FD40F23F11C2
:10391000532001F07BFD4FF41C51602001F076FD37
:103920000121612001F072FD00216A2001F06EFD8D
:103930000021802001F06AFD0021812001F066FD58
:10394000002100E02DE0822001F060FD00218320B5
:1039500001F05CFD0021842001F058FD002185204C
:1039600001F054FD1021902001F050FD0021922023
:1039700001F04CFD0121932001F048FD4FF48871C6
:10398000952001F043FD0021972001F03FFD00212B
:10399000982001F03BFD40F27311072001F036FD45
:1039A00074E427488088A0F5134131397DD141F274
:1039B0001401E72001F02AFD4FF48071012001F08D
:1039C00025FD4FF40071022001F020FD41F2380185
:1039D000032001F01BFD40F20221082001F016FD3A
:1039E0000021092001F012FD00210A2001F00EFD46
:1039F00000210C2001F00AFD00210D2001F006FD40
:103A000000210F2001F002FD0021102001F0FEFC3A
:103A10000721112001F0FAFC0021122001F0F6FC30
:103A20000021132001F0F2FCC82002F093FA41F2C9
:103A30009061102001F0EAFC40F22721112001E002
:103A40005400002001F0E2FC322002F083FA0C2145
:103A5000122001F0DBFC322002F07CFA4FF400610E
:103A6000132001F0D3FC1121292001F0CFFC0B2100
:103A70002B2001F0CBFC322002F06CFA0021202038
:103A800001F0C4FC40F23F11212001F0BFFC0021F5
:103A9000302001F0BBFC4FF48371312001F0B6FC03
:103AA0000021322001F0B2FC00E067E04FF4017128
:103AB000352001F0ABFC41F20A61362001F0A6FC92
:103AC00040F20771372001F0A1FC4FF483713820D8
:103AD00001F09CFC40F20771392001F097FC40F2A4
:103AE00002413C2001F092FC40F60F413D2001F0E4
:103AF0008DFC0021502001F089FCEF21512001F0C4
:103B000085FC0021522001F081FC40F23F1153203E
:103B100001F07CFC4FF41C51602001F077FC012186
:103B2000612001F073FC00216A2001F06FFC00218C
:103B3000802001F06BFC0021812001F067FC002156
:103B4000822001F063FC0021832001F05FFC002152
:103B5000842001F05BFC0021852001F057FC10213E
:103B6000902001F053FC4FF4C061922001F04EFC14
:103B700040F23311072001F049FC82E4FE488088BE
:103B8000A0F5A84108397DD14FF48071012001F0E2
:103B90003DFC4FF4E061022001F038FC41F23001BD
:103BA000032001F033FC0021042001F02FFC40F23F
:103BB0000721082001F02AFC0021092001F026FC41
:103BC00000210A2001F022FC00210C2001F01EFC43
:103BD00000210D2001F01AFC00210F2001F016FC3D
:103BE000142002F0B7F941F2B061102001F00EFC90
:103BF0000121112001F00AFC0121172001F006FC2F
:103C00004FF49C71122001F001FC4FF4006113206D
:103C100001F0FCFB0921292001F0F8FB09212A20F1
:103C200001F0F4FB0021A42001F0F0FB0021502062
:103C300001F0ECFBEF21512001F0E8FB00215220C4
:103C400001F0E4FB40F23F11532001F0DFFB4FF4A1
:103C50001C51602001F0DAFB0121612001F0D6FB4C
:103C600000216A2001F0D2FB0021802001F0CEFB70
:103C70000021812001F0CAFB0021822001F0C6FB57
:103C8000002100E024E0832001F0C0FB002184201B
:103C900001F0BCFB0021852001F0B8FB132190202E
:103CA00001F0B4FB0021922001F0B0FB032193202E
:103CB00001F0ACFB4FF48871952001F0A7FB40F2B6
:103CC0007311072001F0A2FB322002F043F9B9E49E
:103CD000A9488088A0F5A85105397DD1072001F0B9
:103CE00095FB322002F036F94FF48E71122001F06C
:103CF0008DFB0121A42001F089FB0F21082001F098
:103D000085FB08210A2001F081FB08210D2001F02C
:103D10007DFB40F20771302001F078FB0721312054
:103D200001F074FB40F20361322001F06FFB4FF4AD
:103D3000E061332001F06AFB40F20221342001F0FF
:103D400065FB0221352001F061FB41F60F71362041
:103D500001F05CFB40F20771372001F057FB0021B6
:103D6000382001F053FB0021392001F04FFB40F2D5
:103D700007713A2001F04AFB00213B2001F046FB8D
:103D800007213C2001F042FB00213D2001F03EFBD9
:103D9000322002F0DFF80121072001F037FB01217A
:103DA000172001F033FB322002F0D4F84FF4BD515C
:103DB000102001F02BFB40F21721112001F026FB0F
:103DC0004FF48F71122001F021FB4FF4706113202A
:103DD00001F01CFB002100E094E02A2001F016FB1A
:103DE0000A21292001F012FB4FF49F71122001F0EB
:103DF0000DFB0021502001F009FBEF21512001F0C3
:103E000005FB0021522001F001FB40F23F1153203D
:103E100001F0FCFA4FF41C51602001F0F7FA012187
:103E2000612001F0F3FA00216A2001F0EFFA00218D
:103E3000802001F0EBFA0021812001F0E7FA002157
:103E4000822001F0E3FA0021832001F0DFFA002153
:103E5000842001F0DBFA0021852001F0D7FA13213C
:103E6000902001F0D3FA4FF44071922001F0CEFA85
:103E70000521932001F0CAFA0021952001F0C6FA2D
:103E80000021972001F0C2FA0021982001F0BEFA2B
:103E90004FF48071012001F0B9FA4FF4E061022083
:103EA00001F0B4FA41F23801032001F0AFFA002129
:103EB000042001F0ABFA00210C2001F0A7FA002148
:103EC0000F2001F0A3FA0021202001F09FFA002129
:103ED000212001F09BFA2121072001F097FA1420FC
:103EE00002F038F86121072001F090FA142002F066
:103EF00031F840F27311072001F088FA142002F023
:103F000029F89AE41C488088A0F5354105397CD110
:103F1000084601F07BFA0021084601F077FA0021FB
:103F2000084601F073FA0021084601F06FFA0121FA
:103F3000A42001F06BFA142002F00CF84FF41C518D
:103F4000602001F063FA40F20221082001F05EFADD
:103F50004FF40571302001F059FA43F21571312008
:103F600001F054FA40F20461322001F04FFA40F6B9
:103F70001661332002E000005400002001F046FAF0
:103F800042F21121342001F041FA4FF4A8513520BA
:103F900001F03CFA48F20751362001F037FA41F2BD
:103FA0000741372001F032FA41F20341382001F095
:103FB0002DFA2021392001F029FA1A21902001F050
:103FC00025FA0021102001F021FA0721112001F02B
:103FD0001DFA0021122001F019FA0021132001F02E
:103FE00015FA142001F0B6FF4FF4E661102001F03D
:103FF0000DFA40F23711112001F008FA142001F0F7
:10400000A9FF4FF4DC71122000E088E001F0FEF916
:10401000142001F09FFF4FF47061132001F0F6F9B6
:1040200080212A2001F0F2F94821292001F0EEF93F
:10403000142001F08FFF4FF48071012001F0E6F9A8
:104040004FF4E061022001F0E1F941F23801032070
:1040500001F0DCF940F20221082001F0D7F900213B
:104060000A2001F0D3F900210C2001F0CFF9002142
:104070000D2001F0CBF930210E2001F0C7F900210D
:10408000502001F0C3F9EF21512001F0BFF90021C8
:10409000522001F0BBF940F23F11532001F0B6F974
:1040A0004FF41C51602001F0B1F90121612001F0B1
:1040B000ADF900216A2001F0A9F91121902001F049
:1040C000A5F94FF4C061922001F0A0F940F202413D
:1040D000932001F09BF90221942001F097F914201C
:1040E00001F038FF0121072001F090F9142001F0C0
:1040F00031FF6121072001F089F940F27311072097
:1041000001F084F90021202001F080F90021212014
:1041100001F07CF92221002001F078F912E3FE4839
:104120008088A0F5454105397DD1084601F06EF93A
:104130000021084601F06AF9142001F00BFF00216C
:10414000084601F063F90021084601F05FF90021FB
:10415000084601F05BF90021084601F057F90121FA
:10416000A42001F053F9142001F0F4FE4FF41C5187
:10417000602001F04BF940F60601082001F046F9F5
:1041800040F20371302001F041F90121312001F0AA
:104190003DF90421322001F039F94FF481713320C7
:1041A00001F034F94FF44071342001F02FF940F25E
:1041B0000311352001F02AF91F21362001F026F9DC
:1041C00040F20371372001F021F90121382001F07C
:1041D0001DF90421392001F019F91521902001F071
:1041E00015F94FF48261102001F010F940F24721D7
:1041F000112001F00BF94FF4DE71122001F006F9E5
:104200004FF46061132001F001F9782001F0A2FE63
:104210004FF48071012001F0F9F84FF40071022091
:1042200001F0F4F800E050E041F23001032001F029
:10423000EDF808210A2001F0E9F800210C2001F036
:10424000E5F820210E2001F0E1F800210F2001F017
:10425000DDF80021202001F0D9F80021212001F013
:10426000D5F83D212A2001F0D1F8142001F072FE8A
:104270002D21292001F0CAF80021502001F0C6F8B4
:104280004DF2EF01512001F0C1F80021522001F060
:10429000BDF840F23F11532001F0B8F80021612031
:1042A00001F0B4F800216A2001F0B0F84FF4407139
:1042B000922001F0ABF80521932001F0A7F84FF40C
:1042C0008071072001F0A2F83CE293488088A0F5B5
:1042D000094189397DD10121002001F097F84AF682
:1042E000A401032001F092F800210C2001F08EF8C7
:1042F00040F60C010D2001F089F84FF42C510E20EE
:1043000001F084F8B0211E2001F080F842F63F3120
:10431000012001F07BF84FF4C061022001F076F833
:104320000021102001F072F846F27801112001F00E
:104330006DF80021052001F069F80021062001F048
:1043400065F84EF61C71162001F060F80321172065
:1043500001F05CF840F23321072001F057F800210A
:104360000B2001F053F800210F2001F04FF800213D
:10437000412001F04BF80021422001F047F80021D4
:10438000482001F043F840F23F11492001F03EF887
:1043900000214A2001F03AF800214B2001F036F8C4
:1043A0004FF46F41442001F031F80021452001F025
:1043B0002DF840F23F11462001F028F840F2077135
:1043C000302001F023F84FF40171312001F01EF884
:1043D00000E03DE04FF40171322001F017F840F2A7
:1043E0000251332001F012F840F20751342001F05D
:1043F0000DF84FF40171352001F008F84FF4017108
:10440000362001F003F840F20251372000F0FEFFA1
:1044100040F202313A2000F0F9FF40F202313B2035
:1044200000F0F4FF0021232000F0F0FF0021242001
:1044300000F0ECFF4FF40041252000F0E7FF0021E1
:104440004F2000F0E3FF00214E2000F0DFFF79E174
:1044500031488088A0F58A4131397CD10121002082
:1044600000F0D4FF0A2001F075FD41F22861102010
:1044700000F0CCFF0E21122000F0C8FF40F63921D9
:10448000132000F0C3FF0A2001F064FD4021112039
:1044900000F0BCFF5021152000F0B8FF0A2001F009
:1044A00059FD1E21122000F0B1FF0A2001F052FD3B
:1044B0004FF4B151102000F0A9FF42F6392113202A
:1044C00000F0A4FF0A2001F045FD4FF480710120A7
:1044D00000F09CFF4FF44071022000F097FF41F282
:1044E0003801032000F092FF40F20221082000F082
:1044F0008DFF08210A2000F089FF0021302000F004
:1045000085FF40F20241312000F080FF4FF48371BB
:10451000322000F07BFF01E05400002040F2035104
:10452000332000F073FF4FF48271342000F06EFFEF
:1045300040F20131352000F069FF40F2077136206A
:1045400000F064FF40F20531372000F05FFF4FF4C8
:104550000271382000E040E000F058FF40F60B7197
:10456000392000F053FF0221412000F04FFF4FF4AB
:104570001C51602000F04AFF0121612000F046FF3D
:104580004FF40471902000F041FF4FF485719220A8
:1045900000F03CFF0421932000F038FF4FF48071BD
:1045A000A02000F033FF0121072000F02FFF212180
:1045B000072000F02BFF2321072000F027FF3321E5
:1045C000072000F023FF40F23311072000F01EFF08
:1045D0000021A02000F01AFFB4E060488088A0F518
:1045E0008A413539F8D13021152000F00FFF102114
:1045F0009A2000F00BFF2021112000F007FF43F26A
:104600002841102000F002FF0221122000F0FEFEDF
:1046100041F23801132000F0F9FE282001F09AFC45
:104620001221084600F0F2FE282001F093FC43F22C
:104630002041102000F0EAFE43F23801132000F080
:10464000E5FE462001F086FC0021302000F0DEFE71
:1046500040F20241312000F0D9FE40F20731322011
:1046600000F0D4FE4FF44171332000F0CFFE04215E
:10467000342000F0CBFE40F20141352000F0C6FEB0
:1046800040F20771362000F0C1FE40F205313720BC
:1046900000F0BCFE4FF4C261382000F0B7FE4FF4CA
:1046A000C261392000F0B2FE4FF48071012000F0A9
:1046B000ADFE4FF44071022000F0A8FE41F230013F
:1046C000032000F0A3FE40F60801082000F09EFE43
:1046D00008210A2000F09AFE4FF41C51602000F0DF
:1046E00095FE0121612000F091FE4FF49F71902012
:1046F00000F08CFE4FF48071922000F087FE4FF4A2
:104700008071932000F082FE4FF44051A02000F011
:104710007DFE1021A32000F079FE0121072000F08A
:1047200075FE2121072000F071FE2321072000F0F3
:104730006DFE3321072000F069FE40F2331107209F
:1047400000F064FE0020FCF743F8012004490860F3
:104750004FF6FF70FBF7EAFF08BD00005400002091
:10476000A801224210B50246012000E050430B0090
:10477000A1F10104E1B2F9D110BD000010B54FF074
:1047800088301C490860091D0860002019490C3157
:10479000086089151848FBF792FF4FF4007116481E
:1047A000FBF78BFF40211448FBF787FF13488088F5
:1047B000A0F50941893902D1022001F0F1FB0D4831
:1047C000FBF76EFF044640210B48FBF778FF4FF4E0
:1047D00000710948FBF773FF4FF03330054908605B
:1047E000091D08604FF6FF7002490C310860204631
:1047F00010BD0000000C01400010014054000020DA
:1048000010B50446204600F0D7FDFFF7B7FF10BDF6
:104810002DE9F041054600240027FE488079012853
:104820001ED1FC488088A0F5D041043918D0082D4D
:1048300015D2DFE805F00406080A0C0E1012062552
:104840000DE007250BE0042509E0052507E001251B
:1048500005E0002503E0032501E0022500BF00BFBD
:10486000EC488088A0F51341413911D0E94880888F
:10487000A0F5D04104390BD0E6488088A0F5A641C8
:10488000103905D0E3488088A0F5AA4110397CD1C1
:10489000082D1CD2DFE805F00406090C0F121518CC
:1048A00000BF14E044F0800411E044F040040EE046
:1048B00044F0C0040BE044F0200408E044F060043D
:1048C00005E044F0A00402E044F0E00400BF00BFB3
:1048D000D0488088A0F5AA41103902D14FF458572A
:1048E00000E03627CB488088A0F5A641103907D0D4
:1048F000C8488088A0F5AA41103901D044F00804C6
:10490000C4488088A0F5D041043901D144F00204A4
:104910002146384600F07AFD14F0200F03D1BD483F
:10492000807901280DD1BB480088BA49498888425E
:1049300014DAB84806884088B64908800846468098
:104940000CE0B4480088B3494988884206DDB14884
:1049500006884088AF49088008464680AD48808870
:10496000A0F5AA4110397CD1AA49488900F024FD5C
:104970004FF48071A848FBF7A2FE4FF40071A648DF
:10498000FBF79BFE0021A54800E0FBE1FBF799FE49
:104990008021A148FBF791FE80219F48FBF78FFE05
:1049A0004FF400719C48FBF78AFE9A494989491CDB
:1049B00088B200F001FD4FF480719748FBF77FFE4D
:1049C0004FF400719448FBF778FE00219348FBF701
:1049D00078FE80219048FBF770FE80218E48FBF71F
:1049E0006EFE4FF400718C48FBF769FE89494989D6
:1049F000891C88B200F0E0FC4FF480718648FBF718
:104A00005EFE4FF400718448FBF757FE8148008832
:104A1000401EC0F30F218148FBF753FE80217E48E2
:104A2000FBF74BFE80217C48FBF749FE4FF40071F9
:104A30007948FBF744FE77494989C91C88B200F0E0
:104A4000BBFC4FF480717448FBF739FE4FF40071E2
:104A50007148FBF732FE6F480078401EC1B26F48C4
:104A600000E098E0FBF72DFE80216B48FBF725FE68
:104A700080216948FBF723FE4FF400716648FBF77D
:104A80001EFE6449888900F097FC4FF480716248EB
:104A9000FBF715FE4FF400715F48FBF70EFE002197
:104AA0005E48FBF70EFE80215B48FBF706FE802187
:104AB0005948FBF704FE4FF400715748FBF7FFFD20
:104AC00054498989491C88B200F076FC4FF4807102
:104AD0005148FBF7F4FD4FF400714F48FBF7EDFD33
:104AE00000214E48FBF7EDFD80214B48FBF7E5FD2B
:104AF00080214948FBF7E3FD4FF400714648FBF77E
:104B0000DEFD44498989891C88B200F055FC4FF4C8
:104B100080714148FBF7D3FD4FF400713E48FBF72D
:104B2000CCFD3C484088401EC0F30F213B48FBF7BA
:104B3000C8FD80213848FBF7C0FD80213648FBF7CF
:104B4000BEFD4FF400713448FBF7B9FD3149898946
:104B5000C91C88B200F030FC4FF480712E48FBF77E
:104B6000AEFD4FF400712C48FBF7A7FD2948807873
:104B7000401EC1B22948FBF7A4FD80212648FBF75F
:104B80009CFD80212448FBF79AFD4FF400712248D8
:104B9000FBF795FD28E11F49488900F00DFC4FF413
:104BA00080711D48FBF78BFD4FF400711A48FBF72D
:104BB00084FD00211948FBF784FD80211648FBF78E
:104BC0007CFD80211448FBF77AFD4FF400711248F8
:104BD000FBF775FD4FF480710F48FBF770FD4FF444
:104BE00000710D48FBF769FD00210C48FBF769FDDA
:104BF00080210948FBF761FD80210748FBF75FFD35
:104C00004FF400710448FBF75AFD4FF480710248DD
:104C100006E000005400002000100140000C01409C
:104C2000FBF74DFD4FF400717048FBF746FD7048EF
:104C30000088401EC0F30F216E48FBF742FD802123
:104C40006A48FBF73AFD80216848FBF738FD4FF4CE
:104C500000716648FBF733FD4FF480716348FBF742
:104C60002EFD4FF400716148FBF727FD6048007886
:104C7000401EC1B25F48FBF724FD80215B48FBF773
:104C80001CFD80215948FBF71AFD4FF4007157486D
:104C9000FBF715FD5649888900F08EFB4FF48071B3
:104CA0005248FBF70CFD4FF400715048FBF705FD2F
:104CB00000215048FBF705FD80214C48FBF7FDFC27
:104CC00080214A48FBF7FBFC4FF400714748FBF793
:104CD000F6FC4FF480714548FBF7F1FC4FF400718E
:104CE0004248FBF7EAFC00214248FBF7EAFC80213E
:104CF0003E48FBF7E2FC80213C48FBF7E0FC4FF428
:104D000000713A48FBF7DBFC4FF480713748FBF742
:104D1000D6FC4FF400713548FBF7CFFC344840888F
:104D2000401EC0F30F213348FBF7CBFC80212F48F6
:104D3000FBF7C3FC80212D48FBF7C1FC4FF4007149
:104D40002A48FBF7BCFC4FF480712848FBF7B7FCFE
:104D50004FF400712548FBF7B0FC25488078401ED1
:104D6000C1B22448FBF7ADFC80212048FBF7A5FC2D
:104D700080211E48FBF7A3FC4FF400711B48FBF792
:104D80009EFC31E0082D1CD2DFE805F004070A0D77
:104D90000F12151844F0300413E044F0100410E032
:104DA00044F020040DE000BF0BE044F0380408E0BC
:104DB00044F0280405E044F0180402E044F008043C
:104DC00000BF00BF0A488088A0F50941893904D195
:104DD000112746F24000044302E0032744F48054C4
:104DE0002146384600F012FBBDE8F081001001407A
:104DF00054000020000C014070B504460D46D24816
:104E00008088A0F51341413905D0CF488088A0F5AE
:104E1000A641103975D1CC49488900F0CDFA4FF43C
:104E20008071CA48FBF74BFC4FF40071C748FBF791
:104E300044FC2112C648FBF744FC8021C348FBF721
:104E40003CFC8021C148FBF73AFC4FF40071BF489D
:104E5000FBF735FC4FF48071BC48FBF730FC4FF496
:104E60000071BA48FBF729FCE1B2B948FBF729FC0D
:104E70008021B648FBF721FC8021B448FBF71FFCDA
:104E80004FF40071B148FBF71AFCAF49888900F074
:104E900093FA4FF48071AD48FBF711FC4FF40071A9
:104EA000AA48FBF70AFC2912A948FBF70AFC802153
:104EB000A648FBF702FC8021A448FBF700FC4FF456
:104EC0000071A248FBF7FBFB4FF480719F48FBF792
:104ED000F6FB4FF400719D48FBF7EFFBE9B29C48ED
:104EE000FBF7EFFB80219948FBF7E7FB8021974810
:104EF000FBF7E5FB4FF400719448FBF7E0FB21E181
:104F0000FFE791488088A0F5D04104397ED18E48D2
:104F10008079012804D18C480088401E001B84B28F
:104F20008949488900F048FA4FF480718748FBF7B7
:104F3000C6FB4FF400718548FBF7BFFB2112844884
:104F4000FBF7BFFB80218148FBF7B7FB80217F483F
:104F5000FBF7B5FB4FF400717C48FBF7B0FB4FF457
:104F600080717A48FBF7ABFB4FF400717748FBF791
:104F7000A4FBE1B27648FBF7A4FB80217348FBF762
:104F80009CFB80217148FBF79AFB4FF400716F483E
:104F9000FBF795FB6C49888900F00EFA4FF480719D
:104FA0006A48FBF78CFB4FF400716848FBF785FB00
:104FB00029126748FBF785FB80216448FBF77DFBDE
:104FC00080216248FBF77BFB4FF400715F48FBF7E1
:104FD00076FB4FF480715D48FBF771FB4FF4007175
:104FE0005A48FBF76AFBE9B25948FBF76AFB802194
:104FF0005648FBF762FB80215448FBF760FB4FF4F7
:1050000000715248FBF75BFB9CE0FFE74E4880884D
:10501000A0F5AA4110397DD14B49488900F0CCF95F
:105020004FF480714948FBF74AFB4FF40071474841
:10503000FBF743FB21124648FBF743FB8021434823
:10504000FBF73BFB80214148FBF739FB4FF4007134
:105050003E48FBF734FB3C494989491C88B200F0C3
:10506000ABF94FF480713948FBF729FB4FF400711D
:105070003648FBF722FBE1B23548FBF722FB8021E3
:105080003248FBF71AFB80213048FBF718FB4FF43E
:1050900000712E48FBF713FB2B49888900F08CF92F
:1050A0004FF480712948FBF70AFB4FF40071274841
:1050B000FBF703FB29122648FBF703FB802123485B
:1050C000FBF7FBFA80212148FBF7F9FA4FF4007156
:1050D0001E48FBF7F4FA1C498989491C88B200F084
:1050E0006BF94FF480711948FBF7E9FA4FF400713E
:1050F0001648FBF7E2FAE9B21548FBF7E2FA80211D
:105100001248FBF7DAFA80211048FBF7D8FA4FF47F
:10511000007100E003E00D48FBF7D1FA12E00A4805
:105120008079012804D108480088401E001B84B201
:1051300005494889214600F069F9034988892946CB
:1051400000F064F970BD0000540000200010014020
:10515000000C01402DE9F84F0746884616461C46CC
:10516000C3462046E31704EB5373DB1021464FEA96
:10517000E47C04EB5C7C4FEAEC0CB4EBCC0C02D08E
:105180004FF0010C01E04FF0000C6344224604EBA9
:10519000D27C4FEA6C0C03FB0CF3DBB20093A6F15C
:1051A0002000C6B2002556E00C2C07D106EB4600C5
:1051B0002B4901EB800010F8059013E0102C05D16D
:1051C000284800EB061010F805900BE0182C07D1CA
:1051D00006EBC600244901EB800010F8059001E0C1
:1051E000BDE8F88F4FF0000A2FE019F0800F06D0CD
:1051F0001E48028841463846FBF7BEFB07E00A9886
:1052000028B91B48028841463846FBF7B5FB4FEAF0
:1052100049604FEA106908F101001FFA80F815484B
:105220000088B84200DCDBE7A8EB0B00A04208D105
:10523000D846781C87B20F480088B84200DCCFE718
:1052400006E00AF1010000F0FF0ABAF1080FCCDB1A
:1052500000BF681CC5B200988542A5DB00BFBFE750
:1052600054630008C8670008B86D00082C000020CF
:105270002E000020540000202DE9FF4F81B007468A
:1052800091461E460E9D4FF0000A002439E0301B67
:10529000401EC1B20A20FFF765FAB9FBF0F00A21FF
:1052A000B0FBF1F201FB1208BAF1000F16D1701E2B
:1052B000A04213DDB8F1000F0ED10020AB4605EB84
:1052C000DB71491001FB0471009088B22B4630223B
:1052D0000299FFF73FFF12E04FF0010A0020AB46B2
:1052E00005EBDB71491001FB0471009088B208F1F5
:1052F0003001CAB22B460299FFF72CFF00BF601C99
:10530000C4B2B442C3DB05B0BDE8F08F2DE9F84F5D
:1053100004460D4690469946DDE90A6704F0FF0A07
:1053200008EB04001FFA80F809EB05001FFA80F96A
:1053300016E0444502DB5446A81985B24D4500DB12
:1053400014E0002000903A78334629462046FFF7C3
:1053500001FF304606EBD07104EB61018CB27F1C7B
:1053600038787E2802DC38782028E2DA00BFBDE8F1
:10537000F88F000010B504464FF480710C48FBF71D
:105380009EF94FF400710A48FBF797F92146094846
:10539000FBF797F980210648FBF78FF98021044835
:1053A000FBF78DF94FF400710148FBF788F910BD48
:1053B00000100140000C014010B504464FF480710C
:1053C0000C48FBF77AF94FF400710A48FBF775F9BE
:1053D00021460948FBF775F980210648FBF76DF96E
:1053E00080210448FBF76BF94FF400710148FBF78B
:1053F00066F910BD00100140000C014010B50249D3
:105400000889FFF7D9FF10BD5400002070B504468D
:105410000D462046FFF7D0FF4FF480710C48FBF794
:105420004EF94FF400710A48FBF747F9294609483D
:10543000FBF747F980210648FBF73FF98021044834
:10544000FBF73DF94FF400710148FBF738F970BDE7
:1054500000100140000C014008B50121242000F09B
:1054600093F84FF48070ADF8000010208DF8030021
:1054700003208DF8020069460948FBF740F84FF415
:1054800080710748FBF71BF90420ADF8000069465E
:105490000448FBF734F804210248FBF710F908BD73
:1054A000000801400014014000BFFEE7704710B53E
:1054B0004FF4A06000F03CF810BD000070B5002172
:1054C00000230F22C4780CB3164C246804F4E06463
:1054D000C4F5E064210AC1F10403CA40447804FA27
:1054E00003F184781440214309010F4C0678A1553B
:1054F000047804F01F050124AC4005786D114FF0CD
:10550000E02606EB8505C5F8004109E0047804F0C3
:105510001F050124AC40054D0678761145F826405C
:1055200070BD00000CED00E000E400E080E100E070
:1055300002490143024A1160704700000000FA0569
:105540000CED00E07047000029B1064AD269024321
:10555000044BDA6104E0034AD2698243014BDA6109
:10556000704700000010024029B1064A1269024348
:10557000044B1A6104E0034A12698243014B1A6129
:10558000704700000010024029B1064A92690243A8
:10559000044B9A6104E0034A92698243014B9A6189
:1055A000704700000010024029B1064AD268024349
:1055B000044BDA6004E0034AD2688243014BDA60AC
:1055C000704700000010024030B500210022002486
:1055D00000232D4D6D6805F00C0121B1042905D083
:1055E000082923D105E0294D056022E0274D0560FB
:1055F0001FE0254D6D6805F47012234D6D6805F4AC
:105600008034022505EB92421CB9214D55430560BB
:105610000BE01D4D6D6815F4003F03D01C4D554344
:10562000056002E0194D5543056002E0174D056025
:1056300000BF00BF144D6D6805F0F0010909154D5C
:105640006B5C0568DD4045600F4D6D6805F4E061F9
:10565000090A104D6B5C4568DD4085600A4D6D6838
:1056600005F46051C90A0B4D6B5C4568DD40C560AF
:10567000054D6D6805F44041890B074D6B5CC568AD
:10568000B5FBF3F5056130BD0010024000127A0051
:1056900000093D004000002050000020704710B578
:1056A00000F002F810BD00000CB500200190009041
:1056B0003248006840F480303049086000BF2F480D
:1056C000006800F4003000900198401C01900098A0
:1056D00018B90198B0F5A06FF1D12848006810F40E
:1056E000003F02D00120009001E0002000900098CF
:1056F000012842D12248006840F01000204908608B
:105700000846006820F0030008600846006840F082
:105710000200086019484068184948600846406817
:1057200048600846406840F4806048600846406829
:1057300020F47C1048600846406840F4E810486057
:105740000846006840F08070086000BF0B480068A1
:1057500010F0007FFAD00948406820F003000749A4
:1057600048600846406840F00200486000BF0348B7
:10577000406800F00C000828F9D10CBD0010024070
:1057800000200240042808D14FF0E021096941F0CF
:1057900004014FF0E022116107E04FF0E0210969B8
:1057A00021F004014FF0E0221161704710B5134859
:1057B000006840F00100114908600846406810493F
:1057C00008400E494860084600680E4908400B49E9
:1057D00008600846006820F4802008600846406899
:1057E00020F4FE0048604FF41F008860FFF757FF69
:1057F0004FF000600449086010BD00000010024036
:105800000000FFF8FFFFF6FE08ED00E010B50121F3
:10581000054800F04CF830B101200449087001211E
:10582000014800F035F810BD0004004003000020DE
:105830007FB505460C4601210220FFF785FEADF835
:105840000850ADF804400020ADF80A00ADF806009D
:1058500001A90E4800F046F8012211460B4800F05D
:1058600037F81D208DF8000000208DF8010003207E
:105870008DF8020001208DF803006846FFF71EFE38
:105880000121024800F007F87FBD0000000400403D
:10589000CA430282704721B1028842F001020280AD
:1058A00004E002884FF6FE731A400280704730B55C
:1058B0000246002000230024158A05EA0103958989
:1058C00005EA010413B10CB1012000E0002030BD55
:1058D0001AB183890B43838102E083898B438381DF
:1058E00070470000002202881D4B98420ED01D4BCD
:1058F00098420BD0B0F1804F08D01B4B984205D096
:105900001A4B984202D01A4B984204D14FF68F732B
:105910001A404B881A43174B984207D0164B9842AF
:1059200004D04FF6FF431A40CB881A4302808B887D
:1059300083850B8803850A4B98420BD0094B98420C
:1059400008D00E4B984205D00D4B984202D00D4B1B
:10595000984201D10B7A03860123838270470000AD
:10596000002C0140003401400004004000080040C9
:10597000000C0040001000400014004000400140B6
:10598000004401400048014010B540F225517048E4
:1059900000F064F9002873D06D4800F01BFAC4B21F
:1059A00021466CA0FAF73CFC6B48007820B1012836
:1059B0000CD0022820D113E0722C03D101206649BB
:1059C000087002E000206449087015E0652C03D1DE
:1059D00002206149087002E000205F4908700BE076
:1059E000642C05D100205C4908705C49086002E025
:1059F00000205949087000BF00BF594800780528A9
:105A000038D2DFE800F0030D17212B00672C03D1FB
:105A100001205349087002E000205149087029E034
:105A2000722C03D102204E49087002E000204C493C
:105A300008701FE0652C03D103204949087002E07B
:105A400000204749087015E0652C03D10420444923
:105A5000087002E00020424908700BE06E2C05D16E
:105A600000203F4908703F49086002E000203C499F
:105A7000087000BF00BF3C48007805283ED200E017
:105A800065E0DFE800F0030D17212B00622C03D145
:105A900001203549087002E00020334908702DE0EC
:105AA0006C2C03D102203049087002E000202E49FE
:105AB000087023E0612C03D103202B49087002E019
:105AC00000202949087019E0632C03D104202649DD
:105AD000087002E00020244908700FE06B2C09D107
