:020000040800F2
:10000000A84C0020610B0008F9050008FB0500085A
:10001000FF050008030600080706000800000000AE
:10002000000000000000000000000000E1010008E6
:100030000D0600080000000025020008D126000877
:100040007B0B00087B0B00087B0B00087B0B000878
:100050007B0B00087B0B00087B0B00087B0B000868
:100060007B0B00087B0B00087B0B00087B0B000858
:100070007B0B00087B0B00087B0B00087B0B000848
:100080007B0B00087B0B00087B0B00087B0B000838
:100090007B0B00087B0B00087B0B00087B0B000828
:1000A0007B0B00087B0B00087B0B00087B0B000818
:1000B0007B0B0008830400087B0B00087B0B000807
:1000C0007B0B00087B0B00087B0B00087B0B0008F8
:1000D0007B0B0008D50A00087B0B00087B0B00088F
:1000E0007B0B00087B0B00087B0B00087B0B0008D8
:1000F0007B0B00087B0B00087B0B00087B0B0008C8
:100100007B0B00087B0B00087B0B00087B0B0008B7
:100110007B0B00087B0B00087B0B00087B0B0008A7
:100120007B0B00087B0B00087B0B00087B0B000897
:1001300000F002F800F045F80AA090E8000C8244B4
:100140008344AAF10107DA4501D100F03AF8AFF291
:10015000090EBAE80F0013F0010F18BFFB1A43F0A5
:10016000010318475845000078450000103A24BFA5
:1001700078C878C1FAD8520724BF30C830C144BF0C
:1001800004680C607047000000230024002500264E
:10019000103A28BF78C1FBD8520728BF30C148BFEA
:1001A0000B607047642903F07D87752903F07A8717
:1001B000732904F0FA80002070471FB51FBD10B5E9
:1001C00010BD04F0A0F91146FFF7F7FF00F0E6F8C4
:1001D00004F0BEF903B4FFF7F2FF03BC00F012FC19
:1001E000204B19680868B0E8F00F80F30988BFF366
:1001F0006F8F4FF0000080F311884EF00D0E7047A6
:100200000000000006480068006880F3088862B6B5
:1002100061B6BFF34F8FBFF36F8F00DF00BF00BF2A
:1002200008ED00E0EFF30980BFF36F8F0D4B1A6804
:1002300020E9F00F106008B54FF4007080F31188CA
:1002400003F0CDF84FF0000080F31188BDE80840BE
:1002500019680868B0E8F00F80F30988BFF36F8F62
:10026000704700BF68000020EFF311804FF4007169
:1002700081F31188704780F311887047EFF3058090
:100280007047000010B500F0B3FA00F078FB4FF4AF
:10029000E13000F0D0FB00F0AFFB10BD00260024E1
:1002A00000252BE000F00BFB00F0EAFA060022D05C
:1002B000012E04D0022E15D0032E1BD116E083A0F0
:1002C00003F0BAFE002407E0294683A003F0B4FE41
:1002D000681CC5B2601CC4B2052CF5DB7FA003F01E
:1002E000ABFE07E07EA003F0A7FE03E082A003F0D0
:1002F000A3FE00BF00BF012002F0C0FFD2E7002430
:1003000011E00CB9012000E000200446012803D1CF
:1003100000207F49086002E001207D4908604FF01D
:10032000640002F0ABFFECE708B50AE000235A1EB8
:1003300069467848006802F0F3FB77A0009903F063
:100340007BFEF3E7044625460BE0744800EB85018D
:1003500000231A466F48006802F0BAFA642002F0DF
:100360008DFFF2E705E06EA003F066FE642002F068
:1003700085FFF8E770B504460D4671A003F05CFEFA
:1003800070BD0AE07349086803F0C7FA0146724875
:1003900003F052FE322002F071FFF3E71FB5FFF7C2
:1003A00071FF6EA003F048FE00220421052002F038
:1003B000DEF95849086008460068002843D000204C
:1003C0000123CDE900300290034680226AA1039008
:1003D000AFF28F0002F01DFD00200223CDE90030B6
:1003E00002900123802269A10390AFF2A70002F0DE
:1003F00010FD00200090019002900346802263A12E
:100400000390AFF2DB0002F004FD0020514A032309
:10041000CDE90120009303900346802260A1AFF252
:10042000BB0002F0F6FC00200323CDE9003002906F
:10043000034680225FA10390AFF2B90002F0E9FC0D
:1004400003F03CF902E060A003F0F6FD002004B0E8
:1004500010BD08B50020009062480068401C61494A
:1004600008600846006864280ADB01236A462B49B5
:1004700008312848006802F0CFFA00205949086086
:1004800008BD10B50121584802F005F8E8B1012176
:10049000554802F011F855480068401C534908605F
:1004A000642812DB002008605148007808B9012058
:1004B00000E000204E490870012803D100204D497A
:1004C000086002E001204B49086010BD73656E644E
:1004D00020496E743A200000256420000D0A0000B7
:1004E0006C6F6E67206669727374207072657373C7
:1004F0006564200D0A0000006C6F6E6720616674F1
:1005000065722070726573736564200D0A000000C7
:10051000888122421800002025730000000000207E
:1005200063616C6C2066756E6374696F6E3A2070DF
:1005300072696E745F7465737428290A0000000084
:10054000737461636B206F766572666C6F77200DD4
:100550000A0000001C00002064450008626F617200
:100560006420696E697469616C697A652066696E78
:100570006973682E200D0A005072696E7453726997
:100580006E675F5461736B31000000005072696EDA
:10059000745372696E675F5461736B3200000000C0
:1005A0007072696E74665F746573745F7461736B87
:1005B00000000000646574656374537461636B5F6D
:1005C0007461736B0000000073656D6170686F7219
:1005D0006520637265617465206661696C6564207D
:1005E0000D0A00000C000020000400401400002050
:1005F00010000020A0012142704700BFFEE700BFAD
:10060000FEE700BFFEE700BFFEE770477047704798
:10061000704700000CB50020019000906B48006806
:1006200040F480306949086000BF6848006800F401
:10063000003000900198401C0190009818B9019872
:10064000B0F5A06FF1D16148006810F4003F02D00E
:100650000120009001E0002000900098012842D184
:100660005B48006840F0100059490860084600687F
:1006700020F0030008600846006840F002000860AF
:1006800052484068514948600846406848600846FA
:10069000406840F4806048600846406820F47C1060
:1006A00048600846406840F4E81048600846006822
:1006B00040F08070086000BF4448006810F0007F80
:1006C000FAD04248406820F003004049486008469C
:1006D000406840F00200486000BF3C48406800F0BD
:1006E0000C000828F9D10CBD10B5FFF793FF10BD21
:1006F00010B53648006840F00100344908600846EB
:100700004068344908403149486008460068324929
:1007100008402E4908600846006820F480200860E0
:100720000846406820F4FE0048604FF41F008860CF
:10073000FFF7DAFF4FF000602849086010BD10B5E0
:10074000002100200022214B5B6803F00C0121B145
:10075000042906D0082928D107E0214B214C236029
:1007600027E01F4B1F4C236023E0184B5B6803F40A
:100770007010164B5B6803F48032022303EB904049
:1007800022B9194B4343174C23600DE00F4B5B68B4
:1007900013F4003F04D0144B4343124C236003E096
:1007A0000F4B43430F4C236003E00D4B0D4C236074
:1007B00000BF00BF054B5B68C3F303130B4CE15C48
:1007C000084B1B68CB40074C236010BD0010024053
:1007D000002002400000FFF8FFFFF6FE08ED00E0F9
:1007E00000127A002000002000093D0024000020B3
:1007F00008B50121242000F0E9FC4FF48070ADF829
:10080000000010208DF8030003208DF802006946D7
:10081000094800F025FA4FF48071074800F0CBFA40
:100820000420ADF800006946044800F019FA0421DC
:10083000024800F0C0FA08BD000801400014014061
:1008400010B5044662480078042800DB10BD01F0B2
:1008500025FF5F480078401C5D4908705D485E498F
:10086000097844545C480078401CC0B25A4908706A
:10087000042801DB0020087001F01DFF00BFE5E740
:1008800010B55348007808B9002010BD01F006FFEC
:100890004F480078401E4E4908704E484F4909782D
:1008A000445C4E480078401CC0B24C490870042893
:1008B00001DB0020087001F0FEFE2046E5E710B5E0
:1008C00047480078022805D146480068401C454941
:1008D000086002E000204349086041480078012890
:1008E00005D141480068401C3F49086002E00020F3
:1008F0003D4908603A48007820B101280FD002280D
:100900003BD126E02021394800F03BFA18B90120FC
:100910003349087002E00020314908702DE02021A1
:10092000324800F02EFA30B10120FFF789FF002095
:100930002B4908700CE02C480068C82808D3002018
:10094000294908600220FFF77BFF02202449087034
:1009500013E02021254800F014FA18B100202049A6
:10096000087009E01F480068192805D300201D49B8
:1009700008600320FFF764FF00BF00BF10BD08B58B
:100980000121142000F022FC0121194800F037FA5F
:100990004FF40040ADF8000048208DF80300694690
:1009A000144800F05DF92020ADF8000048208DF8D3
:1009B000030069460D4800F053F90120ADF800002E
:1009C00028208DF8030069460A4800F049F908BD5F
:1009D0003A000020340000203800002039000020B8
:1009E000440000203C000020400000200010014096
:1009F000000230000008014010B54FF4A06001F083
:100A00005FFD10BD014600BF704700BF504A12880D
:100A100012F0400FFAD0C2B24D4B1B1D1A80704726
:100A200000BF4B49098811F0400FFAD0C1B2484AC3
:100A3000121D1180704710B586B00446012144F2A2
:100A4000040000F0C3FB424800F028FC4FF40070A3
:100A5000ADF8140003208DF8160018208DF817004B
:100A600005A93C4800F0FCF84FF48060ADF8140094
:100A700004208DF8170005A9364800F0F1F825206C
:100A80008DF8000003208DF801008DF80200012090
:100A90008DF80300684601F018FD01940020ADF8C0
:100AA0000800ADF80A00ADF80C00ADF810000C20FD
:100AB000ADF80E0001A9264800F033FC012240F2F7
:100AC0002551234800F0C5FC0121214800F0B5FC68
:100AD00006B010BD10B540F225511D4800F09EFD36
:100AE00010B31B4800F01AFDC4B21B48008810F474
:100AF000004F2BD11848008810F4804F0CD00A2CDE
:100B000003D000201449088020E01348008840F4F6
:100B100000401149088019E00D2C06D10E480088CC
:100B200040F480400C49088010E00B480088C0F376
:100B30000D000A490C5408480088401C06490880EA
:100B400008460088C72801DD0020088010BD00008D
:100B5000003801400008014048000020B800002093
:100B60000948804709480047FEE7FEE7FEE7FEE741
:100B7000FEE7FEE7FEE7FEE7FEE7FEE7044805497D
:100B8000054A064B70470000F106000831010008D5
:100B9000A8460020A84C0020A8480020A848002013
:100BA00010B50446CA48844208D10121042000F04F
:100BB00027FB0021042000F023FB46E0C5488442C7
:100BC00008D10121082000F01BFB0021082000F0C3
:100BD00017FB3AE0C048844208D10121102000F000
:100BE0000FFB0021102000F00BFB2EE0BB488442DD
:100BF00008D10121202000F003FB0021202000F07B
:100C0000FFFA22E0B648844208D10121402000F0DA
:100C1000F7FA0021402000F0F3FA16E0B1488442D0
:100C200008D10121802000F0EBFA0021802000F0A3
:100C3000E7FA0AE0AC48844207D10121801500F0B0
:100C4000DFFA0021A01500F0DBFA10BD10B501217C
:100C5000084600F0D5FA0021012000F0D1FA10BDBD
:100C60002DE9F04102460025002600200023002443
:100C7000002791F803C00CF00F0591F803C01CF099
:100C8000100F03D091F802C04CEA050591F800C09E
:100C9000BCF1000F31D0146800202BE04FF0010CA4
:100CA0000CFA00F3B1F800C00CEA03069E4220D112
:100CB00083004FF00F0C0CFA03F7BC4305FA03FC5A
:100CC0004CEA040491F803C0BCF1280F06D14FF0A0
:100CD000010C0CFA00FCC2F814C00AE091F803C041
:100CE000BCF1480F05D14FF0010C0CFA00FCC2F822
:100CF00010C0401C0828D1D31460B1F800C0BCF16A
:100D0000FF0F34DD546800202EE000F1080C4FF096
:100D1000010808FA0CF3B1F800C00CEA03069E4281
:100D200021D183004FF00F0C0CFA03F7BC4305FAF6
:100D300003FC4CEA040491F803C0BCF1280F05D170
:100D400000F1080C08FA0CF8C2F8148091F803C0FE
:100D5000BCF1480F07D100F1080C4FF0010808FA68
:100D60000CF8C2F81080401C0828CED35460BDE8AF
:100D7000F0814FF6FF710180022181700421C17062
:100D800070470246002093680B4201D0012000E02A
:100D9000002070470146886880B2704702460020F4
:100DA000D3680B4201D0012000E0002070470146CB
:100DB000C86880B2704701617047416170470AB1ED
:100DC000016100E041617047C16070474FF48032BB
:100DD0000A43826181618261826982697047024649
:100DE0000020424B18684FF68073184040EA02100A
:100DF00008433E4B186070473D49C8617047F0B5E5
:100E00000A46002300240021002500F00046B6F128
:100E1000004F02D1354EF16901E0344E7168C0F3E4
:100E2000034583B200F44016B6F5401F08D121F007
:100E300070612E4E766826F070662C4F7E6012E050
:100E400000F48016B6F5801F06D1032606FA05F4D5
:100E5000A14341F0706106E0460D360103FA06F643
:100E6000B14341F0706122B1460D360103FA06F636
:100E7000314300F00046B6F1004F02D11B4EF16144
:100E800001E01A4E7160F0BD30B500228B071C0FD7
:100E90000F2303FA04F2154B08338C1053F8243057
:100EA0009343124C08348D1044F8253023468C109F
:100EB00053F824308C07240F00FA04F423430B4C1E
:100EC00008348D1044F8253030BD0A490860704759
:100ED00000080140000C01400010014000140140D6
:100EE00000180140001C01400020014000000140AA
:100EF00000002042DC002042DD48006840F0010094
:100F0000DB49086008464068DA490840D84948602B
:100F100008460068D8490840D54908600846006876
:100F200020F4802008600846406820F4FE004860F5
:100F30004FF41F0088607047CD49096821F4803163
:100F4000CB4A11601146096821F480211160B0F587
:100F5000803F03D0B0F5802F0ED106E0C449096868
:100F600041F48031C24A116007E0C149096841F487
:100F7000A021BF4A116000E000BF00BF704710B55C
:100F800001460022002300204A11012A02D1B84C58
:100F9000236806E0022A02D1B54C236A01E0B44C72
:100FA000636A01F01F02012494401C4201D0012019
:100FB00000E0002010BD38B500200090002400257E
:100FC00000BF3120FFF7DBFF05460098401C009072
:100FD0000098B0F5A06F01D0002DF2D03120FFF7BE
:100FE000CEFF08B1012400E00024204638BD0146B0
:100FF00000209F4A106820F0F80040EAC10010600D
:1010000070479E490860704702460020984B586818
:1010100020F47C1042EA01031843954B5860704756
:1010200096490866704701460020914A506820F0B2
:1010300003000843506070478D48406800F00C0082
:101040007047014600208A4A506820F0F0000843AB
:101050005060704701460020854A506820F4E060E7
:1010600008435060704701460020814A506820F4D0
:10107000605040EAC1005060704729B17C4A527A02
:1010800002437B4B5A7204E0794A527A8243784B8E
:101090005A7270477A490860704701460020744AC6
:1010A000506820F440400843506070470021754A62
:1010B00011706F4A82F82010012802D0042808D14C
:1010C00003E001216F4A117004E005216D4A11709F
:1010D00000E000BF00BF70476B490860704764497B
:1010E000096A0143624A11627047674944390860DE
:1010F000704730B500210022002400235C4D6D684C
:1011000005F00C0121B1042905D0082923D105E0FF
:101110005E4D056022E05D4D05601FE0544D6D6839
:1011200005F47012524D6D6805F48034022505EB0C
:1011300092421CB9564D554305600BE04C4D6D680D
:1011400015F4003F03D0524D5543056002E04F4D6A
:101150005543056002E04D4D056000BF00BF444DA2
:101160006D6805F0F00109094A4D6B5C0568DD40CA
:1011700045603F4D6D6805F4E061090A454D6B5CC3
:101180004568DD4085603A4D6D6805F46051C90AD7
:10119000404D6B5C4568DD40C560354D6D6805F4BC
:1011A0004041890B3C4D6B5CC568B5FBF3F50561AF
:1011B00030BD29B12E4A526902432D4B5A6104E0D9
:1011C0002B4A526982432A4B5A61704729B1284AF7
:1011D00092690243264B9A6104E0254A9269824350
:1011E000234B9A61704729B1214AD2690243204BAF
:1011F000DA6104E01E4AD26982431D4BDA6170470E
:1012000029B11B4AD2680243194BDA6004E0184A3C
:10121000D2688243164BDA60704729B1144A1269CA
:101220000243134B1A6104E0114A12698243104BC6
:101230001A61704714494039086070470F49C86403
:1012400070470B49C87170470948406A40F0807088
:1012500007494862704701460020054A92680A42E1
:1012600001D0012000E000207047014988727047DA
:10127000001002400000FFF8FFFFF6FE00004242AF
:10128000D8004242201002408004424200127A00FC
:1012900000093D00500000206000002010B5044609
:1012A000FB48844209D101218803FFF7A9FF0021EF
:1012B0004FF48040FFF7A4FF32E0F648844209D1A2
:1012C00001214804FFF7A9FF00214FF40030FFF788
:1012D000A4FF25E0F048844209D101218804FFF7EA
:1012E0009CFF00214FF48020FFF797FF18E0EB48A8
:1012F000844209D10121C804FFF78FFF00214FF478
:101300000020FFF78AFF0BE0E548844208D1012165
:101310000805FFF782FF00214FF48010FFF77DFFE3
:1013200010BD2DE9F04786B005460E460024A246C2
:1013300000BFA1460027B08900B100BF2F462C8A0C
:101340004CF6FF700440F08804432C82AC894EF6C2
:10135000F3100440B088318908437189084304437D
:10136000AC81AC8A4FF6FF400440B0890443AC82A4
:1013700001A8FFF7BEFEC648874202D1DDF810A0E3
:1013800001E0DDF80CA0A88910F4004F08D00AEBAA
:10139000CA0000EB0A1031684900B0FBF1F807E021
:1013A0000AEBCA0000EB0A1031688900B0FBF1F8C3
:1013B0006420B8FBF0F004012009642101FB1089CE
:1013C000A88910F4004F08D0322000EBC900B0FB10
:1013D000F1F000F00700044308E0322000EB0910B0
:1013E0006421B0FBF1F000F00F0004432C8106B043
:1013F000BDE8F0874FF41651016000218180C18063
:1014000001810C21418100218181704710B5024684
:101410000020108A4FF2FF0318400B884C882343AA
:101420008C882343CC8823431843108210BD0021AD
:10143000018041808180C180704721B1828942F45E
:101440000052828104E082894DF6FF731A40828146
:101450007047F0B503460024002600250020A1F5C2
:1014600010676A3F00D100BF1846C1F3421401F073
:101470001F06012707FA06F5012C01D10C3004E004
:10148000022C01D1103000E014301AB107682F434C
:10149000076002E00768AF430760F0BD1AB1838AB6
:1014A0000B43838202E0838A8B4383827047028AE4
:1014B0004FF6F0731A400282028A0A430282704792
:1014C00082894FF2FF731A40828182890A438281A6
:1014D000704721B1828942F00202828104E0828950
:1014E0004FF6FD731A4082817047028A4FF6DF7310
:1014F0001A400282028A0A430282704721B1028A9C
:1015000042F48042028204E0028A4BF6FF731A40E2
:1015100002827047C1F308028280704701468888C2
:10152000C0F308007047818941F001018181704753
:10153000028BD2B20283028B42EA012202837047FD
:10154000028B02F47F420283028B0A4302837047BC
:1015500021B1828A42F02002828204E0828A4FF620
:10156000DF731A408282704721B1828A42F01002F2
:10157000828204E0828A4FF6EF731A4082827047BB
:1015800021B1828A42F00802828204E0828A4FF608
:10159000F7731A408282704721B1828942F4004277
:1015A000828103E08289C2F30E028281704721B1F9
:1015B000828A42F40062828204E0828A4FF2FF73E0
:1015C0001A4082827047828A4FF6FB731A408282E9
:1015D000828A0A438282704721B1828A42F00202E3
:1015E000828204E0828A4FF6FD731A40828270473D
:1015F00002460020B1F5007F00D100BF13880B42E6
:1016000001D0012000E00020704701F40072B2F523
:10161000007F00D100BFCA430280704770B5024608
:101620000024002300250020A1F510666A3E00D1A9
:1016300000BFC1F3421501F01F03012606FA03F3B0
:10164000012D02D19689334006E0022D02D1168A7F
:10165000334001E0968A33400C12012606FA04F466
:101660001688344013B10CB1012000E0002070BD99
:1016700010B500220023A1F510646A3C00D100BF20
:101680000A1201249440A3B2DC43048010BD000080
:10169000003801400044004000480040004C004039
:1016A0000050004010B50446FE48844208D1012194
:1016B000C014FFF7A5FD0021E014FFF7A1FDC4E071
:1016C000B4F1804F08D101210846FFF7A6FD0021A3
:1016D0000120FFF7A2FDB8E0F348844208D10121C0
:1016E0000220FFF79AFD00210220FFF796FDACE0F3
:1016F000EE48844208D101210420FFF78EFD00212D
:101700000420FFF78AFDA0E0E948844208D10121C6
:101710000820FFF782FD00210820FFF77EFD94E0FE
:10172000E448844208D101211020FFF776FD002112
:101730001020FFF772FD88E0DF48844208D10121C4
:101740002020FFF76AFD00212020FFF766FD7CE0E6
:10175000DA48844208D101214014FFF751FD0021ED
:101760006014FFF74DFD70E0D548844209D1012196
:10177000C804FFF745FD00214FF40020FFF740FDAE
:1017800063E0D048844209D101210805FFF738FD04
:1017900000214FF48010FFF733FD56E0CA48844221
:1017A00009D101214805FFF72BFD00214FF400105E
:1017B000FFF726FD49E0C548844208D101214020B9
:1017C000FFF72BFD00214020FFF727FD3DE0C0483B
:1017D000844208D101218020FFF71FFD00218020D5
:1017E000FFF71BFD31E0BB48844208D10121801581
:1017F000FFF713FD0021A015FFF70FFD25E0B64808
:10180000844209D101210804FFF7FAFC00214FF4BA
:101810008030FFF7F5FC18E0B048844209D101217F
:101820004804FFF7EDFC00214FF40030FFF7E8FC1F
:101830000BE0AB48844208D101218804FFF7E0FCAB
:1018400000214FF48020FFF7DBFC10BD002202884E
:10185000944B98420ED0994B98420BD0B0F1804FE8
:1018600008D0914B984205D0904B984202D0904BB3
:10187000984204D14FF68F731A404B881A438D4B10
:10188000984207D08C4B984204D04FF6FF431A4041
:10189000CB881A4302808B8883850B880385814B14
:1018A00098420BD0854B984208D08B4B984205D07C
:1018B0008A4B984202D08A4B984201D10B7A038618
:1018C00001238382704770B5002400220023058C19
:1018D0004FF6FE7635400584028C8388048B4FF6E4
:1018E0008F752C40B51E2C400D882C43751E2A4048
:1018F0000D892A434D882A436A4DA8420BD06F4D6B
:10190000A84208D0744DA84205D0744DA84202D018
:10191000734DA84213D14FF6F7752A404D892A43DB
:101920004FF6FB752A408D882A434FF6FF652B4002
:101930004FF6FF552B408D892B43CD892B43838058
:101940000483CD888586028470BD70B50024002292
:101950000023058C4FF6EF7635400584028C838892
:10196000048B48F6FF752C404FF6FF452C400D8840
:101970004FF6FF7606EA05252C434FF6DF752A4021
:101980000D8906EA05152A434D8806EA05152A43FE
:10199000444DA84202D0494DA8421DD14FF67F7553
:1019A0002A404D894FF6FF7606EA05152A434FF681
:1019B000BF752A408D8806EA05152A434FF6FF3584
:1019C0002B404FF2FF752B408D8906EA85052B438E
:1019D000CD8906EA85052B4383800483CD8805875E
:1019E000028470BD70B5002400220023058C4FF6E0
:1019F000FF6635400584028C8388848B4FF68F7593
:101A00002C404FF6FC752C400D882C434FF6FF55AB
:101A10002A400D894FF6FF7606EA05252A434D88B0
:101A200006EA05252A431F4DA84202D0234DA842AD
:101A30001DD14FF2FF752A404D894FF6FF7606EA19
:101A400005252A434FF6FF352A408D8806EA0525ED
:101A50002A434EF6FF752B404DF6FF752B408D89BE
:101A600006EA05152B43CD8906EA05152B4383802D
:101A70008483CD888587028470BD70B500220023E1
:101A80000024058C4EF6FF7635400584038C84884F
:101A9000828B48F6FF752A404FF6FF452A400D8895
:101AA00020E00000002C014000040040000800403D
:101AB000000C0040001000400014004000340140C1
:101AC000004C01400050014000540140001800400B
:101AD000001C004000200040004001400044014044
:101AE000004801404FF6FF7606EA05252A434DF6E9
:101AF000FF752B400D8906EA05352B434D8806EA14
:101B000005352B43FA4DA84202D0FA4DA84208D120
:101B10004BF6FF752C408D894FF6FF7606EA85154A
:101B20002C4384808283CD88A0F84050038470BD0C
:101B3000828B4FF2FF331A408283828B4FF6FF7302
:101B400003EA01231A4382837047F0B50C46154619
:101B5000002200210026078C4EF6FF7C07EA0C07C6
:101B60000784828B018C4FF6FF7707EA043640F634
:101B7000FF473A404FF6FF7707EA05273A434FF60B
:101B8000FF7707EA03373A43D94FB8420ED0D94F0F
:101B9000B8420BD0B0F1804F08D0D74FB84205D033
:101BA000D64FB84202D0D64FB84206D14DF6FF7795
:101BB000394046F48057394305E047F6FF5739402E
:101BC00044F48057394382830184F0BD828B4FF601
:101BD000F3731A408283828B0A4382837047F0B585
:101BE0000C461546002200210026078C4FF6FF6C9C
:101BF00007EA0C070784828B018C4FF6FF7707EA10
:101C000004264FF60C773A404FF6FF7707EA0317A2
:101C10002F433A43B64FB8420ED0B64FB8420BD01E
:101C2000B0F1804F08D0B44FB84205D0B34FB8429E
:101C300002D0B34FB84206D14FF6FF57394046F4B1
:101C40008077394305E04FF2FF57394044F48077FD
:101C5000394382830184F0BD028B4FF2FF331A4077
:101C60000283028B4FF6FF7303EA01231A430283B8
:101C70007047F0B50C461546002200210026078C5F
:101C80004FF6EF7C07EA0C070784028B018C4FF6B6
:101C9000FF7707EA041640F6FF473A404FF6FF7712
:101CA00007EA03373A434FF6FF7707EA05273A4337
:101CB0008F4FB8420ED08F4FB8420BD0B0F1804F4B
:101CC00008D08D4FB84205D08C4FB84202D08C4F0F
:101CD000B84206D14FF6DF77394046F01007394356
:101CE00005E04FF65F77394044F01007394302832F
:101CF0000184F0BD028B4FF6F3731A400283028B0E
:101D00000A4302837047F0B50C46154600220021B5
:101D1000068C4FF6FE773E400684028B018C4FF610
:101D20000C7632407E1C06EA03162E433243704E78
:101D3000B0420ED06F4EB0420BD0B0F1804F08D001
:101D40006D4EB04205D06D4EB04202D06C4EB042E6
:101D500006D14FF6FD76314044F00106314305E0EF
:101D60004FF6F576314044F0010631430283018499
:101D7000F0BD70B505460C465D4885420ED05D4805
:101D800085420BD0B5F1804F08D05B48854205D025
:101D90005A48854202D05A48854200D100E000BF2F
:101DA000208850B92389A28861882846FFF7ABFFB5
:101DB000E1882846FFF79EFF25E0208804280AD105
:101DC0002389A28861882846FFF753FFE1882846C7
:101DD000FFF742FF17E0208808280AD12389A2884C
:101DE00061882846FFF7FBFEE1882846FFF7EEFEF4
:101DF00009E02389A28861882846FFF7A6FEE188CA
:101E00002846FFF795FE70BD2DE9F04105460C46CA
:101E100000260127608808B9022600E00026A08875
:101E2000012801D1022700E001272088A0B92389D9
:101E3000A28861882846FFF766FFE1882846FFF7F9
:101E400059FF23893A4631462846FFF712FFE188B9
:101E50002846FFF701FF13E02389A28861882846FE
:101E6000FFF707FFE1882846FFF7F6FE23893A4689
:101E700031462846FFF747FFE1882846FFF73AFF3B
:101E8000BDE8F0810A884B881A438B881A43CB88B7
:101E90001A430B891A434B891A438B891A43A0F8BA
:101EA000442070474FF6FF71818000210180C1807E
:101EB0004180017270470021018041808180C18092
:101EC000018141818181C181704700210180418070
:101ED000012181800021C1800181704700210180A2
:101EE00041808180C18001814181818170470000F2
:101EF000002C014000340140000400400008004074
:101F0000000C004021B1028842F00102028004E08E
:101F100002884FF6FE731A400280704731B1B0F864
:101F2000442042F40042A0F8442005E0B0F84420E8
:101F3000C2F30E02A0F8442070471AB183890B4304
:101F4000838102E083898B4383817047818270475C
:101F500041EA0203A0F8483070471AB183890B4365
:101F6000838102E083898B438381704701894FF627
:101F7000F8721140018170470A46002101894FF62D
:101F80008F73194011430181704730B504460D46E7
:101F900029462046FFF7F0FF208940F00700208106
:101FA00030BD2DE9F04104460D4616461F46602D12
:101FB00006D13B46012231462046FFF75AFE05E096
:101FC0003B46012231462046FFF79DFE294620462A
:101FD000FFF7D2FF208940F007002081BDE8F081A3
:101FE00030B50C4600210189C9B24FF6FF7505EAEC
:101FF0000325154325432943018130BD2DE9F041D7
:1020000005460E4617469846002443463A46314652
:102010002846FFF7E5FF2C894FF6F870044044F09E
:1020200007044FF68F70044044F070042C81BDE823
:10203000F081F0B504460D4616461F463B46324633
:1020400029462046FFF7CCFF208940F480402081BC
:10205000F0BD0185828270470A46002101884FF653
:102060008F731940114301807047F0B50C46154637
:102070001E460021002200230189028B038C4FF6AB
:10208000F877394021434FF6FC473A4040F20117B8
:102090003A434FF6DD773B404FF6FF7707EA0617E6
:1020A0002F433B43018102830384F0BD0A46002194
:1020B000018B4FF68F7319401143018370470A4615
:1020C0000021018B48F6FF7319404FF6FF7303EAB6
:1020D00002231943018370470A460021818B4FF682
:1020E0008F7319401143818370470A460021818B09
:1020F00048F6FF7319404FF6FF7303EA02231943B2
:102100008183704721B1028842F08002028004E09E
:1021100002884FF67F731A400280704721B182888F
:1021200042F00402828004E082884FF6FB731A407A
:102130008280704721B1828842F00802828004E0E8
:1021400082884FF6F7731A408280704721B18288E7
:1021500042F00102828004E082884FF6FE731A404A
:10216000828070470A460021018B4FF6F7731940B1
:102170001143018370470A460021018B4FF2FF7320
:1021800019404FF6FF7303EA022319430183704796
:102190000A460021818B4FF6F77319401143818362
:1021A00070470A460021818B4FF2FF7319404FF6AA
:1021B000FF7303EA02231943818370470A46002113
:1021C000018B4FF6FB7319401143018370470A4698
:1021D0000021018B4FF6FF3319404FF6FF7303EADE
:1021E00002231943018370470A460021818B4FF671
:1021F000FB7319401143818370470A460021818B8C
:102200004FF6FF3319404FF6FF7303EA02231943D9
:10221000818370470A460021018B4FF67F73194076
:102220001143018370470A460021018BC1F30E015F
:102230004FF6FF7303EA02231943018370470A46EE
:102240000021818B4FF67F731940114381837047C2
:102250000A460021818BC1F30E014FF6FF7303EA9A
:1022600002231943818370470A460021018C4FF6EF
:10227000FD7319401143018470470A460021018C07
:102280004FF6F77319401143018470470A46002145
:10229000018C4FF6DF7319404FF6FF7303EA021308
:1022A0001943018470470A460021018C4FF67F7361
:1022B00019404FF6FF7303EA021319430184704774
:1022C0000A460021018C4FF6FF5319404FF6FF7369
:1022D00003EA02231943018470470A460021018C56
:1022E0004FF2FF7319404FF6FF7303EA02231943BD
:1022F000018470470A460021018C4DF6FF73194096
:102300004FF6FF7303EA023319430184704730B577
:10231000002301248C40A3B2048C9C430484048CCD
:1023200002FA01F5ADB22C43048430BD30B5002370
:1023300004248C40A3B2048C9C430484048C02FAD1
:1023400001F5ADB22C43048430BD70B503460020C6
:1023500000241846183001258D40ACB21D8CA543D1
:102360001D8409B1082909D100EB6100056825F039
:10237000700505600568154305600EE00D1FC5F387
:102380004E052844056825F4E045056005684FF6CC
:10239000FF7606EA02263543056070BD21B102884A
:1023A00042F00202028004E002884FF6FD731A40F8
:1023B0000280704721B1028842F00402028004E0EA
:1023C00002884FF6FB731A400280704721B1828861
:1023D00042F08002828004E082884FF67F731A40C8
:1023E0008280704702884FF6F7731A400280028895
:1023F0000A430280704782884FF68F731A408280AA
:1024000082880A438280704702894FF6F8731A4027
:10241000028102890A430281704702894FF67F7365
:102420001A40028102890A43028170478184704701
:102430008185704781867047018770478187704723
:10244000A0F84010704702884FF6FF431A40028000
:1024500002880A43028070470146888E7047014611
:10246000088F70470146888F70470146B1F84000D9
:1024700070470146888C70470146088D70470246B8
:102480000020138A0B4201D0012000E00020704799
:10249000CA430282704730B5024600200023002460
:1024A000158A05EA0103958905EA010413B10CB107
:1024B000012000E0002030BDCA43028270470000C6
:1024C00031490143314A1160704770B50021002342
:1024D0000F22C4780CB32D4C246804F4E064C4F5D6
:1024E000E064210AC1F10403CA40447804FA03F10C
:1024F0008478144021430901254C0678A1550478BD
:1025000004F01F050124AC4005786D114FF0E02662
:1025100006EB8505C5F8004109E0047804F01F05C5
:102520000124AC401B4D0678761145F8264070BD5D
:10253000194A0A400243154B1B1F1A60704739B1F4
:10254000124A121D12680243104B1B1D1A6006E04E
:102550000E4A121D126882430C4B1B1D1A607047F5
:10256000042808D14FF0E021096941F004014FF03F
:10257000E022116107E04FF0E021096921F0040138
:102580004FF0E022116170470000FA050CED00E009
:1025900000E400E080E100E080FFFF1F00F108019F
:1025A00041604FF0FF31816000F10801C1600161BD
:1025B00000210160704700210161704742684A6054
:1025C00093688B60936859609160086103685B1C35
:1025D0000360704710B502460B685C1C01D110699E
:1025E00007E002F1080000E04068446824689C426B
:1025F000FAD944684C604C68A160886041600A6107
:102600001468641C146010BD01460A69D1E90130E8
:102610009860D1E9010358605068884201D1886808
:102620005060002008611068401E106010687047FC
:10263000FDF71AFE00BFFEE7001F4FF08073036036
:10264000001F0160001F2A4B03601438026020380D
:10265000704728484FF0E021486107200861704723
:1026600010B52548006840F07060234908600846AE
:1026700000680860FFF7EDFF002020490860FDF7C3
:10268000C1FD002010BD70474FF080501A491C3921
:102690000860BFF34F8FBFF36F8F704710B5FDF722
:1026A000E3FD16480068401C14490860BFF34F8FD3
:1026B000BFF36F8F10BD10B510480068401E0F4962
:1026C00008600846006810B90020FDF7D4FD10BD71
:1026D00010B5FDF7C9FD00F067FC20B14FF0805048
:1026E00005491C3908600020FDF7C5FD10BD00003C
:1026F000312600087FFC0A0020ED00E06400002085
:1027000070B505460E462C46FFF7C8FFD4E90F12F8
:10271000206801FB020060600020A0632068A060C8
:10272000E06B401E226C216800FB0210E0604FF05D
:10273000FF306064A06476B9206908B9012000E028
:10274000002080B904F1100001F044F801280AD1FA
:10275000FFF79AFF07E004F11000FFF71FFF04F1F5
:102760002400FFF71BFFFFF7A6FF012070BD2DE936
:10277000F04706460D4691464FF000080DB9002778
:1027800002E006FB05F0471C07F14C0001F0C1FB1D
:10279000044664B10DB9246002E004F14C002060ED
:1027A000E663256401212046FFF7AAFFA0464046C4
:1027B000BDE8F08710B50446FFF770FF11E0606ACE
:1027C00008B9012000E0002038B904F1240001F02C
:1027D00001F818B101F092F800E005E0A06C401E8D
:1027E000A064A06C0028EADC00BF4FF0FF30A064BA
:1027F000FFF761FFFFF752FF11E0206908B90120E0
:1028000000E0002050B904F1100000F0E3FF08B12F
:1028100001F074F8606C401E606400E002E0606CDF
:102820000028EADC00BF4FF0FF306064FFF743FF91
:1028300010BD70B50546FFF731FFA86BE96B884204
:1028400001D1012400E00024FFF735FF204670BDD0
:102850002DE9F04104460E4615460027206C40B98C
:10286000206878BB606801F0E2F8074600206060ED
:1028700028E07DB93146226CA06801F0D7FC216CBC
:10288000A0680844A060D4E9011088421AD32068E7
:10289000A06017E03146226CE06801F0C7FC216CB3
:1028A000E068401AE0602168E068884203D2216C49
:1028B0006068401AE060022D04D1A06B10B1A06BDB
:1028C000401EA063A06B401CA0633846BDE8F081A9
:1028D0002DE9FF4383B0074688461D464FF00009A7
:1028E0003C4600BFFFF7DAFEA06BE16B884201D3E4
:1028F000022D1DD12A4641462046FFF7A9FF064674
:10290000606A08B9012000E0002040B904F1240009
:1029100000F060FF012805D1FFF7B6FE02E00EB11E
:10292000FFF7B2FEFFF7C7FE012007B0BDE8F08356
:10293000059818B9FFF7BFFE0020F6E7B9F1000FC0
:1029400004D101A800F0A9FF4FF00109FFF7B3FE81
:1029500000F04FFCFFF7A2FE606C401C00D16064E9
:10296000A06C401C00D1A064FFF7A5FE05A901A83A
:1029700000F09AFFC0B92046FFF75BFF70B104F189
:102980001000059900F0CAFE2046FFF713FF00F083
:102990008BFB0028A6D1FFF777FEA3E72046FFF7C1
:1029A00009FF00F081FB9DE72046FFF703FF00F0E1
:1029B0007BFB0020B9E770B505464C2001F0A9FA71
:1029C0000446D4B1002060602060A060E060A06395
:1029D0000120E06300202064401E6064A06404F1D4
:1029E0001000FFF7DBFD04F12400FFF7D7FD002303
:1029F0001A4619462046FFF76BFF204670BD70B59A
:102A000006460D46022200213046FFF7B0FE04467E
:102A100004B1A563204670BD2DE9F04705468946FF
:102A200016461F462C46FDF71FFC8246A06BE16B45
:102A3000884201D3022F1CD13A4649462046FFF76F
:102A400007FFA06C401C0ED1606A08B9012000E0AD
:102A5000002058B904F1240000F0BCFE30B12EB1C2
:102A60000120306002E0A06C401CA0644FF001081F
:102A700001E04FF000085046FDF7FDFB4046BDE881
:102A8000F0872DE9F04105460E462C46FDF7ECFB9C
:102A90008046A06BE16B884219D2A06B401CA063FA
:102AA000A06C401C0ED1606A08B9012000E0002033
:102AB00058B904F1240000F08DFE30B12EB1012090
:102AC000306002E0A06C401CA064012700E00027F9
:102AD0004046FDF7D0FB3846BDE8F08170B50546AD
:102AE000FFF7DCFDA86B08B9012400E00024FFF724
:102AF000E2FD204670BD70B504460D46206C70B1F5
:102B0000216CE0680844E0606168E068884201D3B5
:102B10002068E0602846226CE16801F087FB70BD08
:102B20002DE9FF4383B0054688461E464FF0000955
:102B30002C4600BFFFF7B2FDA06B80B3E7684146AB
:102B40002046FFF7D8FFB6B9A06B401EA0632068EF
:102B500010B900F0B5FF6060206908B9012000E0FD
:102B60000020B0B904F1100000F034FE012810D1AB
:102B7000FFF78AFD0DE0E760606A08B9012000E018
:102B8000002030B904F1240000F024FE08B1FFF762
:102B90007BFDFFF790FD012007B0BDE8F083FFE764
:102BA000059818B9FFF787FD0020F5E7B9F1000F88
:102BB00004D101A800F071FE4FF00109FFF77BFD81
:102BC00000F017FBFFF76AFD606C401C00D16064E9
:102BD000A06C401C00D1A064FFF76DFD05A901A801
:102BE00000F062FE08BB2046FFF778FFB8B120680E
:102BF00030B9FFF753FD606800F0A3FEFFF75BFDFF
:102C000004F12400059900F089FD2046FFF7D2FD6C
:102C100000F04AFA00288DD1FFF736FD8AE72046FA
:102C2000FFF7C8FD00F040FA84E72046FFF7C2FD39
:102C300000F03AFA0020AFE72DE9F0470546884654
:102C400016462C46FDF710FB8146A06BE8B14146C5
:102C50002046FFF750FFA06B401EA063606C401C35
:102C60000ED1206908B9012000E0002058B904F114
:102C7000100000F0AFFD30B12EB10120306002E055
:102C8000606C401C6064012700E000274846FDF7A7
:102C9000F2FA3846BDE8F0872DE9F0470546884648
:102CA0002C46FDF7E1FA8146A06B38B1E768414652
:102CB0002046FFF720FFE760012600E00026484697
:102CC000FDF7D9FA3046BDE8F08770B50446FFF746
:102CD000E5FCA56BFFF7EFFC284670BD70B5044618
:102CE0002546FFF7DBFCD5E90E10461AFFF7E3FC9B
:102CF000304670BD0146886B704770B50446254666
:102D0000284601F063F970BD01468A6B0AB90120BB
:102D100000E00020704701468A6BCB6B9A4201D1DC
:102D2000012000E00020704710B5002407E004EB0C
:102D30008401FB4A02EB8100FFF730FC641C052C88
:102D4000F5D3F848FFF72AFCF748FFF727FCF748C8
:102D5000FFF724FCF648FFF721FCF648FFF71EFCBE
:102D6000F048F5490860F048F449086010BD2DE9C5
:102D7000F04704460F4615469946DDF820800026A8
:102D800007E0B95D04F134008155B85D00B902E097
:102D9000761C102EF5D300BF002143200155052DD0
:102DA00000D30425E56265640020A064201DFFF7C0
:102DB00002FC04F11800FFF7FEFB2461C5F10500D9
:102DC000A06164620020E06484F85000BDE8F087F0
:102DD0002DE9F04105460F461FB9A80001F099F80A
:102DE00000E03846064656B1542001F092F80446F9
:102DF0000CB1266304E0304601F0E8F800E000245E
:102E000024B1A900A522206B01F055FA2046BDE8A7
:102E1000F0812DE9FF4F81B0804615469946DDE9E6
:102E20000E7A28461099FFF7D3FF0446002C4FD0A6
:102E3000681E216B01EB800B2BF0070B00953A46C7
:102E40002046119B0299FFF792FF4A464146584699
:102E5000FFF7F2FB2060BAF1000F01D0CAF8004082
:102E6000FFF71CFCB6480068401CB5490860B5482F
:102E7000006840B9B34804600846006801280CD1D6
:102E8000FFF752FF09E0B048006830B9AD4800686C
:102E9000C06AB84201D8AB480460AC480068401C26
:102EA000AA49086094F82C1001208840A8490968B4
:102EB0000843A7490860E16A01EB8101984A02EBE7
:102EC0008100211DFFF77AFB0126FFF7F4FB01E0EB
:102ED0004FF0FF36012E09D19B48006830B1994868
:102EE0000068C06AB84201D2FFF7CEFB304605B099
:102EF000BDE8F08F90490968096809B9012100E02F
:102F0000002121B14FF0FF31924A116006E08A4959
:102F10000968C968C8688F4A41681160704770B510
:102F20000546FFF7BBFB15B98648006800E0284658
:102F30000446201DFFF768FB78B9E06A00EB8000CB
:102F4000774951F8200040B994F82C1001208840AE
:102F50007F49096881437E480160A06A18B104F185
:102F60001800FFF751FB211D7148FFF727FB7A4836
:102F70000068401C7849086074480068401C734928
:102F80000860FFF798FB7048006860B16D48006802
:102F9000844202D1FFF778FB05E0FFF77FFBFFF7E4
:102FA000A9FFFFF788FB70BD2DE9F04100276B48B2
:102FB000006800286AD16A480068401C68490860B7
:102FC000084606688EB95C48D0F800805B48006807
:102FD000594908605948C0F8008062480068401CA0
:102FE00060490860FFF786FF00BF5A4800688642C4
:102FF0003BD300BF50480068006808B9012000E0DA
:10300000002020B14FF0FF30524908602CE04A48C0
:103010000068C068C4686568AE4202D24D48056069
:1030200022E0201DFFF7F0FAA06A18B104F11800A1
:10303000FFF7EAFA94F82C10012088404449096807
:10304000084343490860E16A01EB8101344A02EB1D
:103050008100211DFFF7B2FA3A49E06A0968C96A9E
:103060008842C7D30127C5E700BF36480068C06A59
:1030700000EB80002A4951F82000012800D90127DF
:103080003948006848B9FDF7E4F906E036480068B9
:10309000401C35490860FDF7DCF93448006800B190
:1030A00001273846BDE8F08170B50025FFF7F6FA34
:1030B0002A480068401E2949086008460068002820
:1030C00074D11F480068002870D024E01748C068F9
:1030D000C46804F11800FFF797FA201DFFF794FA6F
:1030E00094F82C10012088401949096808431849B0
:1030F0000860E16A01EB8101094A02EB8100211DB0
:10310000FFF75CFA0F49E06A0968C96A884202D38E
:103110000120164908600548006848BB012029E0E5
:1031200080010020E4010020F80100200C020020B2
:103130002002002034020020980000209C00002083
:1031400070000020680000207C0000208C0000201F
:1031500078000020900000206C00002094000020E7
:1031600074000020880000208000002084000020DF
:10317000FFE700200028A9D0FE48006878B10AE0E7
:10318000FFF712FF10B10120FB490860F948006801
:10319000401EF8490860F74800680028F0D1F6485A
:1031A0000068012802D10125FFF76EFAFFF783FAC4
:1031B000284670BD10B50446F04800684460F048E9
:1031C0000068844207D2ED480168091DED48006897
:1031D000FFF700FA0CE0E9480168091DEA480068B9
:1031E000FFF7F8F9E9480068844201D2E748046033
:1031F00010BDE7480068401CE549086070472DE9AC
:10320000F047044688464FF00009FFF7F2FFDC481C
:103210000768206800EB08052068B84207D92068D5
:10322000A8420BD9BD4209D94FF0010906E0206838
:10323000A84201D8BD4201D94FF001092560B9F17A
:10324000000F13D0CD480068001DFFF7DDF950B91D
:10325000CA48006890F82C1001208840CD490968C0
:103260008143CC4801602846FFF7A4FFFFF71CFF0D
:1032700006460EB9FFF708FABDE8F08770B50446B8
:103280000026DCB1FFF7B5FFBD4800680519BB4853
:103290000068001DFFF7B8F950B9B848006890F809
:1032A0002C1001208840BB4909688143B94801605E
:1032B0002846FFF77FFFFFF7F7FE06460EB9FFF738
:1032C000E3F970BD70B50446FFF7E8F914B9AB48EF
:1032D000006800E020460646F56AFFF7ECF928464C
:1032E00070BD2DE9F0410446FCF7BEFF064614B957
:1032F000A248006800E020460746FD6A3046FCF719
:10330000BAFF2846BDE8F0812DE9F04780460D461A
:103310004FF00009052D00D30425FFF7BFF9B8F1E0
:10332000000F02D19548006800E040460446666CF4
:10333000AE4250D0B5420BD99048006884420DD0BF
:103340008E480068C06AA84208D84FF0010905E01D
:103350008A480068844201D14FF00109E76AE16AB6
:10336000606C884200D1E5626564A06910F0004F8E
:1033700002D1C5F10500A06107EB8701864A02EB87
:1033800081016069884201D1012000E00020E0B1A4
:10339000201DFFF739F930B90120B8407D4909688F
:1033A00081437C48016094F82C10012088407949C1
:1033B0000968084377490860E16A01EB8101764AB0
:1033C00002EB8100211DFFF7F9F8B9F1010F01D1DE
:1033D000FFF75AF900BFFFF76EF9BDE8F08710B5A7
:1033E0006B48006818B101206349086039E000208B
:1033F0006149086061480068006860490968096BB4
:10340000884205D85D48016834310068FCF7B2FF96
:103410005A4909681422086B604900F0DBFE28B1A4
:103420005648016834310068FCF7A4FF5948006829
:10343000B0FA80F0C0F11F0101EB8102564B03EBA3
:10344000820042685268426000F108024368934279
:1034500002D14268526842604268D268474B1A60A3
:1034600000BF10BD70B50546FFF718F915B9434800
:10347000006800E028460446201DFFF7C5F878B92B
:10348000E06A00EB8000444951F8200040B994F80C
:103490002C10012088403F49096881433D48016064
:1034A000A06A18B104F11800FFF7AEF8211D3C48DE
:1034B000FFF784F8FFF7FFF830480068844212D124
:1034C0003848006810B1FFF7DFF815E034480068AD
:1034D00035490968884203D10020284908600BE07B
:1034E000FFF77DFF08E02F48006828B1FFF7D6F806
:1034F000FFF700FDFFF7DFF870BD10B501460020B3
:103500000A46274C5369A34201D1012300E000235E
:1035100073B1264C936AA34201D1012300E000233A
:1035200033B9936A0BB9012300E0002303B10120F2
:1035300010BD70B505462C46DCB1104800688442C9
:1035400045D0FFF7ABF82046FFF7D7FF01283CD165
:10355000201DFFF759F894F82C10012088400D49E0
:10356000096808430B490860E16A01EB81010A4AD6
:103570001EE02CE080000020840000206800002075
:10358000740000209C000020980000209000002083
:10359000940000207800002080010020B64500083B
:1035A000340200207C000020700000200C0200206B
:1035B00002EB8100211DFFF701F8FE49E06A09686E
:1035C000C96A884201D3FFF75FF8FFF774F870BD4E
:1035D0002DE9F041054600262C46FCF745FE07463E
:1035E0002046FFF78AFF012824D1F3480068E0B99C
:1035F000F049E06A0968C96A884200D30126201DA3
:10360000FFF702F894F82C1001208840EB49096874
:103610000843EA490860E16A01EB8101E84A02EBEC
:103620008100211DFEF7CAFF04E004F11801E548FE
:10363000FEF7C4FF3846FCF71EFE3046BDE8F081B9
:1036400010B50446206B00F0C1FC204600F0BEFC23
:1036500010BD70B523E0FFF7CCFDDB48006808B96A
:10366000012000E000200546FFF71EFDBDB9FFF771
:1036700015F8D548C068C468201DFEF7C5FFD348BB
:103680000068401ED1490860D1480068401ED049FA
:103690000860FFF710F82046FFF7D2FF00BFCC48C4
:1036A00000680028D7D170BD00BFFFF7D2FFC44823
:1036B00000680128F9D9FEF7E7FFF6E71FB50020FB
:1036C00000900190029003468022C2A10390C3485B
:1036D000FFF79FFB0446012C0CD1FCF7C5FDA01E93
:1036E000BF4908600120BF4908600020BE4908604A
:1036F000FEF7B6FF1FBD10B5FCF7B6FD0020B949B7
:103700000860FEF7C0FF10BDB74908687047002188
:10371000B54A10687047AD480068704770B50646F6
:103720000C46A448016818313046FEF753FFA14803
:103730000068001DFEF768FF50B99E48006890F8C9
:103740002C10012088409D49096881439B480160F5
:10375000601C06D197480168091DA448FEF72EFF9A
:1037600005E0A148006805192846FFF723FD70BD54
:103770002DE9F04107460D46144645F000408D49BD
:10378000096888618B48016818313846FEF716FFD2
:1037900088480068001DFEF737FF50B9854800686B
:1037A00090F82C100120884084490968814383489F
:1037B0000160601C06D17F480168091D8B48FEF737
:1037C000FDFE05E08848006806193046FFF7F2FC68
:1037D000BDE8F08170B50646F068C46804F11800D1
:1037E000FEF712FF74480068A8B9201DFEF70CFF11
:1037F00094F82C10012088407049096808436F49EB
:103800000860E16A01EB81016D4A02EB8100211D34
:10381000FEF7D4FE04E004F118016A48FEF7CEFE7C
:103820006449E06A0968C96A884204D9012501200F
:103830006F49086000E00025284670BD2DE9F04181
:1038400005460F4647F000402860EC682846FEF722
:10385000DBFE201DFEF7D8FE94F82C1001208840D6
:1038600056490968084355490860E16A01EB81013E
:10387000534A02EB8100211DFEF7A0FE4D49E06A8C
:103880000968C96A884204D901260120584908609C
:1038900000E000263046BDE8F08156490968016025
:1038A000514909684160704770B504460D46FEF7FE
:1038B000F5FE4D4802682868401C01D1002619E039
:1038C0004C4920680968884204D06068904201D859
:1038D00001260FE06068101A2968884209D228681A
:1038E0006168511A401A28602046FFF7D6FF00266B
:1038F00000E00126FEF7DFFE304670BD01203C49A6
:10390000086070470246002101E0521C491C1078F3
:10391000A528FAD0890888B270472DE9F0410446FD
:1039200014B92448006800E0204607463D6B28464D
:10393000FFF7E8FF06463046BDE8F0811D490868FC
:10394000704770B505462C46002D6FD01949E06AC6
:103950000968C96A884269D2A06910F0004F05D190
:1039600014480068C06AC0F10500A061E16A01EB7B
:103970008101134A02EB81016069884201D1012073
:1039800000E00020C0B3201DFEF73EFE78B9E06ADB
:1039900000EB80000A4951F8200040B994F82C103F
:1039A00001208840054909688143044801600148B5
:1039B000006822E0680000209400002078000020C9
:1039C000800100200C020020200200207000002056
:1039D0006C00002049444C4500000000A936000856
:1039E000900000207C0000207400002034020020A1
:1039F000840000208800002014E0C06AE06294F88F
:103A00002C1001208840FE4909680843FC490860E1
:103A1000E16A01EB8101FB4A02EB8100211DFEF707
:103A2000CDFD03E0F8480068C06AE06270BD70B583
:103A300005462C460026ADB3A06C401EA064616C08
:103A4000E06A88422ED0A06C60BB201DFEF7DCFD32
:103A500078B9E06A00EB8000EA4951F8200040B9EB
:103A600094F82C1001208840E54909688143E44816
:103A70000160606CE062E06AC0F10500A06194F84A
:103A80002C1001208840DE4909680843DC490860A1
:103A9000E16A01EB8101DB4A02EB8100211DFEF7A7
:103AA0008DFD0126304670BDD74909688869D64921
:103AB0000968C96AC1F10501D34A1268916170476A
:103AC000D148006830B1D049096801F14800896CDB
:103AD000491C0160CC48006870472DE9F04106465A
:103AE0000C46FEF7DBFDC8480068C06C38BB0120FF
:103AF000C549096881F850000CB3C3480068001D2F
:103B0000FEF782FD50B9C048006890F82C100120E3
:103B10008840BB4909688143B9480160601C06D1EF
:103B2000B9480168091DB948FEF748FD05E0B848E5
:103B3000006807193846FFF73DFBFEF7A5FDFEF7C5
:103B4000BAFDFEF7ABFDB0480068C56C65B126B1A3
:103B50000020AD490968C86406E0AB49096801F175
:103B60004C00C96C491E01600020A749096881F812
:103B70005000FEF7A0FD2846BDE8F0812DE9F04792
:103B80000746884615461C46FEF788FD9E48006895
:103B900090F8500002282FD09B49096801F14C0091
:103BA000C96CB943016001209749096881F8500048
:103BB00014B395480068001DFEF726FD50B99248E1
:103BC000006890F82C10012088408D4909688143D5
:103BD0008B480160601C06D18B480168091D8B4829
:103BE000FEF7ECFC06E08A48006800EB0409484652
:103BF000FFF7E0FAFEF748FDFEF75DFDFEF74EFD2C
:103C00001DB181480068C06C28607F48006890F84A
:103C10005000012801D1002608E07B49096801F124
:103C20004C00C96C21EA0801016001260020764998
:103C3000096881F85000FEF73EFD3046BDE8F08788
:103C40002DE9F04781460D4616461F464FF0010A02
:103C50004C46FEF723FD0FB1E06C386094F85080BD
:103C6000022084F85000052E17D2DFE806F0150375
:103C7000070B0D00E06C2843E0640EE0E06C401C94
:103C8000E0640AE0E56408E0B8F1020F01D0E56401
:103C900001E04FF0000A00E000BF00BFB8F1010FE3
:103CA0001CD1201DFEF7B0FC94F82C100120884098
:103CB00053490968084352490860E16A01EB8101F0
:103CC000504A02EB8100211DFEF778FC4E49E06A64
:103CD0000968C96A884201D9FEF7D6FCFEF7EBFCF9
:103CE0005046BDE8F0872DE9F84F81460D4616464F
:103CF0001F46DDF828A04FF0010B4C46FCF7B4FA44
:103D000000900FB1E06C386094F85080022084F885
:103D10005000052E17D2DFE806F01503070B0D0043
:103D2000E06C2843E0640EE0E06C401CE0640AE0D4
:103D3000E56408E0B8F1020F01D0E56401E04FF05E
:103D4000000B00E000BF00BFB8F1010F29D13148DE
:103D50000068A8B9201DFEF757FC94F82C1001202C
:103D6000884027490968084325490860E16A01EB52
:103D70008101244A02EB8100211DFEF71FFC04E0B3
:103D800004F118012448FEF719FC1F49E06A09688C
:103D9000C96A884205D9BAF1000F02D00120CAF8D9
:103DA00000000098FCF767FA5846BDE8F88F2DE947
:103DB000F04105460E462C46FCF756FA804694F82C
:103DC0005070022084F85000E06C401CE064012F29
:103DD00035D11048006820BB201DFEF715FC94F873
:103DE0002C100120884006490968084304490860EE
:103DF000E16A01EB8101034A02EB8100211D0DE024
:103E0000780000208001002068000020340200209B
:103E100074000020940000200C020020FEF7CEFB6E
:103E200004E004F118010848FEF7C8FB0749E06AFE
:103E30000968C96A884202D90EB101203060404643
:103E4000FCF719FABDE8F0810C02002068000020A0
:103E500010B50146714800E0006803688B42FBD34F
:103E60000246436813448B4204D143684C682344A0
:103E7000436001460A464B6813440468A34211D1CB
:103E8000674C03682468A34208D04B6804686468E0
:103E900023444B6003681B680B6005E0604B1B68A4
:103EA0000B6001E003680B60884200D0016010BD28
:103EB00030B54FF488435B4810F0070F05D0C01DA4
:103EC00020F00700574C041B1B1B0246534C22607A
:103ED0000024524D6C60D018083820F00700504C78
:103EE000206000244E4D2D686C604D4D2D682C6077
:103EF0001146441A4C604A4C24680C604A4D4C6888
:103F00002C604A4D4C682C604FF00044484D2C60AA
:103F100030BD2DE9F04105464FF00008FFF769F983
:103F20003F48006808B9FFF7C3FF414800680542F1
:103F300047D145B1083515F0070F04D005F007004B
:103F4000C0F108000544002D3BD038480068854288
:103F500037D8324E3046046801E02646246860684F
:103F6000A84202D220680028F7D12D480068844278
:103F700027D0306800F10808206830606068401B76
:103F8000102807D967196068401B7860656038465B
:103F9000FFF75EFF254960680968081A2349086031
:103FA0000846006820490968884203D21F48006813
:103FB0001D4908601E496068096808436060002068
:103FC0002060FFF771F84046BDE8F08170B5064605
:103FD0003546D6B1083D2C46154960680968084247
:103FE00013D0206888B91249606809688843606006
:103FF000FFF7FFF80D496068096808440B4908603D
:104000002046FFF725FFFFF74FF870BD074800680F
:10401000704705480068704770470000B0000020F6
:10402000A000002048020020A8000020A4000020DA
:10403000AC000020704700000FB4044910B503AA7B
:10404000029800F0B7F910BC5DF814FB4C0000209A
:1040500070B50C460546012A05D02878800600D5A3
:10406000EA69002302E0012305E05B1C934202D2CF
:10407000E05C0028F9D1A869E618C01AA861286A8E
:10408000184428622846AFF3008004E0D5E90121F6
:1040900014F8010B9047B442F8D32846AFF30080E0
:1040A00070BD00002DE9F041064600241068752916
:1040B000314616A511D0AFF30080002803DAC0F115
:1040C000000013A507E031688A0701D511A502E0B9
:1040D000490704D510A5012401E0AFF300800021B9
:1040E0000A2306F1240707E0B0FBF3F203FB1200FA
:1040F000303078541046491C0028F5D123462A4612
:104100003046BDE8F04100F0E2B8000000000000D9
:104110002D0000002B000000200000002DE9F041E0
:104120000F460546002028622846E968884770B394
:10413000252805D0D5E901219047286A401CF2E7DF
:10414000E9682846002688476C2804460AD0682C6F
:1041500008D04C2C35D06A2C31D0742C31D07A2C2C
:104160002FD016E0E968064628468847B042044644
:1041700008D16C2E23D04FF480662846E968884722
:10418000044606E06C2E03D04FF4807601E01EE07A
:104190004026E4B1A4F14100192802D8203446F4A5
:1041A00000663A46214628462E60FBF7FBFF60B1C9
:1041B000012808D0FF1D27F007070837B4E780263D
:1041C000DBE70026D9E73F1DAEE72046B2E7286AC5
:1041D000BDE8F08140EA010310B59B070FD1042A26
:1041E0000DD310C808C9121F9C42F8D020BA19BAC2
:1041F000884201D9012010BD4FF0FF3010BD1AB127
:10420000D30703D0521C07E0002010BD10F8013B7B
:1042100011F8014B1B1B07D110F8013B11F8014BA2
:104220001B1B01D1921EF1D1184610BD032A40F28A
:10423000308010F0030C00F0158011F8013BBCF148
:10424000020F624498BF11F801CB00F8013B38BF60
:1042500011F8013BA2F1040298BF00F801CB38BF6E
:1042600000F8013B11F0030300F0B680083AC0F0FB
:10427000088051F8043B083A51F804CBA0E8081034
:10428000F5E7121D5CBF51F8043B40F8043BAFF367
:104290000080D20724BF11F8013B11F801CB48BFC1
:1042A00011F8012B24BF00F8013B00F801CB48BFF7
:1042B00000F8012B704702F0FF0343EA032242EAB1
:1042C000024200F0BDB870477047704770472DE953
:1042D000F0470D4699469246044600F124080168CD
:1042E000880604D5E06921F01001216000E001207A
:1042F000A84202DDA0EB050700E00027A16907EB5B
:10430000050202EB0900A1EB0000A0612078C006C5
:1043100002D42046AFF30080002608E0D4E9012152
:104320001AF806009047206A401C761C20624E4511
:10433000F4DB2078C0060AD52046AFF3008006E003
:10434000D4E9012130209047206A401C2062381EA9
:10435000A7F10107F4DC07E0D4E9012118F8050012
:104360009047206A401C2062281EA5F10105F3DC5D
:104370002046AFF300802078000602D50220BDE879
:10438000F0870120FBE710B5436913B1AFF300805C
:1043900001E0FFF75DFE012010BD127800F124015D
:1043A0000A7000224A700122EDE711684FF0FF32D7
:1043B000E9E70000074B70B50D467B4400F065F857
:1043C0000446284600F074F810B14FF0FF3070BD7D
:1043D000204670BD4DC6FFFF10B5203AC0F00B80DF
:1043E000B1E81850203AA0E81850B1E81850A0E8F9
:1043F0001850BFF4F5AF5FEA027C24BFB1E8185053
:10440000A0E8185044BF18C918C0BDE810405FEAC2
:10441000827C24BF51F8043B40F8043B08BF70473E
:10442000D20728BF31F8023B48BF11F8012B28BF43
:1044300020F8023B48BF00F8012B70474FF0000204
:104440000429C0F0128010F0030C00F03780CCF18A
:10445000040CBCF1020F18BF00F8012BA8BF20F814
:10446000022BA1EB0C0100F029B85FEAC17C24BF4C
:1044700000F8012B00F8012B48BF00F8012B704712
:1044800001694A1C02610878704700B58FB0CDE918
:1044900001310021059105497944CDE90310114608
:1044A0006846FFF73BFE0FB000BD0000E5FFFFFFD1
:1044B000007B00F0800070474FF0000200B513460B
:1044C00094469646203922BFA0E80C50A0E80C5034
:1044D000B1F12001BFF4F7AF090728BFA0E80C50E5
:1044E00048BF0CC05DF804EB890028BF40F8042BDE
:1044F00008BF704748BF20F8022B11F0804F18BF4B
:1045000000F8012B7047754600F028F8AE4605000C
:104510006946534620F00700854618B020B5FCF7E1
:104520002DFBBDE820404FF000064FF000074FF094
:1045300000084FF0000B21F00701AC46ACE8C009C1
:10454000ACE8C009ACE8C009ACE8C0098D467047CA
:104550000446AFF300802046FBF73CFE004870475E
:10456000484600207072696E745461736B207374D6
:1045700061636B2072656D61696E2073697A653A5B
:10458000202D2D2D2D2D2D2D2D2D2D2D2D2D2D2D68
:104590002D2D2D2D2D2D2D2D2D2D2D2D2D2D2D2D4B
:1045A0002D2D2D2D2D2D2D2D2D2D2D2D2D2D202550
:1045B0006C75200D0A00A5A5A5A5A5A5A5A5A5A571
:1045C000A5A5A5A5A5A5A5A5A5A574686973206938
:1045D00073207072696E7420737472696E672074D0
:1045E00061736B20322E2A2A2A2A2A2A2A2A2A2A68
:1045F0002A2A2A2A2A2A2A2A2A2A2A2A2A2A2A2A1B
:104600002A2A2A2A2A2A2A2A2A2A2A2A2A2A2A2A0A
:104610002A2A2A2A2A2A2A0D0A007468697320691C
:1046200073207072696E7420737472696E6720747F
:1046300061736B20332E2A2A2A2A2A2A2A2A2A2A16
:104640002A2A2A2A2A2A2A2A2A2A2A2A2A2A2A2ACA
:104650002A2A2A2A2A2A2A2A2A2A2A2A2A2A2A2ABA
:104660002A2A2A2A2A2A2A0D0A00746869732069CC
:1046700073207072696E7420737472696E6720742F
:1046800061736B20312E2D2D2D2D2D2D2D2D2D2DAA
:104690002D2D2D2D2D2D2D2D2D2D2D2D2D2D2D2D4A
:1046A0002D2D2D2D2D2D2D2D2D2D2D2D2D2D2D2D3A
:1046B0002D2D2D2D2D2D2D0D0A000000DC4600087E
:1046C00000000020B80000006C01000894470008BA
:1046D000B8000020F04B0000880100086A4600087E
:1046E000CA4500081A46000800000000000000004B
:1046F00000000000000000000000000000A24A04CA
:104700000000000000000000010203040607080981
:104710000000000000000000000000000000000099
:104720000000000000000000000000000000000089
:104730000102030401020304060708090204060833
:10474000AAAAAAAA000000000000000000000000C1
:104750000000000000000000000000000000000059
:104760000000000000000000000000000000000049
:104770000000000000000000000000000000000039
:104780000000000000000000000000000000000029
:044790000000000025
:0400000508000131BD
:00000001FF
