:020000040800F2
:10000000A84C00202D0B00085D0500085F050008C6
:1000100063050008670500086B0500080000000084
:10002000000000000000000000000000DD010008EA
:10003000710500080000000021020008C527000823
:10004000470B0008470B0008470B0008470B000848
:10005000470B0008470B0008470B0008470B000838
:10006000470B0008470B0008470B0008470B000828
:10007000470B0008470B0008470B0008470B000818
:10008000470B0008470B0008470B0008470B000808
:10009000470B0008470B0008470B0008470B0008F8
:1000A000470B0008470B0008470B0008470B0008E8
:1000B000470B0008FD030008470B0008470B00082A
:1000C000470B0008470B0008470B0008470B0008C8
:1000D000470B0008A30A0008470B0008470B00085D
:1000E000470B0008470B0008470B0008470B0008A8
:1000F000470B0008470B0008470B0008470B000898
:10010000470B0008470B0008470B0008470B000887
:10011000470B0008470B0008470B0008470B000877
:10012000470B0008470B0008470B0008470B000867
:1001300000F002F800F042F80AA090E8000C8244B7
:100140008344AAF10107DA4501D100F037F8AFF294
:10015000090EBAE80F0013F0010F18BFFB1A43F0A5
:10016000010318470040000020400000103A24BF5F
:1001700078C878C1FAD8520724BF30C830C144BF0C
:1001800004680C607047000000230024002500264E
:10019000103A28BF78C1FBD8520728BF30C148BFEA
:1001A0000B607047642903F0D785732903F0238718
:1001B000002070471FB51FBD10B510BD03F080FFB4
:1001C0001146FFF7F7FF00F0CDF803F09EFF03B4F0
:1001D000FFF7F2FF03BC00F007FC0000204B19689A
:1001E0000868B0E8F00F80F30988BFF36F8F4FF015
:1001F000000080F311884EF00D0E704700000000E3
:1002000006480068006880F3088862B661B6BFF3EC
:100210004F8FBFF36F8F00DF00BF00BF08ED00E01E
:10022000EFF30980BFF36F8F0D4B1A6820E9F00FD1
:10023000106008B54FF0200080F3118803F0F8F843
:100240004FF0000080F31188BDE808401968086885
:10025000B0E8F00F80F30988BFF36F8F704700BFDD
:1002600080000020EFF311804FF0200181F311880E
:10027000704780F311887047EFF3058070470000E6
:1002800010B500F067FA00F02CFB4FF4E13000F0FD
:10029000B9FB4FF4E1510A2000F060FB00F09EFB37
:1002A00010BD08B5002500240020009036E000F0C5
:1002B000B8FA00F097FA05002DD0012D04D0022DD8
:1002C00020D0032D26D121E06EA003F00FFD0024E5
:1002D00012E09DF800106EA003F008FD00231A46FE
:1002E00069466C48006802F071FB9DF80000401CF4
:1002F000C0B20090601CC4B2052CEADB66A003F01B
:10030000F5FC07E065A003F0F1FC03E069A003F051
:10031000EDFC00BF00BF012002F0DEFFC7E70024B4
:1003200011E00CB9012000E000200446012803D1AF
:1003300000206649086002E00120644908604FF02F
:10034000640002F0C9FFECE708B50AE000235A1E7A
:1003500069465F48006802F030FC5EA0009903F037
:10036000C5FCF3E71FB5FFF78BFF5BA003F0BEFCF6
:10037000002204210A2002F074FA46490860002293
:1003800004210A2002F06DFA5149086041480068D2
:1003900000282DD008460068002829D0002001231D
:1003A000CDE9003002900346802252A10390AFF2C3
:1003B0000D1002F063FD00200123CDE90030029012
:1003C000034680224EA10390AFF2AD0002F056FD2D
:1003D00000200223CDE900300290034680224BA189
:1003E0000390AFF29B0002F049FD03F071F902E0C7
:1003F00049A003F07BFC002004B010BD1CB5002018
:10040000009001214B4802F02CF8002838D001213F
:10041000484802F037F848480068401C46490860E0
:1004200064282DDB0020086011E044A0019903F04E
:100430005DFC019800F0030001904548019A00EB33
:10044000820100236A462248006802F032FB6A46B5
:1004500001A91048006802F02DFC0028E5D13D48B4
:10046000007808B9012000E000203A49087001280E
:1004700003D100203849086002E0012036490860B5
:100480001CBD000073656E6420496E743A20000044
:1004900025642000180000200D0A00006C6F6E67B4
:1004A0002066697273742070726573736564200DC1
:1004B0000A0000006C6F6E672061667465722070C0
:1004C000726573736564200D0A0000008881224202
:1004D0001C00002025730000626F61726420696E49
:1004E000697469616C697A652066696E6973682EE2
:1004F000200D0A006B65795363616E5461736B0064
:100500004C45445F7461736B000000007072696E4B
:10051000745F7461736B000073656D6170686F72F6
:100520006520637265617465206661696C6564202D
:100530000D0A000000040040140000207265616490
:100540002076616C75653A20256C64200D0A0000E8
:100550000000002010000020A0012142704700BFD1
:10056000FEE700BFFEE700BFFEE700BFFEE7704703
:1005700070477047704700000CB500200190009054
:100580006B48006840F480306949086000BF6848E3
:10059000006800F4003000900198401C0190009821
:1005A00018B90198B0F5A06FF1D16148006810F456
:1005B000003F02D00120009001E000200090009850
:1005C000012842D15B48006840F01000594908609A
:1005D0000846006820F0030008600846006840F004
:1005E0000200086052484068514948600846406827
:1005F00048600846406840F48060486008464068AB
:1006000020F47C1048600846406840F4E8104860D8
:100610000846006840F08070086000BF44480068E9
:1006200010F0007FFAD04248406820F003004049B3
:1006300048600846406840F00200486000BF3C48FF
:10064000406800F00C000828F9D10CBD10B5FFF788
:1006500093FF10BD10B53648006840F001003449E2
:1006600008600846406834490840314948600846F7
:100670000068324908402E4908600846006820F4A6
:10068000802008600846406820F4FE0048604FF46F
:100690001F008860FFF7DAFF4FF00060284908600C
:1006A00010BD10B5002100200022214B5B6803F033
:1006B0000C0121B1042906D0082928D107E0214BDB
:1006C000214C236027E01F4B1F4C236023E0184B75
:1006D0005B6803F47010164B5B6803F480320223EE
:1006E00003EB904022B9194B4343174C23600DE0B4
:1006F0000F4B5B6813F4003F04D0144B4343124C80
:10070000236003E00F4B43430F4C236003E00D4B8A
:100710000D4C236000BF00BF054B5B68C3F30313A0
:100720000B4CE15C084B1B68CB40074C236010BDB1
:1007300000100240002002400000FFF8FFFFF6FE1C
:1007400008ED00E000127A002000002000093D00C2
:100750002400002008B50121242000F01DFD4FF4E5
:100760008070ADF8000010208DF8030003208DF894
:1007700002006946094800F059FA4FF480710748B1
:1007800000F0FFFA0420ADF800006946044800F0CC
:100790004DFA0421024800F0F4FA08BD00080140B7
:1007A0000014014010B5044662480078042800DBBC
:1007B00010BD01F0EDFF5F480078401C5D490870F6
:1007C0005D485E49097844545C480078401CC0B2DA
:1007D0005A490870042801DB0020087001F0E5FF89
:1007E00000BFE5E710B55348007808B9002010BDF8
:1007F00001F0CEFF4F480078401E4E4908704E4829
:100800004F490978445C4E480078401CC0B24C49BE
:100810000870042801DB0020087001F0C6FF2046A4
:10082000E5E710B547480078022805D1464800683A
:10083000401C4549086002E00020434908604148E7
:100840000078012805D141480068401C3F490860F4
:1008500002E000203D4908603A48007820B10128B4
:100860000FD002283BD126E02021394800F06FFA52
:1008700018B901203349087002E00020314908709E
:100880002DE02021324800F062FA30B10120FFF75C
:1008900089FF00202B4908700CE02C480068C8280C
:1008A00008D30020294908600220FFF77BFF0220BF
:1008B0002449087013E02021254800F048FA18B1B7
:1008C00000202049087009E01F480068192805D356
:1008D00000201D4908600320FFF764FF00BF00BF30
:1008E00010BD08B50121142000F056FC0121194863
:1008F00000F06BFA4FF40040ADF8000048208DF88E
:1009000003006946144800F091F92020ADF800007A
:1009100048208DF8030069460D4800F087F9012052
:10092000ADF8000028208DF8030069460A4800F061
:100930007DF908BD3A000020340000203800002076
:1009400039000020440000203C000020400000202E
:100950000010014000023000000801407FB504464D
:100960000D460121022000F024FCADF80840681E6D
:1009700080B2ADF804000020ADF80A00ADF8060022
:1009800001A9134800F048FF01221146104801F068
:10099000BAFA1D208DF800000321002807DA0A07A3
:1009A000160E0C4A00F00F031B1FD65403E00A0773
:1009B000130E094A135400BF01208DF80300684646
:1009C00001F069FD0121024801F082FA7FBD0000BB
:1009D0000004004018ED00E000E400E010B54FF422
:1009E000A06001F053FD10BD014600BF704700BF7D
:1009F0004A4A128812F0400FFAD0C2B2474B1B1D70
:100A00001A80704710B586B00446012144F20400F4
:100A100000F0C2FB414800F027FC4FF40070ADF835
:100A2000140003208DF8160018208DF8170005A972
:100A30003B4800F0FBF84FF48060ADF81400042050
:100A40008DF8170005A9364800F0F0F825208DF83C
:100A5000000003208DF801008DF8020001208DF8C0
:100A60000300684601F017FD01940020ADF808006E
:100A7000ADF80A00ADF80C00ADF810000C20ADF890
:100A80000E0001A9254800F032FC012240F2255158
:100A9000224800F0C4FC0121204800F0B4FC06B05C
:100AA00010BD10B540F225511C4800F09DFD10B35B
:100AB0001A4800F019FDC4B21A48008810F4004F1B
:100AC0002BD11848008810F4804F0CD00A2C03D08A
:100AD00000201449088020E01248008840F40040BB
:100AE0001049088019E00D2C06D10E48008840F40A
:100AF00080400C49088010E00A480088C0F30D00CF
:100B000009490C5407480088401C064908800846DB
:100B10000088C72801DD0020088010BD0038014092
:100B20000008014048000020B80000200948804724
:100B300009480047FEE7FEE7FEE7FEE7FEE7FEE7BF
:100B4000FEE7FEE7FEE7FEE704480549054A064BD7
:100B5000704700005506000831010008A846002033
:100B6000A84C0020A8480020A848002010B5044642
:100B7000CA48844208D10121042000F027FB00214B
:100B8000042000F023FB46E0C548844208D101213F
:100B9000082000F01BFB0021082000F017FB3AE0C2
:100BA000C048844208D10121102000F00FFB002131
:100BB000102000F00BFB2EE0BB48844208D101213D
:100BC000202000F003FB0021202000F0FFFA22E0AB
:100BD000B648844208D10121402000F0F7FA0021F4
:100BE000402000F0F3FA16E0B148844208D1012118
:100BF000802000F0EBFA0021802000F0E7FA0AE004
:100C0000AC48844207D10121801500F0DFFA0021B1
:100C1000A01500F0DBFA10BD10B50121084600F068
:100C2000D5FA0021012000F0D1FA10BD2DE9F041E4
:100C3000024600250026002000230024002791F80A
:100C400003C00CF00F0591F803C01CF0100F03D087
:100C500091F802C04CEA050591F800C0BCF1000F04
:100C600031D0146800202BE04FF0010C0CFA00F397
:100C7000B1F800C00CEA03069E4220D183004FF079
:100C80000F0C0CFA03F7BC4305FA03FC4CEA04040E
:100C900091F803C0BCF1280F06D14FF0010C0CFAFB
:100CA00000FCC2F814C00AE091F803C0BCF1480F80
:100CB00005D14FF0010C0CFA00FCC2F810C0401C2A
:100CC0000828D1D31460B1F800C0BCF1FF0F34DDA7
:100CD000546800202EE000F1080C4FF0010808FADB
:100CE0000CF3B1F800C00CEA03069E4221D1830048
:100CF0004FF00F0C0CFA03F7BC4305FA03FC4CEA67
:100D0000040491F803C0BCF1280F05D100F1080CD0
:100D100008FA0CF8C2F8148091F803C0BCF1480F2F
:100D200007D100F1080C4FF0010808FA0CF8C2F8DE
:100D30001080401C0828CED35460BDE8F0814FF6E7
:100D4000FF710180022181700421C1707047024649
:100D5000002093680B4201D0012000E00020704782
:100D60000146886880B2704702460020D3680B4273
:100D700001D0012000E0002070470146C86880B221
:100D8000704701617047416170470AB1016100E03D
:100D900041617047C16070474FF480320A438261FD
:100DA0008161826182698269704702460020424BFC
:100DB00018684FF68073184040EA021008433E4B13
:100DC000186070473D49C8617047F0B50A46002376
:100DD00000240021002500F00046B6F1004F02D1AA
:100DE000354EF16901E0344E7168C0F3034583B2BA
:100DF00000F44016B6F5401F08D121F070612E4E68
:100E0000766826F070662C4F7E6012E000F4801643
:100E1000B6F5801F06D1032606FA05F4A14341F07A
:100E2000706106E0460D360103FA06F6B14341F063
:100E3000706122B1460D360103FA06F6314300F027
:100E40000046B6F1004F02D11B4EF16101E01A4E8F
:100E50007160F0BD30B500228B071C0F0F2303FA21
:100E600004F2154B08338C1053F824309343124C82
:100E700008348D1044F8253023468C1053F8243064
:100E80008C07240F00FA04F423430B4C08348D1014
:100E900044F8253030BD0A49086070470008014019
:100EA000000C0140001001400014014000180140F6
:100EB000001C0140002001400000014000002042D1
:100EC000DC002042DD48006840F00100DB4908609A
:100ED00008464068DA490840D84948600846006832
:100EE000D8490840D54908600846006820F48020A9
:100EF00008600846406820F4FE0048604FF41F0078
:100F000088607047CD49096821F48031CB4A11606F
:100F10001146096821F480211160B0F5803F03D0AB
:100F2000B0F5802F0ED106E0C449096841F4803144
:100F3000C24A116007E0C149096841F4A021BF4AD3
:100F4000116000E000BF00BF704710B501460022ED
:100F5000002300204A11012A02D1B84C236806E080
:100F6000022A02D1B54C236A01E0B44C636A01F055
:100F70001F02012494401C4201D0012000E0002007
:100F800010BD38B5002000900024002500BF31209E
:100F9000FFF7DBFF05460098401C00900098B0F575
:100FA000A06F01D0002DF2D03120FFF7CEFF08B1A5
:100FB000012400E00024204638BD014600209F4A5D
:100FC000106820F0F80040EAC100106070479E49A8
:100FD0000860704702460020984B586820F47C1047
:100FE00042EA01031843954B5860704796490866DA
:100FF000704701460020914A506820F003000843E2
:10100000506070478D48406800F00C007047014602
:1010100000208A4A506820F0F00008435060704772
:1010200001460020854A506820F4E0600843506083
:10103000704701460020814A506820F4605040EA21
:10104000C1005060704729B17C4A527A02437B4B01
:101050005A7204E0794A527A8243784B5A72704746
:101060007A490860704701460020744A506820F4AD
:1010700040400843506070470021754A11706F4A24
:1010800082F82010012802D0042808D103E00121B1
:101090006F4A117004E005216D4A117000E000BF35
:1010A00000BF70476B49086070476449096A014393
:1010B000624A11627047674944390860704730B529
:1010C00000210022002400235C4D6D6805F00C0116
:1010D00021B1042905D0082923D105E05E4D056022
:1010E00022E05D4D05601FE0544D6D6805F47012FF
:1010F000524D6D6805F48034022505EB92421CB90F
:10110000564D554305600BE04C4D6D6815F4003F9E
:1011100003D0524D5543056002E04F4D55430560E5
:1011200002E04D4D056000BF00BF444D6D6805F005
:10113000F00109094A4D6B5C0568DD4045603F4D93
:101140006D6805F4E061090A454D6B5C4568DD405A
:1011500085603A4D6D6805F46051C90A404D6B5C7D
:101160004568DD40C560354D6D6805F44041890B2B
:101170003C4D6B5CC568B5FBF3F5056130BD29B12D
:101180002E4A526902432D4B5A6104E02B4A5269A0
:1011900082432A4B5A61704729B1284A9269024317
:1011A000264B9A6104E0254A92698243234B9A6157
:1011B000704729B1214AD2690243204BDA6104E029
:1011C0001E4AD26982431D4BDA61704729B11B4A1E
:1011D000D2680243194BDA6004E0184AD2688243AD
:1011E000164BDA60704729B1144A12690243134B57
:1011F0001A6104E0114A12698243104B1A61704768
:1012000014494039086070470F49C86470470B495A
:10121000C87170470948406A40F0807007494862C9
:10122000704701460020054A92680A4201D0012019
:1012300000E00020704701498872704700100240AA
:101240000000FFF8FFFFF6FE00004242D8004242D5
:10125000201002408004424200127A0000093D0042
:10126000500000206000002010B50446FB48844276
:1012700009D101218803FFF7A9FF00214FF4804025
:10128000FFF7A4FF32E0F648844209D10121480467
:10129000FFF7A9FF00214FF40030FFF7A4FF25E07E
:1012A000F048844209D101218804FFF79CFF002106
:1012B0004FF48020FFF797FF18E0EB48844209D1F4
:1012C0000121C804FFF78FFF00214FF40020FFF732
:1012D0008AFF0BE0E548844208D101210805FFF7A9
:1012E00082FF00214FF48010FFF77DFF10BD2DE934
:1012F000F04786B005460E460024A24600BFA14630
:101300000027B08900B100BF2F462C8A4CF6FF7031
:101310000440F08804432C82AC894EF6F31004405C
:10132000B08831890843718908430443AC81AC8A91
:101330004FF6FF400440B0890443AC8201A8FFF798
:10134000BEFEC648874202D1DDF810A001E0DDF8FC
:101350000CA0A88910F4004F08D00AEBCA0000EBDB
:101360000A1031684900B0FBF1F807E00AEBCA0047
:1013700000EB0A1031688900B0FBF1F86420B8FB7B
:10138000F0F004012009642101FB1089A88910F400
:10139000004F08D0322000EBC900B0FBF1F000F0A4
:1013A0000700044308E0322000EB09106421B0FB81
:1013B000F1F000F00F0004432C8106B0BDE8F08787
:1013C0004FF41651016000218180C18001810C2100
:1013D000418100218181704710B502460020108AAA
:1013E0004FF2FF0318400B884C8823438C8823431B
:1013F000CC8823431843108210BD00210180418016
:101400008180C180704721B1828942F4005282817B
:1014100004E082894DF6FF731A4082817047F0B56F
:1014200003460024002600250020A1F510676A3F2E
:1014300000D100BF1846C1F3421401F01F06012776
:1014400007FA06F5012C01D10C3004E0022C01D181
:10145000103000E014301AB107682F43076002E033
:101460000768AF430760F0BD1AB1838A0B438382DC
:1014700002E0838A8B4383827047028A4FF6F073BF
:101480001A400282028A0A430282704782894FF21E
:10149000FF731A40828182890A438281704721B199
:1014A000828942F00202828104E082894FF6FD7354
:1014B0001A4082817047028A4FF6DF731A40028217
:1014C000028A0A430282704721B1028A42F48042B2
:1014D000028204E0028A4BF6FF731A4002827047D0
:1014E000C1F308028280704701468888C0F3080073
:1014F0007047818941F0010181817047028BD2B22E
:101500000283028B42EA012202837047028B02F4BB
:101510007F420283028B0A430283704721B1828A91
:1015200042F02002828204E0828A4FF6DF731A4082
:101530008282704721B1828A42F01002828204E0E6
:10154000828A4FF6EF731A408282704721B1828AF5
:1015500042F00802828204E0828A4FF6F7731A4052
:101560008282704721B1828942F40042828103E085
:101570008289C2F30E028281704721B1828A42F4CD
:101580000062828204E0828A4FF2FF731A408282F4
:101590007047828A4FF6FB731A408282828A0A431E
:1015A0008282704721B1828A42F00202828204E084
:1015B000828A4FF6FD731A408282704702460020ED
:1015C000B1F5007F00D100BF13880B4201D001208C
:1015D00000E00020704701F40072B2F5007F00D1F6
:1015E00000BFCA430280704770B502460024002342
:1015F00000250020A1F510666A3E00D100BFC1F3AE
:10160000421501F01F03012606FA03F3012D02D152
:101610009689334006E0022D02D1168A334001E05C
:10162000968A33400C12012606FA04F416883440D8
:1016300013B10CB1012000E0002070BD10B50022F4
:101640000023A1F510646A3C00D100BF0A120124F6
:101650009440A3B2DC43048010BD00000038014078
:101660000044004000480040004C00400050004052
:1016700010B50446FE48844208D10121C014FFF78A
:10168000A5FD0021E014FFF7A1FDC4E0B4F1804FF7
:1016900008D101210846FFF7A6FD00210120FFF730
:1016A000A2FDB8E0F348844208D101210220FFF7EF
:1016B0009AFD00210220FFF796FDACE0EE4884423F
:1016C00008D101210420FFF78EFD00210420FFF73F
:1016D0008AFDA0E0E948844208D101210820FFF7F3
:1016E00082FD00210820FFF77EFD94E0E44884425B
:1016F00008D101211020FFF776FD00211020FFF70F
:1017000072FD88E0DF48844208D101212020FFF7E4
:101710006AFD00212020FFF766FD7CE0DA48844264
:1017200008D101214014FFF751FD00216014FFF79B
:101730004DFD70E0D548844209D10121C804FFF76E
:1017400045FD00214FF40020FFF740FD63E0D04845
:10175000844209D101210805FFF738FD00214FF42B
:101760008010FFF733FD56E0CA48844209D10121B9
:101770004805FFF72BFD00214FF40010FFF726FD71
:1017800049E0C548844208D101214020FFF72BFDE4
:1017900000214020FFF727FD3DE0C048844208D1EA
:1017A00001218020FFF71FFD00218020FFF71BFD96
:1017B00031E0BB48844208D101218015FFF713FDB9
:1017C0000021A015FFF70FFD25E0B648844209D19E
:1017D00001210804FFF7FAFC00214FF48030FFF7E5
:1017E000F5FC18E0B048844209D101214804FFF714
:1017F000EDFC00214FF40030FFF7E8FC0BE0AB48B4
:10180000844208D101218804FFF7E0FC00214FF455
:101810008020FFF7DBFC10BD00220288944B984229
:101820000ED0994B98420BD0B0F1804F08D0914B1D
:10183000984205D0904B984202D0904B984204D1E8
:101840004FF68F731A404B881A438D4B984207D03E
:101850008C4B984204D04FF6FF431A40CB881A4372
:1018600002808B8883850B880385814B98420BD03F
:10187000854B984208D08B4B984205D08A4B9842B2
:1018800002D08A4B984201D10B7A038601238382CE
:10189000704770B5002400220023058C4FF6FE76B9
:1018A00035400584028C8388048B4FF68F752C405D
:1018B000B51E2C400D882C43751E2A400D892A43E5
:1018C0004D882A436A4DA8420BD06F4DA84208D0DC
:1018D000744DA84205D0744DA84202D0734DA84261
:1018E00013D14FF6F7752A404D892A434FF6FB7501
:1018F0002A408D882A434FF6FF652B404FF6FF554F
:101900002B408D892B43CD892B4383800483CD8845
:101910008586028470BD70B5002400220023058CEA
:101920004FF6EF7635400584028C8388048B48F6A9
:10193000FF752C404FF6FF452C400D884FF6FF7683
:1019400006EA05252C434FF6DF752A400D8906EA85
:1019500005152A434D8806EA05152A43444DA84239
:1019600002D0494DA8421DD14FF67F752A404D89BE
:101970004FF6FF7606EA05152A434FF6BF752A4053
:101980008D8806EA05152A434FF6FF352B404FF2A6
:10199000FF752B408D8906EA85052B43CD8906EA24
:1019A00085052B4383800483CD880587028470BD21
:1019B00070B5002400220023058C4FF6FF663540E9
:1019C0000584028C8388848B4FF68F752C404FF6EC
:1019D000FC752C400D882C434FF6FF552A400D898D
:1019E0004FF6FF7606EA05252A434D8806EA0525C7
:1019F0002A431F4DA84202D0234DA8421DD14FF2C9
:101A0000FF752A404D894FF6FF7606EA05252A43E1
:101A10004FF6FF352A408D8806EA05252A434EF603
:101A2000FF752B404DF6FF752B408D8906EA051595
:101A30002B43CD8906EA05152B4383808483CD880B
:101A40008587028470BD70B5002200230024058CB8
:101A50004EF6FF7635400584038C8488828B48F6E9
:101A6000FF752A404FF6FF452A400D8820E0000010
:101A7000002C01400004004000080040000C004021
:101A8000001000400014004000340140004C0140B0
:101A9000005001400054014000180040001C00406C
:101AA0000020004000400140004401400048014047
:101AB0004FF6FF7606EA05252A434DF6FF752B40C3
:101AC0000D8906EA05352B434D8806EA05352B437B
:101AD000FA4DA84202D0FA4DA84208D14BF6FF7544
:101AE0002C408D894FF6FF7606EA85152C438480BD
:101AF0008283CD88A0F84050038470BD828B4FF262
:101B0000FF331A408283828B4FF6FF7303EA01236F
:101B10001A4382837047F0B50C4615460022002117
:101B20000026078C4EF6FF7C07EA0C070784828BA1
:101B3000018C4FF6FF7707EA043640F6FF473A403C
:101B40004FF6FF7707EA05273A434FF6FF7707EA94
:101B500003373A43D94FB8420ED0D94FB8420BD0D1
:101B6000B0F1804F08D0D74FB84205D0D64FB84219
:101B700002D0D64FB84206D14DF6FF77394046F431
:101B80008057394305E047F6FF57394044F4805702
:101B9000394382830184F0BD828B4FF6F3731A4080
:101BA0008283828B0A4382837047F0B50C461546C8
:101BB000002200210026078C4FF6FF6C07EA0C0775
:101BC0000784828B018C4FF6FF7707EA04264FF6D5
:101BD0000C773A404FF6FF7707EA03172F433A4353
:101BE000B64FB8420ED0B64FB8420BD0B0F1804FCE
:101BF00008D0B44FB84205D0B34FB84202D0B34F6B
:101C0000B84206D14FF6FF57394046F48077394342
:101C100005E04FF2FF57394044F48077394382831F
:101C20000184F0BD028B4FF2FF331A400283028B16
:101C30004FF6FF7303EA01231A4302837047F0B59E
:101C40000C461546002200210026078C4FF6EF7C3B
:101C500007EA0C070784028B018C4FF6FF7707EA2F
:101C6000041640F6FF473A404FF6FF7707EA03377E
:101C70003A434FF6FF7707EA05273A438F4FB842BA
:101C80000ED08F4FB8420BD0B0F1804F08D08D4F9F
:101C9000B84205D08C4FB84202D08C4FB84206D122
:101CA0004FF6DF77394046F01007394305E04FF62D
:101CB0005F77394044F01007394302830184F0BD57
:101CC000028B4FF6F3731A400283028B0A4302839E
:101CD0007047F0B50C46154600220021068C4FF6E1
:101CE000FE773E400684028B018C4FF60C76324024
:101CF0007E1C06EA03162E433243704EB0420ED0CD
:101D00006F4EB0420BD0B0F1804F08D06D4EB04254
:101D100005D06D4EB04202D06C4EB04206D14FF6A7
:101D2000FD76314044F00106314305E04FF6F5768B
:101D3000314044F00106314302830184F0BD70B5A7
:101D400005460C465D4885420ED05D4885420BD065
:101D5000B5F1804F08D05B48854205D05A4885428E
:101D600002D05A48854200D100E000BF208850B917
:101D70002389A28861882846FFF7ABFFE1882846BF
:101D8000FFF79EFF25E0208804280AD12389A28836
:101D900061882846FFF753FFE1882846FFF742FF96
:101DA00017E0208808280AD12389A288618828465C
:101DB000FFF7FBFEE1882846FFF7EEFE09E02389E6
:101DC000A28861882846FFF7A6FEE1882846FFF72B
:101DD00095FE70BD2DE9F04105460C460026012711
:101DE000608808B9022600E00026A088012801D1F9
:101DF000022700E001272088A0B92389A2886188F2
:101E00002846FFF766FFE1882846FFF759FF238938
:101E10003A4631462846FFF712FFE1882846FFF789
:101E200001FF13E02389A28861882846FFF707FF96
:101E3000E1882846FFF7F6FE23893A4631462846D0
:101E4000FFF747FFE1882846FFF73AFFBDE8F0813A
:101E50000A884B881A438B881A43CB881A430B890C
:101E60001A434B891A438B891A43A0F844207047C0
:101E70004FF6FF71818000210180C1804180017295
:101E800070470021018041808180C18001814181B2
:101E90008181C181704700210180418001218180C1
:101EA0000021C18001817047002101804180818033
:101EB000C18001814181818170470000002C014077
:101EC000003401400004004000080040000C0040C5
:101ED00021B1028842F00102028004E002884FF63C
:101EE000FE731A400280704731B1B0F8442042F4CA
:101EF0000042A0F8442005E0B0F84420C2F30E02EE
:101F0000A0F8442070471AB183890B43838102E013
:101F100083898B43838170478182704741EA020342
:101F2000A0F8483070471AB183890B43838102E0DF
:101F300083898B438381704701894FF6F872114082
:101F4000018170470A46002101894FF68F731940BD
:101F500011430181704730B504460D46294620469D
:101F6000FFF7F0FF208940F00700208130BD2DE908
:101F7000F04104460D4616461F46602D06D13B46ED
:101F8000012231462046FFF75AFE05E03B4601227A
:101F900031462046FFF79DFE29462046FFF7D2FF37
:101FA000208940F007002081BDE8F08130B50C4663
:101FB00000210189C9B24FF6FF7505EA03251543D3
:101FC00025432943018130BD2DE9F04105460E46E8
:101FD00017469846002443463A4631462846FFF7BE
:101FE000E5FF2C894FF6F870044044F007044FF6E3
:101FF0008F70044044F070042C81BDE8F081F0B58E
:1020000004460D4616461F463B46324629462046A4
:10201000FFF7CCFF208940F480402081F0BD01858E
:10202000828270470A46002101884FF68F7319405B
:10203000114301807047F0B50C4615461E4600213D
:10204000002200230189028B038C4FF6F877394078
:1020500021434FF6FC473A4040F201173A434FF60E
:10206000DD773B404FF6FF7707EA06172F433B43E8
:10207000018102830384F0BD0A460021018B4FF6E3
:102080008F7319401143018370470A460021018B69
:1020900048F6FF7319404FF6FF7303EA0223194312
:1020A000018370470A460021818B4FF68F731940D8
:1020B0001143818370470A460021818B48F6FF73E4
:1020C00019404FF6FF7303EA0223194381837047D7
:1020D00021B1028842F08002028004E002884FF6BB
:1020E0007F731A400280704721B1828842F0040257
:1020F000828004E082884FF6FB731A40828070472A
:1021000021B1828842F00802828004E082884FF682
:10211000F7731A408280704721B1828842F0010231
:10212000828004E082884FF6FE731A4082807047F6
:102130000A460021018B4FF6F773194011430183C2
:1021400070470A460021018B4FF2FF7319404FF68A
:10215000FF7303EA02231943018370470A460021F3
:10216000818B4FF6F77319401143818370470A46FC
:102170000021818B4FF2FF7319404FF6FF7303EA82
:1021800002231943818370470A460021018B4FF6D1
:10219000FB7319401143018370470A460021018BEC
:1021A0004FF6FF3319404FF6FF7303EA022319433A
:1021B000018370470A460021818B4FF6FB7319405B
:1021C0001143818370470A460021818B4FF6FF330C
:1021D00019404FF6FF7303EA0223194381837047C6
:1021E0000A460021018B4FF67F731940114301838A
:1021F00070470A460021018BC1F30E014FF6FF73B1
:1022000003EA02231943018370470A460021818BA8
:102210004FF67F7319401143818370470A460021AE
:10222000818BC1F30E014FF6FF7303EA02231943BA
:10223000818370470A460021018C4FF6FD731940D7
:102240001143018470470A460021018C4FF6F77351
:1022500019401143018470470A460021018C4FF652
:10226000DF7319404FF6FF7303EA02131943018429
:1022700070470A460021018C4FF67F7319404FF6D4
:10228000FF7303EA02131943018470470A460021D1
:10229000018C4FF6FF5319404FF6FF7303EA0223F8
:1022A0001943018470470A460021018C4FF2FF73E5
:1022B00019404FF6FF7303EA022319430184704764
:1022C0000A460021018C4DF6FF7319404FF6FF734B
:1022D00003EA023319430184704730B50023012417
:1022E0008C40A3B2048C9C430484048C02FA01F554
:1022F000ADB22C43048430BD30B5002304248C409F
:10230000A3B2048C9C430484048C02FA01F5ADB2A0
:102310002C43048430BD70B50346002000241846C9
:10232000183001258D40ACB21D8CA5431D8409B128
:10233000082909D100EB6100056825F070050560EA
:102340000568154305600EE00D1FC5F34E052844D2
:10235000056825F4E045056005684FF6FF7606EA56
:1023600002263543056070BD21B1028842F00202A9
:10237000028004E002884FF6FD731A400280704725
:1023800021B1028842F00402028004E002884FF684
:10239000FB731A400280704721B1828842F08002AC
:1023A000828004E082884FF67F731A4082807047F3
:1023B00002884FF6F7731A40028002880A430280AF
:1023C000704782884FF68F731A40828082880A4352
:1023D0008280704702894FF6F8731A4002810289A1
:1023E0000A430281704702894FF67F731A400281C7
:1023F00002890A4302817047818470478185704752
:10240000818670470187704781877047A0F8401028
:10241000704702884FF6FF431A40028002880A4341
:10242000028070470146888E70470146088F7047CA
:102430000146888F70470146B1F840007047014659
:10244000888C70470146088D704702460020138A29
:102450000B4201D0012000E000207047CA430282F5
:10246000704730B50246002000230024158A05EA93
:102470000103958905EA010413B10CB1012000E0C4
:10248000002030BDCA430282704700003149014339
:10249000314A1160704770B5002100230F22C478C3
:1024A0000CB32D4C246804F4E064C4F5E064210A04
:1024B000C1F10403CA40447804FA03F1847814405B
:1024C00021430901254C0678A155047804F01F0525
:1024D0000124AC4005786D114FF0E02606EB850530
:1024E000C5F8004109E0047804F01F050124AC4060
:1024F0001B4D0678761145F8264070BD194A0A40F2
:102500000243154B1B1F1A60704739B1124A121D46
:1025100012680243104B1B1D1A6006E00E4A121D82
:10252000126882430C4B1B1D1A607047042808D1A7
:102530004FF0E021096941F004014FF0E022116100
:1025400007E04FF0E021096921F004014FF0E0229B
:10255000116170470000FA050CED00E000E400E0B6
:1025600080E100E080FFFF1F434A22F00700434A5A
:1025700010600022414B5A6044F2F832404B5A60DE
:1025800000221A60014644F2F8324A601A460A6094
:1025900070472DE9F04104464FF0000800F057FE67
:1025A0003848006820B9FFF7DFFF0120354908608F
:1025B00044B1083414F0070F04D004F00700C0F150
:1025C00008000444002C32D044F2F83084422ED269
:1025D0002A4F3846056801E02F462D686868A042FA
:1025E00002D228680028F7D1254885421FD03868D4
:1025F00000F10808286838606868001B102810D9A6
:102600002E196868001B70606C6071681B4800E0E0
:102610000068026852688A42FAD302683260066033
:1026200000BF194968680968081A1749086000F06E
:1026300069FD4046BDE8F08170B506463546B6B145
:10264000083D2C4600F003FE61680C4800E000687D
:10265000026852688A42FAD30268226004600A491A
:102660006068096808440849086000F04BFD70BDC7
:102670000548006870477047880100206C00002002
:1026800074000020680000206400002000F10801B0
:1026900041604FF0FF31816000F10801C1600161CC
:1026A00000210160704700210161704742684A6063
:1026B00093688B60936859609160086103685B1C44
:1026C0000360704710B502460B685C1C01D11069AD
:1026D00007E002F1080000E04068446824689C427A
:1026E000FAD944684C604C68A160886041600A6116
:1026F0001468641C146010BD01460A69D1E90130F8
:102700009860D1E9010358605068884201D1886817
:102710005060002008611068401E1060106870470B
:10272000FDF7A0FD00BFFEE7001F4FF080730360C0
:10273000001F0160001F2B4B03601438026020381B
:10274000704729484FF0E021486107200861704731
:1027500010B52648006840F4700024490860084617
:10276000006840F070400860FFF7EBFF0020204950
:102770000860FDF745FD002010BD70474FF0805008
:102780001A491C390860BFF34F8FBFF36F8F704732
:1027900010B5FDF767FD16480068401C1449086035
:1027A000BFF34F8FBFF36F8F10BD10B51048006897
:1027B000401E0F4908600846006810B90020FDF768
:1027C00058FD10BD10B5FDF74DFD00F022FC20B105
:1027D0004FF0805005491C3908600020FDF749FD85
:1027E00010BD0000212700087FFC0A0020ED00E05A
:1027F0007C00002070B505460E462C46FFF7C8FF4A
:10280000D4E90F12206801FB020060600020A06381
:102810002068A060E06B401E226C216800FB021063
:10282000E0604FF0FF306064A06476B9206908B9B9
:10283000012000E0002080B904F1100000F0D4FF76
:1028400001280AD1FFF79AFF07E004F11000FFF713
:102850001DFF04F12400FFF719FFFFF7A6FF012079
:1028600070BD2DE9F04706460D4691464FF0000831
:102870000DB9002702E006FB05F0471C07F14C00EC
:10288000FFF787FE044664B10DB9246002E004F14D
:102890004C002060E663256401212046FFF7AAFF73
:1028A000A0464046BDE8F08770B506460D460222B8
:1028B00000213046FFF7D5FF044604B1A56320464A
:1028C00070BD10B50446FFF763FF11E0606A08B9F8
:1028D000012000E0002038B904F1240000F084FF5A
:1028E00018B101F015F800E005E0A06C401EA064EE
:1028F000A06C0028EADC00BF4FF0FF30A064FFF7B7
:1029000054FFFFF745FF11E0206908B9012000E0FE
:10291000002050B904F1100000F066FF08B100F08B
:10292000F7FF606C401E606400E002E0606C00280D
:10293000EADC00BF4FF0FF306064FFF736FF10BDE8
:1029400070B50546FFF724FFA86BE96B884201D1FB
:10295000012400E00024FFF728FF204670BD2DE988
:10296000F04104460E4615460027206C40B37DB961
:102970003146226CA06801F087FA216CA0680844F7
:10298000A060D4E9011088421AD32068A06017E043
:102990003146226CE06801F077FA216CE068401A59
:1029A000E0602168E068884203D2216C6068401AC8
:1029B000E060022D04D1A06B10B1A06B401EA0639B
:1029C000A06B401CA0633846BDE8F0812DE9FF43B1
:1029D00083B0074688461D464FF000093C4600BFBD
:1029E000FFF7D6FEA06BE16B884201D3022D1DD10B
:1029F0002A4641462046FFF7B2FF0646606A08B9FC
:102A0000012000E0002040B904F1240000F0ECFEB9
:102A1000012805D1FFF7B2FE02E00EB1FFF7AEFECE
:102A2000FFF7C3FE012007B0BDE8F083059818B991
:102A3000FFF7BBFE0020F6E7B9F1000F04D101A8B3
:102A400000F035FF4FF00109FFF7AFFE00F0FFFB8C
:102A5000FFF79EFE606C401C00D16064A06C401CBF
:102A600000D1A064FFF7A1FE05A901A800F026FF90
:102A7000C0B92046FFF764FF70B104F1100005995A
:102A800000F056FE2046FFF71CFF00F03BFB00283D
:102A9000A6D1FFF773FEA3E72046FFF712FF00F071
:102AA00031FB9DE72046FFF70CFF00F02BFB0020D9
:102AB000B9E72DE9F0470546894616461F462C46DC
:102AC000FDF7D0FB8246A06BE16B884201D3022F59
:102AD0001CD13A4649462046FFF741FFA06C401CF6
:102AE0000ED1606A08B9012000E0002058B904F155
:102AF000240000F079FE30B12EB10120306002E0F8
:102B0000A06C401CA0644FF0010801E04FF00008E9
:102B10005046FDF7AEFB4046BDE8F0872DE9F04199
:102B200005460E462C46FDF79DFB8046A06BE16BEB
:102B3000884219D2A06B401CA063A06C401C0ED12F
:102B4000606A08B9012000E0002058B904F12400AF
:102B500000F04AFE30B12EB10120306002E0A06CDE
:102B6000401CA064012700E000274046FDF781FBE0
:102B70003846BDE8F08170B50546FFF709FEA86B41
:102B800008B9012400E00024FFF70FFE204670BDC5
:102B900070B504460D46206C70B1216CE0680844A5
:102BA000E0606168E068884201D32068E060284600
:102BB000226CE16801F068F970BD2DE9FF4383B034
:102BC000054688461E464FF000092C4600BFFFF719
:102BD000DFFDA06B58B3E76841462046FFF7D8FFFA
:102BE0008EB9A06B401EA063206908B9012000E0E7
:102BF0000020B0B904F1100000F0F6FD012810D15A
:102C0000FFF7BCFD0DE0E760606A08B9012000E055
:102C1000002030B904F1240000F0E6FD08B1FFF710
:102C2000ADFDFFF7C2FD012007B0BDE8F0830598B8
:102C300018B9FFF7BAFD0020F6E7B9F1000F04D18B
:102C400001A800F034FE4FF00109FFF7AEFD00F0DF
:102C5000FEFAFFF79DFD606C401C00D16064A06C23
:102C6000401C00D1A064FFF7A0FD05A901A800F059
:102C700025FEC0B92046FFF77EFF70B104F12400A5
:102C8000059900F055FD2046FFF71BFE00F03AFACB
:102C900000289CD1FFF772FD99E72046FFF711FE4F
:102CA00000F030FA93E72046FFF70BFE00F02AFA17
:102CB0000020B9E72DE9F0470546884616462C4620
:102CC000FDF7D0FA8146A06BE8B141462046FFF7F8
:102CD0005FFFA06B401EA063606C401C0ED120699A
:102CE00008B9012000E0002058B904F1100000F0FC
:102CF0007BFD30B12EB10120306002E0606C401CE1
:102D00006064012700E000274846FDF7B2FA384624
:102D1000BDE8F0872DE9F047054688462C46FDF7CB
:102D2000A1FA8146A06B38B1E76841462046FFF71B
:102D30002FFFE760012600E000264846FDF799FADC
:102D40003046BDE8F08770B50446FFF721FDA56B5E
:102D5000FFF72BFD284670BD70B504462546FFF7EA
:102D600017FDD5E90E10461AFFF71FFD304670BD5E
:102D70000146886B704770B5044625462846FFF724
:102D80005BFC70BD01468A6B0AB9012000E000209F
:102D9000704701468A6BCB6B9A4201D1012000E05B
:102DA0000020704710B5002407E004EB8401F74AC7
:102DB00002EB8100FFF76AFC641C052CF5D3F44894
:102DC000FFF764FCF348FFF761FCF348FFF75EFC94
:102DD000F248FFF75BFCF248FFF758FCEC48F1497A
:102DE0000860EC48F049086010BD2DE9F047044642
:102DF0000F4616469946DDF82080002507E0795DEC
:102E000004F134004155785D00B902E06D1C102DCD
:102E1000F5D300BF002143200155052E00D3042621
:102E2000E662201DFFF73FFC04F11800FFF73BFCB2
:102E30002461C6F10500A06164620020606484F82A
:102E40004800BDE8F0872DE9F04106460F461FB95E
:102E5000B000FFF79EFB00E03846054655B14C2018
:102E6000FFF797FB04460CB1256304E02846FFF703
:102E7000E3FB00E000242046BDE8F0812DE9FF4F90
:102E800081B0804615469946DDE90E7A28461099AC
:102E9000FFF7D9FF0446002C4FD0681E216B01EBD1
:102EA000800B2BF0070B00953A462046119B0299A8
:102EB000FFF79BFF4A4641465846FFF735FC206026
:102EC000BAF1000F01D0CAF80040FFF761FCB74823
:102ED0000068401CB5490860B548006840B9B4486E
:102EE00004600846006801280CD1FFF75BFF09E089
:102EF000B048006830B9AE480068C06AB84201D82E
:102F0000AB480460AC480068401CAB49086094F8CA
:102F10002C1001208840A94909680843A749086086
:102F2000E16A01EB8101994A02EB8100211DFFF763
:102F3000BDFB0126FFF739FC01E04FF0FF36012E03
:102F400009D19C48006830B199480068C06AB8420D
:102F500001D2FFF713FC304605B0BDE8F08F914970
:102F60000968096809B9012100E0002121B14FF089
:102F7000FF31934A116006E08A490968C968C86848
:102F80008F4A41681160704770B50546FFF700FC35
:102F900015B98748006800E028460446201DFFF761
:102FA000ABFB78B9E06A00EB8000784951F820006B
:102FB00040B994F82C100120884080490968814369
:102FC0007E480160A06A18B104F11800FFF794FB75
:102FD000211D7248FFF76AFB7A480068401C794956
:102FE000086075480068401C73490860FFF7DDFB06
:102FF0007048006860B16E480068844202D1FFF7F3
:10300000BDFB05E0FFF7C4FBFFF7A9FFFFF7CDFB12
:1030100070BD2DE9F04100276B480068002865D19C
:103020006A480068401C69490860084606688EB90D
:103030005C48D0F800805C4800685A4908605A48EB
:10304000C0F8008062480068401C61490860FFF7D2
:1030500086FF00BF5A48006886423BD300BF5148F4
:103060000068006808B9012000E0002020B14FF09E
:10307000FF30534908602CE04A480068C068C468C3
:103080006568AE4202D24E48056022E0201DFFF77F
:1030900033FBA06A18B104F11800FFF72DFB94F878
:1030A0002C100120884045490968084343490860BD
:1030B000E16A01EB8101354A02EB8100211DFFF736
:1030C000F5FA3B49E06A0968C96A8842C7D3012713
:1030D000C5E700BF36480068C06A00EB80002B4996
:1030E00051F82000012806D9012704E0394800687A
:1030F000401C384908603848006800B1012738464C
:10310000BDE8F08170B50025FFF742FB2E4800684E
:10311000401E2D49086008460068002874D12348E5
:103120000068002870D024E01B48C068C46804F11F
:103130001800FFF7E1FA201DFFF7DEFA94F82C10D3
:10314000012088401D49096808431C490860E16A5C
:1031500001EB81010D4A02EB8100211DFFF7A6FA68
:103160001349E06A0968C96A884202D301201A49F2
:1031700008600948006808B9012000E00020002824
:10318000D2D01448006800B133E036E0804500201A
:10319000E4450020F84500200C4600202046002091
:1031A00034460020B0000020B40000208800002039
:1031B0008000002094000020A40000209000002047
:1031C000A800002084000020AC0000208C0000201B
:1031D000A0000020980000209C000020FFF719FFAD
:1031E00010B10120FE490860FE480068401EFD49FC
:1031F0000860FC4800680028F0D1F9480068012800
:1032000002D10125FFF7BAFAFFF7CFFA284670BDC1
:1032100010B50446F44800684460F44800688442ED
:1032200007D2F1480168091DF1480068FFF74AFA22
:103230000CE0ED480168091DEE480068FFF742FA0E
:10324000ED480068844201D2EB48046010BDEB48B1
:103250000068401CE949086070472DE9F0470446C2
:1032600088464FF00009FFF7F2FFE0480768206842
:1032700000EB08052068B84207D92068A8420BD99E
:10328000BD4209D94FF0010906E02068A84201D8E3
:10329000BD4201D94FF001092560B9F1000F13D0EB
:1032A000D1480068001DFFF727FA50B9CE480068E2
:1032B00090F82C1001208840D14909688143D048FA
:1032C00001602846FFF7A4FFFFF71CFF06460EB972
:1032D000FFF754FABDE8F08770B504460026DCB16C
:1032E000FFF7B5FFC14800680519BF480068001D19
:1032F000FFF702FA50B9BC48006890F82C10012082
:103300008840BF4909688143BD4801602846FFF7EE
:103310007FFFFFF7F7FE06460EB9FFF72FFA70BDE5
:1033200070B50446FFF734FA14B9AF48006800E0FE
:1033300020460646F56AFFF738FA284670BD2DE9A3
:10334000F0410446FCF78EFF064614B9A648006813
:1033500000E020460746FD6A3046FCF78AFF284613
:10336000BDE8F0812DE9F04780460D464FF0000999
:10337000052D00D30425FFF70BFAB8F1000F02D199
:103380009948006800E040460446E66AAE424BD0E9
:10339000B5420BD99448006884420DD09248006829
:1033A000C06AA84208D84FF0010905E08E480068BD
:1033B000844201D14FF00109E76AE562A06910F08B
:1033C000004F02D1C5F10500A06107EB87018D4ACE
:1033D00002EB81016069884201D1012000E00020F8
:1033E000E0B1201DFFF788F930B90120B8408449C9
:1033F000096881438248016094F82C1001208840BC
:103400007F49096808437E490860E16A01EB810150
:103410007C4A02EB8100211DFFF748F9B9F1010F49
:1034200001D1FFF7ABF900BFFFF7BFF9BDE8F087A7
:103430007248006818B10120694908601DE0002049
:10344000674908606E480068B0FA80F0C0F11F015B
:1034500001EB81026B4B03EB8200426852684260D1
:1034600000F108024368934202D142685268426008
:103470004268D2685C4B1A6000BF704770B5054661
:10348000FFF786F915B95848006800E02846044659
:10349000201DFFF731F978B9E06A00EB8000594947
:1034A00051F8200040B994F82C100120884054496C
:1034B0000968814352480160A06A18B104F11800FC
:1034C000FFF71AF9211D5048FFF7F0F8FFF76DF9E3
:1034D00045480068844212D14C48006810B1FFF79B
:1034E0004DF915E04848006849490968884203D108
:1034F00000203D4908600BE0FFF79AFF08E04348D1
:10350000006828B1FFF744F9FFF729FDFFF74DF9EF
:1035100070BD10B5014600200A463B4C5369A342DA
:1035200001D1012300E0002373B13A4C936AA34216
:1035300001D1012300E0002333B9936A0BB90123C1
:1035400000E0002303B1012010BD70B505462C46F4
:103550004CB325480068844225D0FFF719F920466E
:10356000FFF7D7FF01281CD1201DFFF7C5F894F8FD
:103570002C1001208840224909680843204908602E
:10358000E16A01EB81011F4A02EB8100211DFFF777
:103590008DF81549E06A0968C96A884201D3FFF7C6
:1035A000EDF8FFF702F970BD2DE9F0410546002660
:1035B0002C46FCF757FE07462046FFF7AAFF0128D6
:1035C00042D10E48006850B90749E06A0968C96AE3
:1035D000884200D30126201DFFF78EF81CE02EE064
:1035E0009C00002098000020800000208C0000201B
:1035F000B4000020B0000020A8000020AC00002093
:1036000090000020804500203446002094000020D7
:10361000880000200C46002094F82C1001208840DF
:10362000FE4909680843FD490860E16A01EB810130
:10363000FB4A02EB8100211DFFF738F804E004F19A
:103640001801F848FFF732F83846FCF712FE30460A
:10365000BDE8F08110B50446206BFEF7EDFF204673
:10366000FEF7EAFF10BD70B523E0FFF7F0FDEE486E
:10367000006808B9012000E000200546FFF742FD80
:10368000BDB9FFF785F8E848C068C468201DFFF79A
:1036900033F8E6480068401EE4490860E4480068E2
:1036A000401EE3490860FFF780F82046FFF7D2FF8D
:1036B00000BFDF4800680028D7D170BD00BFFFF70A
:1036C000D2FFD74800680128F9D9FFF757F8F6E785
:1036D0001FB5002000900190029003468022D5A1E2
:1036E0000390D648FFF7CAFB0446012C0CD1FCF727
:1036F000B9FDA01ED24908600120D249086000200F
:10370000D1490860FFF724F81FBD10B5FCF7AAFDEA
:103710000020CC490860FFF730F810BDCA4908689E
:1037200070470021C84A10687047C0480068704759
:1037300070B506460C46C548016818313046FEF79C
:10374000C1FFC2480068001DFEF7D6FF50B9BF4850
:10375000006890F82C1001208840B0490968814326
:10376000AE480160601C06D1B8480168091DB84820
:10377000FEF79CFF05E0B448006805192846FFF7EE
:1037800047FD70BD2DE9F04107460D46144645F052
:103790000040AE4909688861AC4801681831384674
:1037A000FEF784FFA9480068001DFEF7A5FF50B989
:1037B000A648006890F82C100120884097490968B5
:1037C000814396480160601C06D1A0480168091D2C
:1037D0009F48FEF76BFF05E09B48006806193046DE
:1037E000FFF716FDBDE8F08170B50646F068C468C5
:1037F00004F11800FEF780FF96480068A8B9201D64
:10380000FEF77AFF94F82C1001208840834909685C
:10381000084382490860E16A01EB8101804A02EBBA
:103820008100211DFEF742FF04E004F118017D48EC
:10383000FEF73CFF8549E06A0968C96A884204D9F5
:10384000012501208449086000E00025284670BD5C
:103850002DE9F04105460F4647F000402860EC682E
:103860002846FEF749FF201DFEF746FF94F82C106E
:103870000120884069490968084368490860E16A8D
:1038800001EB8101664A02EB8100211DFEF70EFF6C
:103890006E49E06A0968C96A884204D90126012094
:1038A0006D49086000E000263046BDE8F0816B49B4
:1038B00009680160644909684160704770B5044651
:1038C0000D46FEF765FF604802682868401C01D17C
:1038D000002619E0614920680968884204D06068C0
:1038E000904201D801260FE06068101A29688842CA
:1038F00009D228686168511A401A28602046FFF7EB
:10390000D6FF002600E00126FEF74FFF304670BDCF
:1039100001205149086070474C49096888694B4942
:103920000968C96AC1F10501484A12689161704786
:103930002DE9F04106460C46FEF72AFF4348006891
:10394000406C38BB01204149096881F848000CB33C
:103950003E480068001DFEF7CFFE50B93B480068A6
:1039600090F82C10012088402C49096881432B488D
:103970000160601C06D135480168091D3448FEF716
:1039800095FE05E03048006807193846FFF740FC0F
:10399000FEF7F4FEFEF709FFFEF7FAFE2B4800687B
:1039A000456C65B126B1002028490968486406E0E5
:1039B0002649096801F14400496C491E0160002054
:1039C0002249096881F84800FEF7EFFE2846BDE865
:1039D000F0812DE9F0470746884615461C46FEF75C
:1039E000D7FE1A48006890F84800022854D01749BA
:1039F000096801F14400496CB94301600120134991
:103A0000096881F8480044B110480068001DFEF7BD
:103A100073FE28BB0D48006823E03DE090000020C5
:103A2000804500200C460020204600208800002011
:103A30008400002049444C4500000000BD360008C9
:103A4000A8000020940000208C00002080000020AE
:103A500034460020AC0000209C000020A000002084
:103A600008E090F82C1001208840984909688143AB
:103A700096480160601C06D195480168091D95486B
:103A8000FEF714FE06E09448006800EB040948467F
:103A9000FFF7BEFBFEF772FEFEF787FEFEF778FE2D
:103AA0001DB18B480068406C28608948006890F818
:103AB0004800012801D1002608E08549096801F184
:103AC0004400496C21EA0801016001260020804978
:103AD000096881F84800FEF768FE3046BDE8F087C7
:103AE0002DE9F04781460D4616461F464FF0010A64
:103AF0004C46FEF74DFE0FB1606C386094F848807C
:103B0000022084F84800052E17D2DFE806F01503DE
:103B1000070B0D00606C284360640EE0606C401C75
:103B200060640AE0656408E0B8F1020F01D06564E2
:103B300001E04FF0000A00E000BF00BFB8F1010F44
:103B40001CD1201DFEF7D8FD94F82C1001208840D0
:103B50005E49096808435D490860E16A01EB81013B
:103B60005E4A02EB8100211DFEF7A0FD5849E06A84
:103B70000968C96A884201D9FEF700FEFEF715FE02
:103B80005046BDE8F0872DE9F84F81460D461646B0
:103B90001F46DDF828A04FF0010B4C46FCF762FBF6
:103BA00000900FB1606C386094F84880022084F86F
:103BB0004800052E17D2DFE806F01503070B0D00AD
:103BC000606C284360640EE0606C401C60640AE036
:103BD000656408E0B8F1020F01D0656401E04FF0C0
:103BE000000B00E000BF00BFB8F1010F29D13C4835
:103BF0000068A8B9201DFEF77FFD94F82C10012065
:103C0000884032490968084330490860E16A01EB9D
:103C10008101324A02EB8100211DFEF747FD04E0DD
:103C200004F118012F48FEF741FD2949E06A0968AF
:103C3000C96A884205D9BAF1000F02D00120CAF83A
:103C400000000098FCF715FB5846BDE8F88F2DE9F9
:103C5000F04105460E462C46FCF704FB804694F8DE
:103C60004870022084F84800606C401C6064012F9A
:103C700026D11B480068A8B9201DFEF73DFD94F829
:103C80002C10012088401149096808430F49086039
:103C9000E16A01EB8101114A02EB8100211DFEF76F
:103CA00005FD04E004F118010E48FEF7FFFC084989
:103CB000E06A0968C96A884202D90EB10120306001
:103CC0004046FCF7D6FABDE8F081000090000020E5
:103CD00080000020344600208C0000208045002019
:103CE000AC0000200C460020704700000FB40449CF
:103CF00010B503AA029800F083F910BC5DF814FB1C
:103D00004C00002070B50C460546012A05D02878E5
:103D1000800600D5EA69002302E0012305E05B1C70
:103D2000934202D2E05C0028F9D1A869E618C01AD3
:103D3000A861286A184428622846AFF3008004E08E
:103D4000D5E9012114F8010B9047B442F8D3284675
:103D5000AFF3008070BD00002DE9F041064600245D
:103D600010687529314616A511D0AFF300800028E0
:103D700003DAC0F1000013A507E031688A0701D516
:103D800011A502E0490704D510A5012401E0AFF315
:103D9000008000210A2306F1240707E0B0FBF3F2BC
:103DA00003FB1200303078541046491C0028F5D12E
:103DB00023462A463046BDE8F04100F0AEB8000088
:103DC000000000002D0000002B000000200000007B
:103DD0002DE9F0410F460546002028622846E96893
:103DE000884770B3252805D0D5E901219047286A76
:103DF000401CF2E7E9682846002688476C280446FC
:103E00000AD0682C08D04C2C35D06A2C31D0742CB8
:103E100031D07A2C2FD016E0E9680646284688472C
:103E2000B042044608D16C2E23D04FF48066284659
:103E3000E9688847044606E06C2E03D04FF480768C
:103E400001E01EE04026E4B1A4F14100192802D8A7
:103E5000203446F400663A46214628462E60FCF798
:103E6000A1F960B1012808D0FF1D27F00707083726
:103E7000B4E78026DBE70026D9E73F1DAEE7204602
:103E8000B2E7286ABDE8F081032A40F2308010F0E2
:103E9000030C00F0158011F8013BBCF1020F6244E5
:103EA00098BF11F801CB00F8013B38BF11F8013B76
:103EB000A2F1040298BF00F801CB38BF00F8013B23
:103EC00011F0030300F0AE80083AC0F0088051F80A
:103ED000043B083A51F804CBA0E80810F5E7121D9E
:103EE0005CBF51F8043B40F8043BAFF30080D207BD
:103EF00024BF11F8013B11F801CB48BF11F8012B89
:103F000024BF00F8013B00F801CB48BF00F8012BAB
:103F1000704770477047704770472DE9F0470D466E
:103F200099469246044600F124080168880604D5A3
:103F3000E06921F01001216000E00120A84202DDCB
:103F4000A0EB050700E00027A16907EB050202EBE3
:103F50000900A1EB0000A0612078C00602D4204631
:103F6000AFF30080002608E0D4E901211AF806002A
:103F70009047206A401C761C20624E45F4DB207876
:103F8000C0060AD52046AFF3008006E0D4E901213F
:103F900030209047206A401C2062381EA7F101079C
:103FA000F4DC07E0D4E9012118F805009047206A05
:103FB000401C2062281EA5F10105F3DC2046AFF36A
:103FC00000802078000602D50220BDE8F08701209D
:103FD000FBE710B5436913B1AFF3008001E0FFF7D1
:103FE00091FE012010BD127800F124010A70002218
:103FF0004A700122EDE711684FF0FF32E9E7000057
:10400000074B70B50D467B4400F043F80446284644
:1040100000F052F810B14FF0FF3070BD204670BD77
:10402000E5C9FFFF10B5203AC0F00B80B1E8185089
:10403000203AA0E81850B1E81850A0E81850BFF492
:10404000F5AF5FEA027C24BFB1E81850A0E8185031
:1040500044BF18C918C0BDE810405FEA827C24BF85
:1040600051F8043B40F8043B08BF7047D20728BF13
:1040700031F8023B48BF11F8012B28BF20F8023B62
:1040800048BF00F8012B704701694A1C026108789B
:10409000704700B58FB0CDE9013100210591054988
:1040A0007944CDE9031011466846FFF791FE0FB041
:1040B00000BD0000E5FFFFFF007B00F080007047BF
:1040C000754600F029F8AE4605006946534620F0D3
:1040D0000700854618B020B5FCF736FDBDE8204046
:1040E0004FF000064FF000074FF000084FF0000BB4
:1040F00021F00701AC46ACE8C009ACE8C009ACE867
:10410000C009ACE8C0098D4670470446AFF3008093
:104110002046FCF75CF80000004870474846002045
:10412000537472696E672031200D0A0053747269EE
:104130006E672032200D0A00537472696E67203357
:10414000200D0A00537472696E6720302C2064655C
:104150006D6F20666F722074657374206E6F7720A8
:104160000D0A00008441000800000020B800000093
:104170006C0100083C420008B8000020F04B000031
:104180008801000844410008204100082C41000833
:10419000384100080000000000000000000000009E
:1041A0000000000000A24A0400000000000000001F
:1041B00001020304060708090000000000000000D7
:1041C00000000000000000000000000000000000EF
:1041D00000000000000000000102030401020304CB
:1041E0000607080902040608F84300000000000062
:1041F00000000000000000000000000000000000BF
:10420000AAAAAAAA00000000000000000000000006
:10421000000000000000000000000000000000009E
:10422000000000000000000000000000000000008E
:0C42300000000000000000000000000082
:0400000508000131BD
:00000001FF
