:020000040800F2
:10000000C0070020CD01000875050008BD040008E8
:100010007105000811030008A30B00080000000090
:10002000000000000000000000000000450700087C
:1000300015030008000000000D0600082D08000848
:10004000E7010008E7010008E7010008E7010008F0
:10005000E7010008E7010008E7010008E7010008E0
:10006000E7010008E7010008E7010008E7010008D0
:10007000E7010008E7010008E7010008E7010008C0
:10008000E7010008E7010008E7010008E7010008B0
:10009000E7010008E7010008E7010008E7010008A0
:1000A000E7010008E7010008E7010008E701000890
:1000B000E7010008E7010008E7010008E701000880
:1000C000E7010008E7010008E7010008E701000870
:1000D000E701000811090008E7010008E70100082E
:1000E000E7010008E7010008E7010008E701000850
:1000F000E7010008E7010008E7010008E701000840
:10010000E7010008E7010008E7010008E70100082F
:10011000E7010008E7010008E7010008E70100081F
:10012000E7010008E7010008E7010008E70100080F
:1001300000F002F800F03AF80AA090E8000C8244BF
:100140008344AAF10107DA4501D100F02FF8AFF29C
:10015000090EBAE80F0013F0010F18BFFB1A43F0A5
:1001600001031847240E0000440E0000103A24BF7B
:1001700078C878C1FAD8520724BF30C830C144BF0C
:1001800004680C607047000000230024002500264E
:10019000103A28BF78C1FBD8520728BF30C148BFEA
:1001A0000B6070471FB51FBD10B510BD00F06EF895
:1001B0001146FFF7F7FF00F079FD00F09FF803B458
:1001C000FFF7F2FF03BC00F0EEFC00000948804797
:1001D00009480047FEE7FEE7FEE7FEE7FEE7FEE729
:1001E000FEE7FEE7FEE7FEE704480549054A064B41
:1001F00070470000B108000831010008C00100206C
:10020000C0070020C0030020C0030020704700008A
:100210000FB4044910B503AA029800F009F810BC05
:100220005DF814FB2C000020704770477047704742
:10023000074B70B50D467B4400F011F80446284684
:1002400000F020F810B14FF0FF3070BD204670BDB7
:100250009709000001694A1C02610878704700B5DF
:100260008FB0CDE901310021059105497944CDE9EF
:1002700003101146684600F02EF80FB000BD0000D4
:10028000E5FFFFFF007B00F080007047754600F03F
:100290003BF8AE4605006946534620F00700854608
:1002A00018B020B5FFF7A0FFBDE820404FF00006D2
:1002B0004FF000074FF000084FF0000B21F007014E
:1002C000AC46ACE8C009ACE8C009ACE8C009ACE891
:1002D000C0098D4670472DE9F04106460024D6E955
:1002E0000170F568804602E04146B847641C30461C
:1002F000A8470028F8D12046BDE8F0810446AFF3B6
:1003000000802046FFF75BFF004870476001002037
:1003100000BFFEE770472DE9F041024600250026A8
:10032000002000230024002791F803C00CF00F05E3
:1003300091F803C01CF0100F03D091F802C04CEAF2
:10034000050591F800C0BCF1000F31D01468002001
:100350002BE04FF0010C0CFA00F3B1F800C00CEAEE
:1003600003069E4220D183004FF00F0C0CFA03F7D6
:10037000BC4305FA03FC4CEA040491F803C0BCF149
:10038000280F06D14FF0010C0CFA00FCC2F814C083
:100390000AE091F803C0BCF1480F05D14FF0010C01
:1003A0000CFA00FCC2F810C0401C0828D1D314601D
:1003B000B1F800C0BCF1FF0F34DD546800202EE01E
:1003C00000F1080C4FF0010808FA0CF3B1F800C076
:1003D0000CEA03069E4221D183004FF00F0C0CFA69
:1003E00003F7BC4305FA03FC4CEA040491F803C08C
:1003F000BCF1280F05D100F1080C08FA0CF8C2F87E
:10040000148091F803C0BCF1480F07D100F1080C2B
:100410004FF0010808FA0CF8C2F81080401C0828B8
:10042000CED35460BDE8F081F0B50A460023002425
:100430000021002500F00046B6F1004F02D11D4E0C
:10044000F16901E01B4E7168C0F3034583B200F40B
:100450004016B6F5401F08D121F07061154E766840
:1004600026F07066134F7E6012E000F48016B6F539
:10047000801F06D1032606FA05F4A14341F07061FE
:1004800006E0460D360103FA06F6B14341F070610D
:1004900022B1460D360103FA06F6314300F000465C
:1004A000B6F1004F02D1034EF16101E0014E7160DF
:1004B000F0BD0000000001400161704700BFFEE791
:1004C00008B50121142000F0B3F801211148FFF70D
:1004D000ABFF4FF40040ADF8000048208DF803005A
:1004E00069460D48FFF717FF2020ADF800004820AF
:1004F0008DF8030069460948FFF70DFF0120ADF8AC
:10050000000028208DF8030069460348FFF703FF29
:1005100008BD00000002300000080140001001404A
:1005200008B50121242000F083F84FF48070ADF865
:10053000000010208DF8030003208DF802006946AA
:100540000948FFF7E8FE4FF480710748FFF7B4FF52
:100550000420ADF8000069460448FFF7DCFE0421E2
:100560000248FFF7A9FF08BD000801400014014040
:1005700000BFFEE7704710B54FF4A06000F03CF8F4
:1005800010BD000070B5002100230F22C4780CB309
:10059000164C246804F4E064C4F5E064210AC1F157
:1005A0000403CA40447804FA03F1847814402143D8
:1005B00009010F4C0678A155047804F01F050124A9
:1005C000AC4005786D114FF0E02606EB8505C5F8C7
:1005D000004109E0047804F01F050124AC40054DFA
:1005E0000678761145F8264070BD00000CED00E05D
:1005F00000E400E080E100E002490143024A1160AA
:10060000704700000000FA050CED00E070470000A4
:1006100029B1064A12690243044B1A6104E0034AF5
:1006200012698243014B1A617047000000100240BA
:1006300029B1064A92690243044B9A6104E0034AD5
:1006400092698243014B9A6170470000001002409A
:1006500029B1064AD2680243044BDA6004E0034A37
:10066000D2688243014BDA607047000000100240FC
:1006700030B500210022002400232D4D6D6805F0C7
:100680000C0121B1042905D0082923D105E0294D09
:10069000056022E0274D05601FE0254D6D6805F4DB
:1006A0007012234D6D6805F48034022505EB9242EB
:1006B0001CB9214D554305600BE01D4D6D6815F4C7
:1006C000003F03D01C4D5543056002E0194D5543D2
:1006D000056002E0174D056000BF00BF144D6D6856
:1006E00005F0F0010909154D6B5C0568DD404560BA
:1006F0000F4D6D6805F4E061090A104D6B5C4568AB
:10070000DD4085600A4D6D6805F46051C90A0B4DE6
:100710006B5C4568DD40C560054D6D6805F4404182
:10072000890B074D6B5CC568B5FBF3F5056130BD02
:100730000010024000127A0000093D003100002044
:1007400041000020704710B500F002F810BD000015
:100750000CB50020019000903248006840F48030D1
:100760003049086000BF2F48006800F40030009056
:100770000198401C0190009818B90198B0F5A06F3D
:10078000F1D12848006810F4003F02D00120009009
:1007900001E0002000900098012842D12248006822
:1007A00040F01000204908600846006820F003006F
:1007B00008600846006840F0020008601948406878
:1007C000184948600846406848600846406840F458
:1007D000806048600846406820F47C104860084605
:1007E000406840F4E81048600846006840F08070B7
:1007F000086000BF0B48006810F0007FFAD009487D
:10080000406820F00300074948600846406840F00F
:100810000200486000BF0348406800F00C00082850
:10082000F9D10CBD00100240002002400120014916
:10083000087070470000002030B51A480068642234
:10084000B0FBF2F1B1F1807F01D301201DE021F076
:100850007F40401E4FF0E022506150170F220028C9
:1008600007DA13071D0E104B00F00F04241F1D554F
:1008700003E013071C0E0D4B1C5400BF00204FF06B
:10088000E022906107201061002008B100BFFEE760
:100890004FF0E020006940F001004FF0E0210861D6
:1008A00030BD00000400002018ED00E000E400E08E
:1008B00010B51348006840F001001149086008466F
:1008C0004068104908400E494860084600680E49D3
:1008D00008400B4908600846006820F48020086042
:1008E0000846406820F4FE0048604FF41F0088600E
:1008F000FFF729FF4FF000600449086010BD0000B9
:10090000001002400000FFF8FFFFF6FE08ED00E0D7
:1009100010B540F22551104800F082F8D0B10E48D1
:1009200000F03AF90D49087001200D4908700B4894
:1009300000780C49096808700A4801680A48814231
:1009400003D131380749086004E006480068401CBC
:100950000449086010BD000000380140300000204C
:1009600025000020200000207900002021B182898C
:1009700042F40052828104E082894DF6FF731A40EE
:100980008281704710B504462048844209D1012174
:100990008803FFF75DFE00214FF48040FFF758FE0B
:1009A00032E01B48844209D101214804FFF730FEA0
:1009B00000214FF40030FFF72BFE25E0154884425C
:1009C00009D101218804FFF723FE00214FF4802084
:1009D000FFF71EFE18E01048844209D10121C80427
:1009E000FFF716FE00214FF40020FFF711FE0BE089
:1009F0000A48844208D101210805FFF709FE0021B9
:100A00004FF48010FFF704FE10BD000000380140D5
:100A10000044004000480040004C004000500040AE
:100A200070B502460024002300250020A1F51066C1
:100A30006A3E00D100BFC1F3421501F01F03012639
:100A400006FA03F3012D02D19689334006E0022D08
:100A500002D1168A334001E0968A33400C120126F7
:100A600006FA04F41688344013B10CB1012000E0FA
:100A7000002070BDF0B503460024002600250020AC
:100A8000A1F510676A3F00D100BF1846C1F34214B8
:100A900001F01F06012707FA06F5012C01D10C30E1
:100AA00004E0022C01D1103000E014301AB10768C4
:100AB0002F43076002E00768AF430760F0BD000006
:100AC0002DE9F04786B005460E460024A24600BF39
:100AD000A1460027B08900B100BF2F462C8A4CF6F2
:100AE000FF700440F08804432C82AC894EF6F3106A
:100AF0000440B08831890843718908430443AC81BC
:100B0000AC8A4FF6FF400440B0890443AC8201A890
:100B1000FFF7AEFD1F48874202D1DDF810A001E0CB
:100B2000DDF80CA0A88910F4004F08D00AEBCA0029
:100B300000EB0A1031684900B0FBF1F807E00AEB5E
:100B4000CA0000EB0A1031688900B0FBF1F864209C
:100B5000B8FBF0F004012009642101FB1089A88989
:100B600010F4004F08D0322000EBC900B0FBF1F0C8
:100B700000F00700044308E0322000EB0910642174
:100B8000B0FBF1F000F00F0004432C8106B0BDE88B
:100B9000F08700000038014001468888C0F3080053
:100BA000704700BFFEE7014600BF70470448054993
:100BB000086005490860002004490870704700007B
:100BC000480000201C0000202000002024000020FD
:100BD00000BF054A128812F0400FFAD0C2B2024B91
:100BE0001B1D1A8070470000003801400D4909782C
:100BF0000A2900DB704772B60A490978491C094A7C
:100C000011700949094A1278885408490978491C21
:100C1000C9B2064A11700A2901D10021117062B6C9
:100C200000BFE7E728000020560100202600002032
:100C3000002000BF04E00021064A1154411CC8B244
:100C40000A28F8DB0021044A1170044A1170044A92
:100C50001170704756010020260000202700002058
:100C60002800002000210E48007808B900207047B5
:100C700072B60B480078401E094A107009480A4AAB
:100C80001278815C08480078401CC0B2064A107097
:100C90000A2801D10020107062B60846E7E700007C
:100CA0002800002056010020270000200024FFF724
:100CB00037FCFFF705FCFFF7BFFD4FF4165000F0BF
:100CC00011F9FFF758FCFFF771FFFFF7B1FF25E0BF
:100CD0001348007820B100201149087000F03AF85C
:100CE000FFF7C0FF0446CCB1012C06D0022C08D07F
:100CF000032C0AD0AA2C10D10BE00AA0FFF788FA27
:100D00000BE00BA0FFF784FA07E00CA0FFF780FAD6
:100D100003E00DA0FFF77CFA00BF00BFD8E700009A
:100D200025000020434D442031200D0A0000000022
:100D3000434D442032200D0A00000000434D442062
:100D400033200D0A00000000434D44204E200D0AC0
:100D500000000000F0B572B65D4800680078862893
:100D600015D05B4801685B48814203D1313858494E
:100D7000086004E056480068401C55490860544823
:100D8000006855490968884201D162B6F0BD5048F3
:100D900003685048834202D1A0F1310300E05B1C9C
:100DA0004D480068834201D162B6EFE71D784A489A
:100DB000006847490968884206D94748007844498D
:100DC0000978401AC6B207E04148006842490968FC
:100DD000401AC0F13200C6B2681D864201DA62B61E
:100DE000D4E73C48834202D1A0F1310300E05B1C10
:100DF000002600240AE0187846403648834202D193
:100E0000A0F1310300E05B1C601CC4B2AC42F2DB19
:100E100000271878804249D12E48834202D1A0F1A0
:100E2000310300E05B1C187855283FD129488342E4
:100E300002D1A0F1310300E05B1C1878AA2835D15B
:100E4000002414E02248006800782449085520480E
:100E500001682048814203D131381D49086004E00F
:100E60001B480068401C1A490860601CC4B2681D19
:100E70008442E7DB19484078012802D1FFF7B6FE2B
:100E800010E016484078022802D1FFF7AFFE09E0D3
:100E900012484078032802D1FFF7A8FE02E0AA20FA
:100EA000FFF7A4FE01200E49087001276FB908481A
:100EB00001680848814203D131380549086004E0DF
:100EC00003480068401C0249086062B600BF5DE745
:100ED0001C00002079000020200000207A00002063
:100EE0002400002010B586B00446012144F204001D
:100EF000FFF79EFB2248FFF745FD4FF40070ADF869
:100F0000140003208DF8160018208DF8170005A98D
:100F10001C48FFF700FA4FF48060ADF8140004207D
:100F20008DF8170005A91748FFF7F5F925208DF86A
:100F3000000001208DF801008DF802008DF80300FB
:100F40006846FFF71FFB01940020ADF80800ADF8DC
:100F50000A00ADF80C00ADF810000C20ADF80E0042
:100F600001A90748FFF7ACFD012240F225510448D2
:100F7000FFF780FD01210248FFF7F8FC06B010BD25
:100F80000038014000080140A80F000800000020C0
:100F9000480000006C010008F00F00084800002025
:100FA00078070000880100080000000000A24A0441
:100FB0000000000000000000010203040607080909
:100FC0000000000000000000000000000000000021
:100FD000000000000000000000000000000102030B
:100FE00004010203040607080902040608000000C1
:0400000508000131BD
:00000001FF
